:1000000000800020BD01000045820000FD8100004D
:10001000FD810000FD810000FD810000FD810000E8
:10002000FD810000FD810000FD810000458200008F
:1000300045820000FD8100005197000055970000A7
:100040004582000045820000458200004582000094
:100050004582000045820000458200004582000084
:100060004582000045820000458200004582000074
:100070004582000045820000458200004582000064
:100080004582000045820000458200004582000054
:100090004582000045820000458200004582000044
:1000A000117F00001D7F0000458200004582000096
:1000B0004582000045820000458200004582000024
:1000C0004582000045820000458200004582000014
:1000D0004582000045820000458200004582000004
:1000E00045820000458200004582000045820000F4
:1000F00045820000458200004582000045820000E4
:1001000045820000458200004582000045820000D3
:1001100045820000458200004582000045820000C3
:1001200045820000458200004582000045820000B3
:1001300045820000458200004582000045820000A3
:100140004582000045820000458200004582000093
:100150004582000045820000458200004582000083
:1001600045820000F58700004582000045820000BE
:100170004582000045820000458200004582000063
:100180004582000045820000458200004582000053
:100190004582000045820000458200004582000043
:1001A0004582000045820000458200004582000033
:1001B00045820000458200000D950000564B4CF230
:1001C000205210B51A804DF628121A8000BF00BFC9
:1001D00008F03CF8514B4FF010621A60504A9A6098
:1001E000504ADA60504A136813F4807304D14F49BF
:1001F0000B604FF4A85313604D4B1A78110703D5C9
:100200001A7842F008021A704A4B4B492A221A7097
:100210004A4A4B4B8B4204D252F8040F43F8040B6A
:10022000F8E7484B484900228B4202D243F8042B9E
:10023000FAE74649464A002352F8230041F82300D2
:1002400001336F2BF8D1434B434A802103F8011B44
:100250009342FBD1414B3D4A1A60414B8A221A70AE
:10026000A3F5805324225A70A0221A709A7992071B
:10027000FCD59A79D406FCD43A4A937903F00C035E
:10028000082B384BF9D103221A7140225A719A79FE
:100290009006FCD5334A9179324B4906FBD5324A58
:1002A000324911600221516020221A709A7902F0BD
:1002B0000C020C2AFAD12E4B2E4A1A602E4B2F4AD2
:1002C0001A6000225A60072243F8042C2C4AC3F813
:1002D0000C2D62B608F098F9144B1B68DA0705D5A7
:1002E000284808F0F3F8284B284A1A60284B1B7856
:1002F0005B0609D5244C254B22689A4204D121483B
:1003000008F0E4F80023236007F0A6FF09F03EFBA5
:1003100009F03EFAFEE700BF0E20054030800440A1
:10032000823F04000100002B10D0034014D0034092
:1003300002D0074000E007408461002074510200B1
:1003400020550020846100205C6D002000500020BA
:100350000000000000E400E05FE400E008ED00E0E1
:100360000050064000400640448004400000030165
:1003700004800440C010050014E000E0FF76010096
:1003800000002020486B6F641CE00340A5C3945A12
:1003900000F00740FFFFFFFFFFFFFFFFFFFFFFFF32
:1003A000FFFFFFFFFFFFFFFFFFFFFFFFFFFFFFFF5D
:1003B000FFFFFFFFFFFFFFFFFFFFFFFFFFFFFFFF4D
:1003C000FFFFFFFFFFFFFFFFFFFFFFFFFFFFFFFF3D
:1003D000FFFFFFFFFFFFFFFFFFFFFFFFFFFFFFFF2D
:1003E000FFFFFFFFFFFFFFFFFFFFFFFFFFFFFFFF1D
:1003F000FFFFFFFFFFFFFFFFFFFFFFFFFFFFFFFF0D
:10040000FFFFFFFFFFFFFFFFFFFFFFFFDEF9FFFF23
:1004100010B5054C237833B9044B13B10448AFF33E
:1004200000800123237010BD8461002000000000C3
:1004300070510200084B10B51BB108490848AFF3D2
:1004400000800848036803B910BD074B002BFBD0A0
:10045000BDE81040184700BF000000008861002080
:1004600070510200846100200000000010B50446B5
:1004700008F0F6FF204610BD002310B4104C417266
:10048000026104600372C36041B1194600E0026971
:1004900042F82310427A01339A42F8DC094B1A6879
:1004A0000AB90BE01A465369002BFBD150610023B7
:1004B00043618380C380837210BC70471860F6E785
:1004C000CC470200B86C002070B5002007F070FE29
:1004D000C8214048404C08F099FE404B404A9A6180
:1004E0000021084608F01AF80021012008F016F84B
:1004F0000021022008F012F80021032008F00EF875
:100500000021042008F00AF80021052008F006F870
:100510000021062008F002F80021072007F0FEFF66
:100520000021082007F0FAFF0021092007F0F6FF5C
:1005300000210A2007F0F2FF00210B2007F0EEFF58
:1005400001210C2007F0EAFF01210D2007F0E6FF52
:1005500001210E2007F0E2FF01210F2007F0DEFF4E
:100560000121102007F0DAFF0121112007F0D6FF4A
:100570000121122007F0D2FF0121132007F0CEFF46
:100580000121142007F0CAFF0121152007F0C6FF42
:100590000121162007F0C2FF0121172007F0BEFF3E
:1005A00010481149114A4FF4804345F27A4500261C
:1005B000A361E361236263628361C3610362436297
:1005C0008B61CB610B624B6256629561D56115629E
:1005D00070BD00BF0082FF1FA86100204865002099
:1005E000CCCC010004660020D46400200C650020FF
:1005F0002DE9F04FDFF8A8B2954ADBF80030136020
:1006000083B00020019207F07BFFDFF898A2914BA6
:10061000DAF80010CBF8000001201960009307F011
:100620006FFF8D4BCAF8000019688C4BDFF8789289
:100630001960022007F064FF874BDFF870821860B2
:10064000874B884F1968884B884E1960032007F044
:1006500057FF834B864D1860864B874C1968874B34
:100660000420196007F04CFF824B1860844B196816
:10067000844B0520196007F043FF814BD9F8001027
:100680001860814B0620196007F03AFF7F4BD8F8BD
:100690000010C9F800000720196007F031FF7C4BFB
:1006A0003968C8F800000820196007F029FF794B65
:1006B000316838600920196007F022FF764B2968FD
:1006C00030600A20196007F01BFF744B2168286016
:1006D0000B20196007F014FF019ADBF80010126874
:1006E00020609142009BC0F280811B68DAF80020F4
:1006F0009A42C0F27581594B574A1B6812689A4258
:10070000C0F26981584B564A1B6812689A42C0F27F
:100710005D815A4B574A1B6812689A42C0F2518158
:10072000584B574A1B6812689A42C0F24581564B93
:10073000D9F800201B689A42C0F23981534BD8F88F
:1007400000201B689A42C0F22D81514B3A681B6809
:100750009A42C0F222814F4B32681B689A42C0F223
:1007600017814D4B2A681B689A42C0F20C814B4B93
:1007700022681B689A42C0F20181DBF80030002B2E
:1007800040F0968001210C2007F0B4FEDAF800302A
:10079000002B40F0968001210D2007F0ABFE2E4B80
:1007A0001B68002B40F0968001210E2007F0A2FE6E
:1007B0002B4B1B68002B40F0968001210F2007F087
:1007C00099FE2C4B1B68002B40F0968001211020D5
:1007D00007F090FE2A4B1B68002B40F09680012109
:1007E000112007F087FED9F80030002B40F09680EA
:1007F0000121122007F07EFED8F80030002B40F0D7
:1008000096800121132007F075FE3B68002B40F015
:1008100096800121142007F06DFE3368002B40F014
:1008200096800121152007F065FE2B68002B40F013
:1008300096800121162007F05DFE2368002B00F052
:1008400096800021172003B0BDE8F04F07F052BE9C
:10085000A0610020A4610020AC6500204465002058
:10086000B0650020C4650020E0610020CC6200205B
:10087000D062002034620020D4620020E4610020B5
:100880004C620020E8610020EC610020F061002053
:10089000F4610020B4650020B8650020BC6500202C
:1008A000A4650020A865002050620020C0650020DB
:1008B00000210C2007F01EFEDAF80030002B3FF478
:1008C0006AAF00210D2007F015FE4B4B1B68002B73
:1008D0003FF46AAF00210E2007F00CFE474B1B6867
:1008E000002B3FF46AAF00210F2007F003FE444BBA
:1008F0001B68002B3FF46AAF0021102007F0FAFDBF
:10090000404B1B68002B3FF46AAF0021112007F019
:10091000F1FDD9F80030002B3FF46AAF002112201E
:1009200007F0E8FDD8F80030002B3FF46AAF002153
:10093000132007F0DFFD3B68002B3FF46AAF002176
:10094000142007F0D7FD3368002B3FF46AAF002175
:10095000152007F0CFFD2B68002B3FF46AAF002174
:10096000162007F0C7FD2368002B7FF46AAF012132
:10097000172003B0BDE8F04F07F0BCBD2249234863
:1009800000F02CFFF9E62249224800F027FFEEE6AE
:100990002149224800F022FFE3E62149214800F0E6
:1009A0001DFFD8E62049214800F018FFCDE6204978
:1009B000204800F013FFC1E61F49204800F00EFF59
:1009C000B5E61F491F4800F009FFA9E61E491F4868
:1009D00000F004FF9DE61E491E4800F0FFFE91E670
:1009E0001D491E4800F0FAFE85E61D491D4800F02D
:1009F000F5FE009B79E600BFAC650020B0650020E5
:100A0000346200204C6200203C180200A4620020E6
:100A100094A500007C62002040280200546200205F
:100A2000B8070200AC640020B4B501008464002063
:100A3000309601005C6400202C86010034640020A4
:100A4000284B01000C640020A42B0100E46300206B
:100A500020140100BC6300201C04010094630020EA
:100A600018F400006C6300202DE9F04F6C4D6D4FC1
:100A7000DFF8FC91DFF8FCA1DFF8FCB16A4EDFF88B
:100A8000E8810022144683B011462846FFF7F4FCA3
:100A90002246214665482F6085F82640FFF7ECFC8A
:100AA000624B2246214648461F6083F82640FFF7E6
:100AB000E3FC224621465046C9F8007089F82640DA
:100AC000FFF7DAFC224621465846CAF800708AF839
:100AD0002640FFF7D1FC224621465548CBF800704E
:100AE0008BF82640FFF7C8FC514B52481F60224646
:100AF000214683F82640FFF7BFFC4E4B4E481F604F
:100B00002246214683F82640FFF7B6FC4A4B4B4865
:100B10001F602246214683F82640FFF7ADFC474B75
:100B200047481F602246214683F82640FFF7A4FC71
:100B3000434B44481F602246214683F82640FFF776
:100B40009BFC404B40481F602246214683F82640CC
:100B5000FFF792FC3D4B03F1280218463A4B042163
:100B60001F6083F82640FFF787FC394B03F128020A
:100B70001846364B4FF4803704211E609F61DF61B9
:100B80001F625F62FFF778FC324B03F128021846C0
:100B90002F4B04211E609F61DF611F625F62FFF7C0
:100BA0006BFC2D4B03F1280218462A4B04211E60D2
:100BB0009F61DF611F625F62FFF75EFC264B1E6074
:100BC000264B274E03F11C021846234B01219F613F
:100BD000DF611F625F62FFF74FFC2049214A1F4B14
:100BE0000A60012008F118029F612146234688F817
:100BF0000840C8F80C40C8F8006088F80900C8F838
:100C00001020444600E0226942F8231098F8092099
:100C1000154801339A42F6DC144B1A687ABB91E10D
:100C2000A4620020FC490200E44902008464002020
:100C30000C6400205C64002034640020E463002025
:100C4000BC6300206C6300209463002004660020D5
:100C5000D4640020A86100200C65002048650020B5
:100C6000CC470200D849020050630020B86C002035
:100C7000AC640020546200207C6200201A46536954
:100C8000002BFBD1C2F814800024AF4FAF4BB0480B
:100C9000C8F80030C8F81440A8F80440A8F8064086
:100CA00088F80A4000F02AFBAA4B7B6038464FF0D8
:100CB0000303A94E7B723C723D60FC603C7408F0FB
:100CC0009BFBA64AA649A74D384608F04DFEA64B09
:100CD0003360A64B736030464FF003037372347277
:100CE000F460347408F088FB9C4A9D49A04F30465C
:100CF00008F03AFE974B6B6028462C72C5F80090BE
:100D00006C72EC602C7408F077FB944A9449994E0D
:100D1000DFF8B092284608F027FE8E4B7B603846FD
:100D20004FF001037B723C72C7F800A0FC603C747A
:100D300008F062FB894A8A498F4DDFF88CA2384659
:100D400008F012FE834B736030464FF0020373725B
:100D50003472C6F800B0F460347408F04DFB7F4A7A
:100D60007F49864FDFF864B2304608F0FDFD844BC2
:100D70002B6028467D4B2C726B606C72EC602C747F
:100D800008F03AFB754A76497E4B0193284608F0F5
:100D9000EBFD7D4B3B60754B7B6038464FF00203AB
:100DA0007A4E7B723C72FC603C7408F025FB6B4A07
:100DB0006B49774D384608F0D7FD764B33606B4B67
:100DC000736030464FF0010373723472F460347410
:100DD00008F012FB614A62496F4F304608F0C4FDCB
:100DE0004FF003036B726D4B2B6028466C4B6B60AE
:100DF0002C72EC602C7408F0FFFA5949574A694E7E
:100E0000284608F0B1FD019B674A1A60644A5A609F
:100E100018464FF002021C725A72DC601C7408F013
:100E2000EBFA019B4D4A4E49604D184608F09CFD77
:100E30005F4BCBF800305846594BCBF804308BF859
:100E400008408BF80940CBF80C408BF8104008F0B4
:100E5000D3FA424A4249584608F086FD554BCAF833
:100E600000304F4BCAF8043050464FF001038AF867
:100E700009308AF80840CAF80C408AF8104008F097
:100E8000BBFA364A3649504608F06EFD4FF0010372
:100E900089F80930354BC9F800304846464BC9F847
:100EA000043089F80840C9F80C4089F8104008F06F
:100EB000A3FA2B49294A484608F056FD3F484FF00F
:100EC00002024272234A02603B4A42600472C460DA
:100ED000047408F091FA214A2149384808F044FD89
:100EE0002F4B3B603846344B7B603C727C72FC601D
:100EF0003C7408F081FA194A1949384608F034FD63
:100F00002D4B336030462E4B736034727472F46034
:100F1000347408F071FA114A1149304608F024FD82
:100F2000274B2C72284685E808016C72EC602C7403
:100F300008F062FA094A0A49284603B0BDE8F04FB2
:100F400008F012BD18609FE6D8620020F049020048
:100F500050630020D4640020EC620020FC55002087
:100F60006D040000006300208464002004660020FB
:100F700014630020286300203C6300206865002083
:100F80000C640020C86500205C6400207C650020A3
:100F9000906500203464002020620020E46300207B
:100FA000A86100203C660020BC630020386200205D
:100FB0006C630020946300200C6500200C6200200C
:100FC00048650020F8610020F0650020DC65002005
:100FD00010B5044608F040FB204610BD024A034904
:100FE000034808F0C1BC00BFFC550020D10F000031
:100FF0005066002038B5074D074C08482A46214660
:1010000008F0B2FC2A4621460548BDE8384008F001
:10101000ABBC00BFFC550020D10F0000586600207B
:1010200060660020024A0349034808F09DBC00BFE7
:10103000FC550020D10F000068660020024A0349D9
:10104000034808F091BC00BFFC550020D10F000000
:1010500070660020024A0349034808F085BC00BFBF
:10106000FC550020D10F000078660020024A034999
:10107000034808F079BC00BFFC550020D10F0000E8
:1010800080660020024A0349034808F06DBC00BF97
:10109000FC550020D10F000088660020024A034959
:1010A000034808F061BC00BFFC550020D10F0000D0
:1010B000906600202DE9F8434FF00008064600F145
:1010C0001805474641463046002F4FD008F066F9D4
:1010D000F0B12C68B4F5803F07F1040100F1040E73
:1010E00007F5827C27D05EF8042B34FB02F334FB37
:1010F00012F903F30F0209F30F03C2EA03430A686C
:1011000093FA12F341F8043B8C45ECD808F002F94D
:1011100008F10108B8F1040F05F10405D2D1002F40
:1011200040D030463946002208F01EF93846BDE866
:10113000F84308F0EFB807F10C0100F10C0451F886
:10114000083C54F8082C93FA12F341F8083C54F880
:10115000042C51F8043C93FA12F38C4541F8043CFA
:1011600004F1080401F10801E9D8CFE708F022F9F9
:1011700007460028CCD02868B0F5803FC8D0391D7C
:1011800007F582740B6830FB03F230FB13F302F3B4
:101190000F0203F30F03C2EA034341F8043B8C42FE
:1011A000F0D8B5E7BDE8F88370B584692CB3B4F521
:1011B000803F06464FF0000125D008F0FBF80546B9
:1011C00000B3011D00F582700B6834FB03F234FBA1
:1011D00013F302F30F0203F30F03C2EA034341F8D0
:1011E000043B8842F0D830460022294608F0BCF87B
:1011F0002846BDE8704008F08DB8214608F0CEF8CA
:101200000028F6D170BD08F0C9F804460028F9D0CE
:1012100030462146002208F0A7F82046BDE870407D
:1012200008F078B8024A0349034808F09DBB00BFA4
:10123000FC550020D10F00009866002010B5002159
:1012400008F0ACF870B172B60A4B1A6872B10A496C
:101250000C6844B11C60086062B61046BDE81040DE
:1012600008F058B810BD086062B610BD186062B6CC
:1012700010BD00BFB0660020A066002038B5184B36
:1012800018491A68184C12681B79184D0B70A24245
:10129000286836BF2246A4F5807202F58074C0B17A
:1012A000011D31F9023B03F500431B1122F8023BFB
:1012B0009442F6D808F02EF80D4B002219682960E8
:1012C0001A600C4B1B781BB10B4B4FF080421A601D
:1012D00038BD4FF4006322F8023B9442FBD8F0E79C
:1012E000A46600201F800040204E0020B066002031
:1012F000A0660020AC66002008E200E0F8B50121FD
:101300004248434E08F044F9424A4349136880205A
:1013100043F4805313600024087040F608053480BD
:101320000120083407F022F9A3B2AB421CB2F6D177
:101330003A4B1B685B0208D5394B1A6848F6A27312
:10134000134048F6A27293424FD03449344A0B6896
:10135000344F354D3548364C43F480030B604FF025
:10136000010E40F23F4648F6A37140F20113C7F860
:1013700000E02E60116014600360244C2D4A236845
:1013800023491A6002259D802279196102F1804269
:1013900002F50432284EDE6040F20111D9804FF48C
:1013A000807000210627B026D8829D60D88399825C
:1013B0009F8399611170167008F090F822791F4B85
:1013C0001F4E187053119B0003F160431D4C327087
:1013D00003F5614302F1100002F01F0701211A4DCD
:1013E00044F82050B9401960F8BD0F4B1A6840F21C
:1013F0003F439A42A9D10B4B1B68012BA5D10B4B44
:101400001A6840F201139A429FD1B6E7A466002001
:1014100000C00C402C80044021C00C403C800440A3
:10142000006003400C600340046003401060034010
:10143000A28F0100204D002000FEFFFFAC660020BF
:101440001B800040005000207D120000024A03492A
:10145000034808F089BA00BFFC550020D10F0000F6
:10146000A4660020024A0349034808F07DBA00BF81
:10147000FC550020D10F0000B4660020024A034949
:10148000034808F071BA00BFFC550020D10F0000DE
:10149000BC660020024A0349034808F065BA00BF51
:1014A000FC550020D10F0000C4660020024A034909
:1014B000034808F059BA00BFFC550020D10F0000C6
:1014C000CC660020024A0349034808F04DBA00BF29
:1014D000FC550020D10F0000D4660020024A0349C9
:1014E000034808F041BA00BFFC550020D10F0000AE
:1014F000DC66002090F8263003B970472DE9F04FE4
:1015000083B0064607F0B2FE8346B0B196F82600D7
:10151000B369B6F92420C0B2032874D010D9822848
:1015200000F03E81832800F00481812859D058467C
:1015300007F0F0FE002386F8263003B0BDE8F08FF8
:10154000012800F0D3800228F1D1A34917460BF1FE
:10155000140003F1400453F8042BD5B2C2F3072C56
:1015600031F9155031F91CC020F80E5CC2F3074E5A
:10157000120E31F91EE031F9122020F80ACC2F4466
:1015800065447F106D1020F8107C20F80C5C0CEB8B
:101590000E0702EB0E057F106D10A34220F8087CA9
:1015A00020F806EC20F8045C20F8022C174600F125
:1015B0001000D0D14021336AB2848B428CBF5B1AB9
:1015C00000233046B4618CBF336286F82630002297
:1015D000594607F0C9FE584603B0BDE8F04F07F082
:1015E00099BE0BF1080003F5807453F8041B20F832
:1015F000041CA3424FEA114120F8021C00F1040030
:10160000F3D18021D7E77449009094460BF124056B
:1016100003F12004CDF804B053F8042B5FFA82FEE6
:10162000C2F3072731F91EE031F9177025F81AECDB
:101630000EEB4E0AC2F307400CEB0A0BBA4431F929
:10164000100025F8127C07EB47094FEAAA0A25F893
:1016500018AC120E0EEB090A00EB40084FEAAB0B78
:101660004FEAAA0A31F9122025F81CBC814425F85A
:1016700014ACDDF800B025F80A0C07EB080A4FEAB5
:10168000A9094FEAAA0A25F8109C25F80CAC1CFB06
:101690000BE900EB020AF4449044BE44074412FBF9
:1016A0000B004FEA6C0C4FEAA8084FEAA9094FEA71
:1016B0006E0E7F104FEA6A0A8010A34225F81ECCF6
:1016C00025F8022C25F8088C25F8209C25F816EC26
:1016D00025F80E7C25F806AC25F8040C944605F197
:1016E000200599D1DDF804B0202164E73A490BF1D7
:1016F0000C0503F1800453F8040B5FFA80FCC0F37F
:10170000072EC0F30747000E31F81CC031F81EE069
:1017100031F8177031F8100025F808CCA34225F8ED
:1017200006EC25F8047C25F8020C05F10805E2D149
:1017300067E715460BF1140003F140044FF0030E68
:1017400053F8042B11B201EB410705EB0708121403
:101750004FEAA80815FB0E1C20F80A1C0D4420F8BF
:101760000C8C174401EB020812FB0E116D10BF1018
:101770004FEAAC0C4FEA68088910A34220F80E5CCF
:1017800020F8022C20F8087C20F810CC20F8068CD9
:1017900020F8041C154600F11000D1D120210AE7E1
:1017A00010460BF10C0103F1800453F8042B17B21F
:1017B00012143844D51940106D10A34221F8080CBA
:1017C00021F8067C21F8045C21F8022C104601F176
:1017D0000801EAD1EEE600BFD0470200002280F8FF
:1017E00026200B688284043123F07F421B0E816126
:1017F000C161026280F82630704700BF0020704748
:10180000704700BF036D0BB101207047406D003081
:1018100018BF0120704700BF10B50446806D18B195
:1018200008F0E4F80023A365236D2BB104F1180040
:10183000BDE8104005F0B2B9636D002BF6D110BDC4
:10184000F0B5002395B01A460546183104A84FF4A8
:101850007A74224F8DF804308DF80C301293139364
:101860000294009705F0EEF9129B002B2BD05C2020
:1018700007F096FF04461A4B9DF80400029A194996
:10188000236000269DF80C302073A160226104A91A
:10189000237504F11800666005F052F96368124A76
:1018A000A76001334FF47A71A6652E712E732C61F7
:1018B0006360A9602A600D4B009304A805F06EF9DF
:1018C000284615B0F0BD139B002BD0D1064A2B71D2
:1018D000AC602B732B612A60EDE700BF504A020019
:1018E000A04A0200084A0200744A02002C4A020080
:1018F000036D13B1184603F0CDBB406D08B101F084
:1019000005BA4FF0FF30704700B5836C83B063B108
:10191000184601220DF1070103F0ECFA01280CD161
:101920009DF8070003B05DF804FBC06C28B10122EC
:101930000DF1070101F016F9F0E74FF0FF30F1E784
:10194000F0B5036D83B00C462BB318460DF10602BB
:1019500001A903F033F9D8B1BDF80430BDF8062071
:1019600003B9AAB102F01F06C3F343155912C2F31B
:1019700045177600013D01F5EA6103F01F03D2121D
:1019800026706571A17123716770A27003B0F0BDFC
:10199000002003B0F0BD406D0028F9D00DF1060223
:1019A00001A901F06FF8D6E7036D9BB11A7812F028
:1019B000700F00D1704710B504460021184603F09F
:1019C0008BFC606D28B100220023BDE8104001F0BF
:1019D000B5B910BD406D0028ECD090F8313013F04F
:1019E000500FE7D00022002301F0A8B938B5846D6C
:1019F0000CB1204638BD05464FF4807007F0EEFF6D
:101A00000146A86580B1286D0C7028B14FF4807232
:101A100004F0CEFEAC6DECE7686D40B14FF480721F
:101A200002F00AFDAC6DE4E7024CAC65E1E70C4660
:101A3000DFE700BFE46600208A79A2F150031B06AD
:101A400020D4F0B54B79046D0D798E784F780978F4
:101A5000013385B002F26C72DBB244B103918DE8C0
:101A6000E0002046042103F04FFD05B0F0BD406DBD
:101A70000028FAD003918DE8E000042101F018FF5E
:101A800005B0F0BD00207047D0B5046D8CB1012BBE
:101A900008BF002A01D30020D0BD1146204603F024
:101AA0001BFC0028F7D0204603F096FD0028F2D05A
:101AB000D0BD446D002CEED0204601F03FF9002847
:101AC000E9D02046BDE8D04001F0A0BFF0B5036DDD
:101AD00083B00C462BB318460DF1060201A903F0A2
:101AE0007DF8D8B1BDF80430BDF8062003B9AAB11D
:101AF00002F01F06C3F343155912C2F345177600CF
:101B0000013D01F5EA6103F01F03D21226706571F1
:101B1000A17123716770A27003B0F0BD002003B003
:101B2000F0BD406D0028F9D00DF1060201A900F0CA
:101B3000B9FFD6E7036D13B1D86900217047436D33
:101B400013B118695969704718461946704700BFA4
:101B5000036D13B1586900217047436D13B193E8C9
:101B60000300704718461946704700BF036D13B154
:101B7000184603F0BFB9406D08B100F0F3BF4FF055
:101B8000FF307047836C13B1184603F083BAC06C02
:101B900008B101F0BBB84FF0FF307047036D33B1AF
:101BA0001B7813F0700F14BF012000207047406DA8
:101BB00030B190F8313013F0500F14BF01200020E5
:101BC000704700BF8A79A2F150031B0620D4F0B5FC
:101BD0004B79046D0D798E784F780978013385B093
:101BE00002F26C72DBB244B103918DE8E000204652
:101BF000022103F089FC05B0F0BD406D0028FAD049
:101C000003918DE8E000022101F052FE05B0F0BD25
:101C100000207047036963B11A68074992698A42D4
:101C200008D1186D08B103F069BC586D08B101F016
:101C3000D3BC704718461047511C0000836C13B189
:101C4000184603F05BBCC06C08B101F0C5BC70471E
:101C5000036D13B1184603F051BC406D08B101F09B
:101C6000BBBC704710B5036982B08DF80710BBB1DB
:101C70001968104ACC68944215D1186D30B1012210
:101C80000DF1070103F0E4FC02B010BD586D00280F
:101C9000FAD001220DF1070101F028FF02B010BDBA
:101CA000184602B010BD184601220DF10701A047E9
:101CB00002B010BDF91C0000036973B11A6808492D
:101CC00052698A4207D1186D08B103F0E3B9586D23
:101CD00018B101F01BB8184610474FF0FF3070479D
:101CE000F1180000836C13B1184603F0B1BCC06C4E
:101CF00008B101F0FBBE7047036D13B1184603F045
:101D0000A7BC406D08B101F0F1BE704700B5836C0F
:101D100083B08DF8071043B1184601220DF1070179
:101D200003F096FC03B05DF804FBC06C0028F9D00A
:101D300001220DF1070101F0D9FE03B05DF804FBAB
:101D400003697BB110B41C680B48E46884420ED16F
:101D5000186D10B110BC03F07BBC586D20B110BCE5
:101D600001F0C4BE00207047002010BC7047184628
:101D7000234610BC184700BFF91C0000036923B3B9
:101D800010B51968124A8C68944282B014D1186D4B
:101D900048B101220DF1070103F0ACF890B19DF8B4
:101DA000070002B010BD586D0028F8D001220DF1D7
:101DB000070100F0D7FEF1E7184601220DF10701F7
:101DC000A047EBE74FF0FF30EBE74FF0FF307047F5
:101DD0006D1B0000826C62B1137803F0080303F0FE
:101DE000FF0003B3D3695069181A48BF6FF0004071
:101DF0007047C16CC1B191F8313003F0080303F0B2
:101E0000FF0083B1D1E90423D1E90001101A30B4F5
:101E100063EB010100256FF000448D4208BF84424E
:101E200000D2204630BC704708467047026D62B150
:101E3000137803F0080303F0FF0003B3D36950697C
:101E4000181A48BF6FF000407047416DC1B191F85A
:101E5000313003F0080303F0FF0083B1D1E904231C
:101E6000D1E90001101A30B463EB010100256FF0D5
:101E700000448D4208BF844200D2204630BC7047E7
:101E800008467047006970B30368184A1B6993429B
:101E90000ED1026D6AB1137803F0080303F0FF005E
:101EA0000BB3D3695069181A48BF6FF000407047F0
:101EB0001847416DC1B191F8313003F0080303F0C8
:101EC000FF0083B1D1E90423D1E90001101A30B435
:101ED00063EB010100256FF000448D4208BF84428E
:101EE00000D2204630BC7047084670472D1E0000C7
:101EF000D0B4039C16461F4634B1012C1ED0022CD0
:101F00000DD00020D0BC7047046DDCB1012B08BFA0
:101F1000002AF6D220461146D0BC03F0DDB9036D8D
:101F2000B3B1DA69B61847F10007012F08BF002ED8
:101F3000E7D231461846D0BC03F0CEB9036D8BB161
:101F40005A69EFE7406D0028DBD0D0BC00F0F6BE48
:101F5000406D0028D5D0D0E9042392197B41D0BC34
:101F600000F0ECBE406D0028CBD0D0E900239219E0
:101F70007B41EAE738B50446806D0C4B236018B10D
:101F800007F034FD0023A365236D04F118054BB160
:101F9000284604F003FE064BA360284604F0FEFD2D
:101FA000204638BD636D002BF2D1F4E7A04A020051
:101FB0002C4A020038B50446806D0E4B236018B1E0
:101FC00007F014FD0023A365236D04F118056BB120
:101FD000284604F0E3FD084BA360284604F0DEFD2C
:101FE00020465C2107F0DEFB204638BD636D002BE8
:101FF000EED1F0E7A04A02002C4A020070B5046955
:10200000244B036005461CB16668013E66600EB154
:10201000284670BD2368204ADB6A93422CD1A06D0C
:1020200010B107F0E3FCA665236D5BB304F1180063
:1020300004F0B4FD2C69002CEAD02368174A5B68D1
:1020400093421CD1A06D164B236018B107F0CEFC53
:102050000023A365236D04F11806BBB1304604F0DC
:102060009DFD104BA360304604F098FD20465C2196
:1020700007F098FB284670BD20469847DAE72046CF
:102080009847C5E7636D002BD0D1D3E7636D002B74
:10209000E4D1E6E7744A020019180000B51F0000F9
:1020A000A04A02002C4A020070B50569284B036063
:1020B00004461DB16E68013E6E602EB120461421AB
:1020C00007F070FB204670BD2B68224ADB6A934202
:1020D00030D1A86D10B107F089FCAE652B6D7BB3D4
:1020E00005F1180004F05AFD2569002DE6D02B6893
:1020F000194A5B68934220D1A86D184B2B6018B128
:1021000007F074FC0023AB652B6D05F11806DBB1FD
:10211000304604F043FD124BAB60304604F03EFD08
:1021200028465C2107F03EFB2046142107F03AFBCD
:10213000204670BD28469847D6E728469847BDE711
:102140006B6D002BCCD1CFE76B6D002BE0D1E2E7BC
:10215000744A020019180000B51F0000A04A0200CE
:102160002C4A020010B4047F4160022CC26002D0ED
:1021700010BC07F08BBA836810BC18472DE9F041FA
:102180000468E56815F0807F794D256052D1DF073E
:1021900040F1B380002900F0E3800D78012B18BFD7
:1021A00045F000456563013190F8248003F1FF3C60
:1021B00048EA0828BCF1000F00F0A88021B14D7852
:1021C00011F8028B45EA082845682E7ABCF1020F07
:1021D00006F1FF364FEA06360CBF48F0805548F04E
:1021E0001045B6B26563ACF1020C08E00AB1147098
:1021F0000132013B05F47045B54216D90468E56A21
:1022000015F0F00FF6D0A46B13F0010F17464FEA4C
:10221000242EEBD11AB107F802EB54703A4605F4BC
:102220007045B542A3F10203E8D8BCF1000F6DD0B0
:102230000468C3E7DD074CD5002900F089800D78DC
:10224000012B18BF45F000456563013103F1FF3EE6
:1022500090F824C0BEF1000F41D029B191F801C01F
:102260000D78023145EA0C2C45682E7ABEF1020F3A
:1022700006F1FF364FEA06360CBF4CF080554CF0A5
:102280001045B6B26563AEF1020E08E00AB11470F3
:102290000132013B05F47045B54215D90468E56A81
:1022A00015F0F00FF6D013F0010F1746A46BEDD127
:1022B00022B107F8024B241254703A4605F47045D7
:1022C000B542A3F10203E9D8BEF1000F07D00468BC
:1022D000C3E79E4690F824C0BEF1000FBDD11BB3EA
:1022E0000468E16A11F0F00FFBD0A16BDC071DD58B
:1022F0000AB111700132013BF1E790F824809C464D
:1023000048EA0828BCF1000F7FF458AF63B10468B5
:10231000E16A11F0F00FFBD0DE07A16B0FD50AB117
:1023200011700132013BF1E7BDE8F0812AB114469A
:102330000D1204F8021B55702246023BCFE72AB16A
:1023400014460D1204F8025B51702246023BDDE791
:1023500090F82450012B18BF45F00045656375E7E0
:1023600090F82450012B18BF45F0004565631BE72A
:1023700000041F80F0B4464B464A186BDC6A0179B2
:102380001170454922790A709A6A00790870002A0A
:1023900046D05968C9688A423ED82168CC8B24044B
:1023A00002F1FF3065D4C0F30E00C883C88B80B241
:1023B000C882196B0968C88B000452D4C2F30E009E
:1023C000C883C88B002480B212F1FF32C88218BFC4
:1023D00001229C62D96A2E4809680D6800F1240424
:1023E000A54236D00068C46814F0804F0C680D68B0
:1023F00015BF248824780235013544F000440D606F
:102400004463196B254B09791970214912B1CA6AC5
:1024100012791A70F0BC7047521A9A620122D9E7F9
:10242000586B196805681E4C0A63CC62CC682D682D
:102430001C4E24F080440327B542CC6083F82570FD
:102440001FD1037F4260022BC2601ED0F0BC07F098
:102450001DB9016890F82400CC6840F00040486342
:10246000CFE7CC8BC2F3080004F47E442043C8833A
:10247000A7E7CC8BC0F3080004F47E442043C88354
:1024800094E72B461146F0BC18478368F0BC184708
:10249000005600201F8000401C8000401B80004030
:1024A00000000FFF6521000090E80C00F0B41C68EC
:1024B00059682568164F174E29432160164D174954
:1024C0001760D66015611160417A154A5C180A31AF
:1024D00094F8244053F8215002EBC40149680D6080
:1024E000017A5C1803EB8101247ECD6902EBC40103
:1024F00049680D60817A581803EB810390F8300029
:10250000596B02EBC002F0BC53681960704700BF02
:1025100001401F00011000380110007800001F80EA
:10252000A44F02000BB1FFF729BE7047704700BFF0
:10253000F0B5012B95B005463AD0022B01F104010C
:1025400040F20223684618BF002304F011FC129BDE
:10255000002B36D05C2007F023F904469DF8046078
:102560001E481F49029A9DF80C30206004AF267364
:10257000A1600026394604F11800226123756660C7
:1025800004F0DEFA63681748174AA66501334FF472
:102590007A712E712E732C61A0606360A9602A602D
:1025A000124B0093384604F0F9FA284615B0F0BDF6
:1025B00044F202230431684604F0DAFB129B002B3C
:1025C000C8D1139B002BC5D14FF47A71064A2B71E9
:1025D0002B732B61A9602A6004AFE1E7A04A0200D7
:1025E000084A0200504A0200744A02002C4A0200C3
:1025F00010B5D0F884448EB0A4B10A46684621468E
:10260000012300248DF800408DF801408DF8024030
:1026100002F046FC08B90EB010BD684603F096FC07
:102620000EB010BDD0F888040028F4D00A4601236B
:10263000014668468DF831408DF832408DF83340C0
:1026400000F03EFE0028E6D0684600F0A1FE0EB085
:1026500010BD00BF10B5D0F884448EB07CB10A46DE
:10266000012304F58961684600248DF800408DF847
:1026700001408DF8024002F04DFB0EB010BDD0F8C5
:1026800088040028F9D00A46012300F589616846CC
:102690008DF831408DF832408DF8334001F066F806
:1026A0000EB010BD30B5D0F884448FB074B10025A1
:1026B0000A462B46214668468DF800508DF8015099
:1026C0008DF8025002F0ECFB0FB030BDD0F888045A
:1026D0000028F9D00A462346014668468DF8314065
:1026E0008DF832408DF8334000F0EAFD0FB030BD78
:1026F00038B50546D0F88404C0B1C469013C04F083
:102700005DF9D5F88434241A43B198794FF40073F5
:1027100003FA00F080B2A0FB040138BDD5F888347C
:1027200063B1D3F83C04A0FB040138BDD5F888049C
:1027300020B1D0F8304402F083F8E2E70020002115
:1027400038BD00BF30B5D0F884448FB0A4B10025A7
:102750000A462B46214668468DF800508DF80150F8
:102760008DF8025002F09CFB08B90FB030BD6846EE
:1027700002F084FD0FB030BDD0F888040028F4D0FA
:102780000A462346014668468DF831408DF83240AE
:102790008DF8334000F094FD0028E6D0684600F044
:1027A00055FE0FB030BD00BF70B5D0F884448EB078
:1027B0001646C4B1002504F589640A462B46214615
:1027C00068468DF800508DF801508DF8025002F0E7
:1027D00005FB08B90EB070BD32462146684602F0CE
:1027E0008FFC0EB070BDD0F888040028F2D000F540
:1027F00089650A462346294668468DF831408DF89A
:1028000032408DF8334000F0EBFC0028E2D0324635
:102810002946684601F002F80EB070BDD0F8842455
:102820004AB19179D0694FF400738B409BB2013863
:10283000A3FB00017047D0F8882432B1D2F83034BD
:10284000D2F83C04A3FB0001704700200021704730
:102850002DE9F041D0F8904492B04CB11F46236866
:1028600005469B6920469847B0F5405F064603D869
:10287000002012B0BDE8F0814FF4007007F0AEF810
:1028800080460028F4D0B6F1806F07AE3B46214663
:102890003046424637D803F033FE0446404607F040
:1028A000A5F8002CE4D095F8AC44FF2C34D095F872
:1028B000ADC4D5F8B0E4D5F8B4748DF804408DF803
:1028C00005C0CDF808E0039701AB93E8070004AB1F
:1028D00083E807008DF810408DF811C0CDF814E0A2
:1028E000069793E8070086E8070005F2944496E807
:1028F0000E00204604F052FB95F8A734C5F890442A
:102900002BB10120B5E701F0CDFA0446C6E7214618
:10291000281D04F0C9F9F4E7002385F8AC44C5F894
:1029200090340120A5E700BFF0B50446D0F890042C
:102930008BB088B394F8BC54002D3AD194F8AC64B1
:10294000FF2E2DD094F8ADC4D4F8B0E4D4F8B4740C
:102950008DF800608DF801C0CDF804E002979DE885
:10296000070003AB83E807008DF80C608DF80DC0FD
:10297000CDF810E0059793E8070006AB83E8070061
:1029800004F294460ECB304604F008FB94F8A734CA
:10299000C4F89064ABB1284684F8BC040BB0F0BD19
:1029A000284684F8AC64C4F8905484F8BC040BB096
:1029B000F0BD06AA0A2104F0E9FB84F8BC040BB0C0
:1029C000F0BD3146201D04F06FF984F8BC040BB053
:1029D000F0BD00BFF0B4114B114D124C1D60292603
:1029E000FF25C3F89C4400240F4883F8A7640127FF
:1029F00083F8BD5483F8AA4483F8B844C3F8940418
:102A000083F8A574C3F88444C3F8884483F8BC44AD
:102A1000064A07491846F0BC06F0A6BFE866002043
:102A2000004C020001100138F84C0200FC55002057
:102A30002D250000F0B500F1240305460E4617468B
:102A400093E8070085B001AC84E8070072012146D5
:102A5000286A01F085FE012806D13A462146286AF7
:102A600001F046FE05B0F0BD002005B0F0BD00BF8E
:102A700010B5044600F0B0FD002384F8313084F82E
:102A8000333010BD38B50D46144600F12401002244
:102A9000006A01F02DFE20B143892B800389238039
:102AA000012038BD38B50D46144600F1240100223E
:102AB000006A01F01DFE20B1C3892B808389238029
:102AC000012038BD90F831200AB10020704738B598
:102AD00004460D461146382207F07AFA40230120B9
:102AE00084F8313084F83300256238BD70B40D4667
:102AF0000978202903D115F8014F202CFBD0184963
:102B000015600EE0A4F12206F6B21D2E20D904F0C5
:102B1000BF063C2E0ED05C2C0CD02E2C02D0202CCC
:102B200000D095602C782E46013564B12F2C06D04C
:102B30001F2CE7D8002070BC704716F8014F202CDE
:102B4000FBD02F2CF9D01E60114670BC01F0D8BC10
:102B500021FA06F6F607DAD5002070BC704700BFF0
:102B6000010100312DE9F04F90F83330DE0783B0DA
:102B700004465AD55D060E46934640F1B780D4E927
:102B80000001D4E9042310EB0B0841F100094B4587
:102B900008BF4245C0F0B080BBF1000F6ED0A14627
:102BA000F9E806015D46276AD7F838340340C3F3D5
:102BB000080A002B68D150EA010275D194F831203F
:102BC00051064CBFD7F83424E269A261D7F82C042F
:102BD00097F845E45B0A023A191802FA0EF211441A
:102BE000BAF1000F2CD1B5F5007F29D3D7F81C22FC
:102BF000914225D0B5F5806F5DD34FF0010808FAFA
:102C00000EF8C3EB08034FEA5528984528BF9846AD
:102C100091423BD808EB01039A4237D207F5047082
:102C2000019104F00FFE019980BB94F832304FF00F
:102C3000FF3043F0020384F8323003B0BDE8F08F78
:102C400007F50470002204F0CDFD0028EDD0CAF590
:102C50000078A84528BFA84600EB0A014246304646
:102C600005F062F942460023D4E900018018594179
:102C7000B5EB08054644C4E9000194D10025C5EB35
:102C80000B0003B0BDE8F08FA2699FE7D7F81402EC
:102C9000036832461F694346B8470028C5D04FEA4B
:102CA000482842460023DFE794F83320520610D527
:102CB000A269013289E7D7F8140203683246DB685B
:102CC00098470028B1D04FF4007200234FF40078E9
:102CD000CAE738464A46A169019301F023FD00285E
:102CE000A3DB0CD0276AA269019B6FE790F8313013
:102CF00018073FF544AF4FE7C0EB020B4CE794F8E1
:102D0000313013F0500FBAD18FE700BFF0B583B068
:102D100001220DF107010446D0E900678569FFF73C
:102D200021FF012808BF9DF80700A56118BF4FF0DB
:102D3000FF30C4E9006703B0F0BD00BF2DE9F04FDC
:102D400090F831E0856983B00446BEF1000F1BD0D6
:102D5000D0E90001994208BF904216461F463BD079
:102D600056EA070307D10023A3610120C4E90067E5
:102D700003B0BDE8F08F1EF0080F0AD0D4E9042399
:102D8000BB4208BFB24204D2A561002003B0BDE837
:102D9000F08F236A019393F845C494F833A00CF1A3
:102DA000090C5FFA8CFC16F1FF3247F1FF33CCF1CE
:102DB000200803FA08FB22FA0CF242EA0B02ACF1FB
:102DC000200B23FA0BF31AF0400F42EA030205D05E
:102DD000E3691A44A261C8E70120D7E710F1FF397F
:102DE00041F1FF3A29FA0CFC0AFA08F84CEA080CFF
:102DF0002AFA0BFB4CEA0B0C6245534617D21EF025
:102E0000400F16BF019BE369D3F83434A3619046A9
:102E100004F118094A46B8F1000FA6D0A169206A4A
:102E200001F080FC002808F1FF38F3DCACE750EA41
:102E30000103E4D0CCEB0202E9E700BF2DE9F04F3B
:102E40000C468FB090F831100193814621B994F867
:102E5000313013F0500F07D1002089F8310089F884
:102E600033000FB0BDE8F08F019B03F00303012B8B
:102E7000154606D0022B00F0FE80002BECD101227B
:102E800000E00222019B03F0080313430293002D8C
:102E900040F0DD800327029B002643F04003B34649
:102EA0000393202206A92046FFF75CFEF0B12028FC
:102EB000D2D19DF81830180645D4BBF1000F04D1CB
:102EC0002268D4F818A0A2F12008BB453CBF0BF142
:102ED000010B5FFA8BFB002B00F0CF80202206A9AC
:102EE00020460026FFF73EFE0028E0D1019B990511
:102EF000B2D5029B9A07AFD5002DADD0BB4580F06F
:102F0000C5802B465E4655469A460AE02028A3D146
:102F10001EB92268A569A2F12008DEB2B74240F2CC
:102F2000B280202206A92046FFF71CFE731C002851
:102F3000ECD12046D4F818B000F07EFB00288BD0EE
:102F4000C4F818B0EAE756BBBB4538BF4FF0000BDA
:102F5000852BA6D131463822484607F039F89DF82E
:102F60001C309DF8192089F83020D90603F037026B
:102F700058BF42F0080289F831202368216AA2690B
:102F8000C9F82420203BC9F82010C9F8283094F84B
:102F90003330C3F3801389F82C30012681E7C02B2E
:102FA00029D0C12B9AD12A4606A9484601F01EFA1B
:102FB000002866D0AB89002B7FF473AFAA686B68DA
:102FC0009A427FF46EAF019B1F053FF545AF019B11
:102FD00013F4884F40F0AC8099F833309E0700F12D
:102FE000A780019B5B053FF537AF019B580400F1BB
:102FF000BD80012035E79DF819309DF8082089F83B
:1030000033209B0744BF9DF80C3089F83330DDE94D
:103010000823DDE90C01C9E904230B9BC9F81C3026
:10302000C9E90201002DCED09DF81B302A6929681C
:1030300069604FF000009A42A8817FF44FAFBDF85D
:103040001C60AB8AF61AB6FA86F6760929E72B6970
:10305000614F0E33A7FB0337D4E90023FF08023783
:103060001343FFB23FF417AF00230022C4E900234B
:103070000023A3610FE7032204E7002D7FF436AF9E
:10308000EAE606460DE75346AA461D4694F8336025
:1030900038220021484606F09BFFC6F3801608231D
:1030A000226A89F82C60C9F824A0C9F8288089F818
:1030B00031302B68C9F8202000266B60AE819FB3A9
:1030C00007F1FF38DFF814A1B3465FFA88F8012250
:1030D00059464846FFF7AEFC044600283FF4BCAE14
:1030E00090F90030002BFFF6B7AE2022002106F049
:1030F0006FFF002E43D0BBF1010F59D0C123A3466F
:1031000023701E34AB8928461BB96A68AB689A42A3
:1031100005D004F06FFC2BF8020F5C45F2D10136AC
:103120005FFA86FBBB45D2D3484600F055FA98E6D5
:1031300099F8313013F0110F7FF48EAE019B5D05CD
:103140007FF553AF99F833309C077FF585AE0022A9
:1031500000234846FFF7F2FD00283FF47DAE4846C5
:1031600000F054FC00283FF477AE42E7D9E904238D
:103170004846FFF7E3FD00287FF43BAF6CE685236C
:10318000237089F8308084F80180DAF80030EBB1E0
:103190000DF113020DF1160105A89847BDF81410A2
:1031A000BDF816209DF81330618122812375B6E7A2
:1031B000029B84F801B063F07F03C022227089F87B
:1031C00033302B69E370AB8AA380A8E745F2216313
:1031D0006381E3816382A2E789888888B46B0020D9
:1031E0002DE9F041044696B094F831500192002048
:1031F0008DF851008DF852008DF85300ADF8140091
:1032000035B9984691F8313013F0500F0E4603D17E
:10321000002016B0BDE8F08113782F2B154624D07E
:10322000002716E0019D2D782046002D32D0FFF7B3
:1032300005FE342221460028EAD008A804F074FED6
:10324000204600F0C9F9019D84F8317008AE84F879
:103250003370294601AB02AA2046FFF747FC002342
:1032600002AA31460028DDD1D2E70135019529783F
:103270002F29FAD0B9B1382208A80021376A06F000
:10328000A7FE4022012308AE10978DF851208DF83B
:103290005330C5E7434602AA31462046FFF7CEFD2C
:1032A00016B0BDE8F08138222046356A06F090FE5F
:1032B00040230120256284F8313084F83300A8E7E8
:1032C00019B101F58961FFF78BBF0846704700BF50
:1032D000F0B490F8314024B991F8313013F0500F28
:1032E00002D10020F0BC7047D1E90067002706F04A
:1032F0001F0656EA0703F4D113462246F0BCFFF737
:103300009DBD00BF8169F8B50446006A01B1013175
:10331000012201F03FF9012806462FD90123014679
:103320001A46206A01F090F9074638B3A06994F86C
:10333000333030B35A0613D5421C964225D023F0C1
:10334000400284F83320E36905E0206A01F02CFA9A
:10335000A0B1A0692B465D1C834219462A46F4D3CE
:103360004FF0FF323146206A01F01EFA30B1A169F8
:1033700059B13246206A01F017FA30B900273846B1
:10338000F8BD43F0400384F83330A6613846F8BDF9
:1033900090F833309A0739D5C1692DE9F0410546D7
:1033A000A9B9002407E0037803F07F03037095F8C0
:1033B0003030A3422CD3214601222846FFF73AFBA6
:1033C0000134E4B20028EED10020BDE8F0815B06B4
:1033D000006A35D5D5E9026790F845340933DBB288
:1033E00016F1FF3647F1FF37C3F1200426FA03F246
:1033F00007FA04F4203B27FA03F322431A4301326D
:10340000002301F021F90028CBD1DDE7002070472F
:103410002C6A0023204685F8313085F8333004F0DB
:1034200011FA0028D0D004F5047004F00BFA00283B
:10343000CAD0D4F840040368BDE8F041DB691847FE
:1034400001F0C2F90028ACD1BEE700BF90F83130DE
:10345000D90601D40020704710B5002288B000239F
:103460000446FFF76BFC06E0202819D19DF80030D8
:103470001A0615D433B1202269462046FFF772FBA5
:103480000028F1D194F83330082243F0020384F885
:10349000333084F831202046FFF77AFF08B010BDA2
:1034A000002008B010BD00BF2DE9F0430026494FB1
:1034B00083B080463446002231464046FFF7BAFAD0
:1034C000054630B10378C02B6DD0C12B69D0852B58
:1034D00009D098F8323043F0010388F832300020E8
:1034E00003B0BDE8F08398F83130D7F8009003F0CE
:1034F00037038380B9F1000F10D00DF103020DF1F5
:10350000060101A8C847BDF80620BDF804309DF8A3
:1035100003106975AA812A82EB816B82D8F820207A
:1035200092F8103243F0010382F8103295F800E06F
:103530000021E203685C42EA540310FA83F3012994
:103540009CB201F1010126D01F29F2D9013698F869
:103550003030F6B2B342AED2012208F12401D8F8DD
:10356000200001F0C5F80028B3D0D8F820504480DE
:10357000284604F067F90028ABD005F5047004F084
:1035800061F90028A5D0D5F840040368DB699847A5
:1035900000289ED0A4E7BEF1850F0CBF04210221B4
:1035A000C7E79E46C4E798F8333013F0400F4378DE
:1035B00014BF43F0020323F002034370D8E904234D
:1035C000C0E90223D8E90223D8F81C104161C0E900
:1035D0000623A3E7B46B002090F8312092B138B5F0
:1035E00090F8332011060FD4056A0446284604F0EB
:1035F00029F988B994F8323043F0010384F8323065
:10360000002038BD0120704702F07F0280F833208F
:10361000BDE83840FFF748BF05F5047004F012F923
:103620000028E7D0D5F840040368DB6998470028F4
:10363000E0D0012038BD00BF2DE9F04190F83130D5
:103640005906044660D48068236AD3F83C34184491
:10365000B0F1806F02D30020BDE8F0812046FFF773
:1036600051FE0028F7D0266A96F81032DA074FD4B8
:103670004FF0FF33002506F50878C6F81C3286F8AF
:10368000105229464FF40072404606F0A1FC226A0F
:10369000A36992F84504D2F82C14023B834001261A
:1036A0005F1816FA00F310D0D2F8400403687919B5
:1036B0001B6A4246984701350028CCD0226A92F80E
:1036C000453406FA03F3AB42EED894F831305B068A
:1036D00015D494F8333063F07F0384F83330D2F894
:1036E0003C64D4E90223D4E9040192194FF00007A5
:1036F0007B4180197941C4E90223C4E904012046D1
:10370000BDE8F041FFF768BF006A01F037F99BE7B9
:1037100006F5047004F096F80028A9D19BE700BFD5
:1037200010B591F8314014F0500F01D1002010BDB8
:1037300040F602230446FFF781FB0028F6D0102351
:1037400084F831302046FFF777FF0028EED0A369D8
:10375000E361204600230022FFF7F0FAC12384F83A
:1037600033302046BDE81040FFF736BFF0B50446C1
:1037700097B094F8316001920020ADF814008DF8F4
:1037800051008DF852008DF8530036B91F4691F85C
:10379000313013F0500F0D4602D1002017B0F0BDAC
:1037A00013782F2B114624D001AB02AA2046FFF735
:1037B0009DF9002302AA29460028EED0019E367802
:1037C000204626B3FFF73AFB40B9002FE5D0294643
:1037D00002AA2046FFF7A4FF0028DED021463422AB
:1037E00008A804F0A1FB2046FFF742F908AD0199B3
:1037F000DAE7013101910B782F2BFAD0296A08A85A
:10380000FFF760F90028C8D0019908ADCCE702AAFB
:1038100029462046FFF784FF17B0F0BD30B590F879
:1038200031309DB0002413F0180F8DF831408DF821
:1038300032408DF833408DF869408DF86A408DF83C
:103840006B4003D00B6A056A9D4202D000201DB078
:1038500030BD054640F601236846FFF7C1FC00284D
:10386000F4D0342229460EA804F05EFB09AB93E89D
:10387000070005F1240383E8070095F833309DF82D
:10388000302085F8302063F07F0385F833302846F8
:10389000FFF7A2FE0028D9D0022208230EA8159413
:1038A0008DF86B208DF86930FFF772FDCFE700BF10
:1038B0002DE9F84F90F831509DF828909DF82C7024
:1038C0009DF830A09DF834802C0776D5A2F2BC720A
:1038D00095B27F2D71D85A1E0B2A6ED809F1FF328E
:1038E0001E2A6AD8172F68D8BAF13B0F65D8B8F1ED
:1038F0003B0F62D804469B460E46FFF76DFE00283C
:103900005BD04FEA680249EA4B1942EA4A1A49EA8F
:10391000452518F0010F4AEAC7274FF0000AADB25B
:10392000BFB20CBFD1464FF06409D34606F0010880
:10393000002251462046FFF77DF800283DD090F840
:1039400000E0BEF1850F41D037D3AEF1C003012BAB
:1039500033D800214FEACB3210F801C042EA5B03B2
:103960001CFA83F301291FFA83FB01F1010127D01F
:103970001F29EFD90AF1010A94F830305FFA8AFA68
:103980005345D5D2012204F12401206A00F0B0FE93
:1039900098B1246AA0F802B0204603F053FF60B14A
:1039A00004F5047003F04EFF38B1D4F84004036806
:1039B000DB69984708B1BDE8F88F0020BDE8F88FB3
:1039C000BEF1850F0CBF04210221C3E794F831300A
:1039D000226A03F03703838092F8103243F0010328
:1039E00082F81032B8F1000F01D007824582B20789
:1039F00003D580F8149007814581730703D580F8BB
:103A000015908781C58190F800E0A2E790F83330E7
:103A10009A0718D5F0B5C56983B08DB103F040039E
:103A2000044603F0FF0083B9A169002941D1019543
:103A3000E1612946206A00F0C7FE30BB002000E0AB
:103A4000012003B0F0BD00207047206AA16990F802
:103A50004534D4E902670933DBB216F1FF36C3F10E
:103A6000200E47F1FF3726FA03F207FA0EFE203B3D
:103A700042EA0E0227FA03F31A430132B1B1013DC3
:103A80006D1A01312A44019102BBD4E9000194F876
:103A9000333063F07F03C4E90201C4E9040184F810
:103AA00033302046FFF798FD03B0F0BD0195E1618A
:103AB000EAE702AA42F8040D206A00F033FE00286B
:103AC000BCDB0AD1019D002DDFD0B2E700230199B4
:103AD00000F0BAFD0028D8D1B0E74FF0FF32A1695D
:103AE000206A00F061FE0028ECD1A7E72DE9F04F35
:103AF00090F8333083B09D070446009240F1AA80CD
:103B00001A07894600F19F80009B002B00F01C8162
:103B10002146F1E80623DDF8008001914FF0010B0A
:103B2000CA46206AD0F838541540C5F3080945BB89
:103B3000A169002900F0C28094F833305B0640F19F
:103B4000D680D4E9026790F84524E3690932D2B2FD
:103B500016F1FF3647F1FF37C2F1200ED64007FAC3
:103B60000EFE203A46EA0E0627FA02F216433344C6
:103B70009942C0F0B9802046FFF7C4FB002869D005
:103B8000206AA669D0F82C7490F845E46D0A023ECC
:103B9000E91906FA0EF63144B9F1000F40F08780BA
:103BA000B8F5007F60D2D4E90423D4E90067B8F502
:103BB000007F454628BF4FF400759F4208BF9642DC
:103BC00034BF0122052200F5047003F00BFE00282B
:103BD00040D048442A465146A94404F0A5F9B9F515
:103BE000007F00F09C8028460021D4E90023D4E91E
:103BF000046712184B419F4208BF9642AA44C5EB86
:103C00000808C4E9002307D294F83310C4E9042358
:103C100061F07F0184F83310B8F1000F81D1D4E94D
:103C20000201994208BF9042C0F08280484B1B6855
:103C3000002B00F0878094F83330009863F07F0306
:103C400084F833300DE0D0E90423FFF777F800283B
:103C50007FF45AAF94F8323043F0010384F83230E5
:103C6000002003B0BDE8F08FB8F5806F2AD30BFABF
:103C70000EF35D1BD0F81C224FEA5823AB4228BF3D
:103C80002B4691424FEA432508D8CE18B24205D2BE
:103C90004FF0FF3280F81092C0F81C22D0F81402C6
:103CA00006685246766AB04700289CD1D2E7C9F52B
:103CB0000075454528BF4546012284E7E669F6B10F
:103CC000A6615FE7D0F81C32994221D0D0F81402E7
:103CD000036852461B6A98470028BBD04FF4007017
:103CE00000214FF4007580E74E1CA6614AE7019A57
:103CF00000F018FD0028ADDB7FF442AF3BE7204623
:103D0000FFF700FB0028A5D0A669E661206A39E725
:103D10004FF0FF3380F81092C0F81C32D6E7206ACB
:103D200000F5047003F08EFD00287FF45CAF91E78E
:103D300094F83310009861F07F01C4E9022384F8FD
:103D400033108EE700988CE7D4E9002367E700BFC3
:103D5000B46B002070B5044608460D4606F0B0F975
:103D600023680246294620465B68BDE87040184734
:103D70008368C3F3080383B100210269D15401337E
:103D8000B3F5007FF9D1C3680269016810B41C68FB
:103D9000246A1846234610BC18470120704700BF0C
:103DA00082680346C2F30802006930B481545D683A
:103DB000986840F2FF1401EB75010130A24259608E
:103DC000986002D0012030BC7047D8681968046838
:103DD0001A69246A4D1C1D60234630BC184700BF79
:103DE00038B50C46C9B20546FFF7DAFF00B938BD51
:103DF000210A2846BDE83840FFF7D2BF2DE9F84335
:103E000000268046016086604660B0B203F0FEFE88
:103E1000B042814605460DD001464046FFF7E0FF1F
:103E2000A0B30136B6F5803FEFD34046BDE8F84376
:103E3000FFF79EBF741CB4F5803F14D1C6F58037E0
:103E4000B7F5007F4FF480341AD2A9B24046FFF78D
:103E5000C7FF0135D0B1A542F7D32E46E2E70134C2
:103E6000B4F5803FEAD0A0B203F0D0FEA042F6D075
:103E7000A71BB7F5007F03D2A642E6D34E46C4E7A0
:103E80004FF6FF714046FFF7ABFF10B90020BDE8C9
:103E9000F883B9B24046FFF7A3FF0028F6D02646C4
:103EA000C0E700BF2DE9F04F14460A68C160046105
:103EB00089B08146926908460E461F469047B0F584
:103EC000801F11D25FB13B68AA495B681522384652
:103ED00098473B68A8495B6838460F2298470025F9
:103EE000284609B0BDE8F08F05460123022201E013
:103EF00095424FD90133DBB2202B4FEA4202F7D172
:103F0000A3F10B0252100121D0B29140069004910E
:103F100001334FF001085B1008FA03F303FA08F1CC
:103F200005939B0001910293029BEB1AD34003FA85
:103F300002F80393019B4FF400720021204698443D
:103F40004FF0010B06F044F84FF0000AFF23072161
:103F5000FE2284F8C21184F8C32184F8BFB184F82A
:103F6000C0B184F8C1A184F8C43184F8C531336884
:103F70000199C4F8C6114AF655221B6AC4F8CA81D1
:103F8000A4F8FE215146224630469847B0B9002F8A
:103F90009FD1A4E71C2BB3D808221A2B069200F25B
:103FA0009D814FF4004302934FF4804301934FF4FB
:103FB000807304934FF400530593B5E74FF40072F8
:103FC0005146204606F004F8019B23649021A36526
:103FD000039B059AC4F848804FF0EB0E76204FF013
:103FE0005808E365A1709DF8183022654FF045012F
:103FF00062656566412284F86D305425202384F87B
:1040000000E060704FF0040E4FF480704FF0090C28
:10401000E17084F8048080214FF04608A271237279
:104020006372A37284F86F10C4F844A0C4F84CA063
:10403000A4F86AA084F86EB084F870A084F80580B3
:10404000E571C4F860E0A4F8680084F86CC004F17D
:10405000770304F2FD11F42203F8012F9942FBD1FA
:104060004AF655220023A4F8FE211D464FF0010810
:1040700002E0013308F10108A3F16A02012A04D920
:10408000702BF6D0E25C02EB7505B8F5007FF0D13D
:10409000336801991B6A22463046984700283FF44E
:1040A00076AF336801991B6A22460C313046984737
:1040B00000283FF46CAF42460021204605F088FFFF
:1040C0004AF65523019AA4F8FE31631ECDF81C90E0
:1040D00002F1010A02F1090B069304F2FF18994656
:1040E0004B4613F8012F984502EB7505F9D133685B
:1040F00022461B6A51463046984700283FF447AF96
:10410000336822461B6A0AF10C01304698470028A2
:104110003FF43DAF0AF1010AD345E1D14FF40072FB
:1041200000212046DDF81C9005F052FF019B03F1B1
:104130000B0A069B13F8012F984502EB7505F9D180
:10414000336822461B6A59463046984700283FF498
:104150001EAF336822461B6A0BF10C0130469847AC
:1041600000283FF414AF0BF10103534506D09B46E2
:10417000DFE700BF284C02008C4C0200231F04F52F
:10418000FE7243F8045F9342FBD1336851461B6AC9
:1041900022463046984700283FF4F9AE33680BF1C9
:1041A0000D011B6A22463046984700283FF4EFAEC7
:1041B0002FB13B6887495B680C2238469847039BC0
:1041C0004FF40072002120469D0005F001FF019987
:1041D000059AF8230A4405F20725904623704FEA12
:1041E000552B234604F11301FF2203F8012F9942B6
:1041F000FBD14FF0000A2346AD0B54469A4604E02B
:10420000002C64D00134A34518D0B4FBF5F305FBB2
:10421000134333B901227049384617B13B685B68D4
:104220009847336852461B6A04EB080130469847AA
:104230000028E5D1002F7FF44CAE50E654468FB3F2
:104240003B6866495B68022238469847039D049B99
:104250000735ED0805F2FF184FEA582898453FF654
:1042600038AE4FF400720021504605F0B1FE07232E
:104270008AF800304FF0000A07E0BAF1000F00F0B2
:1042800083800AF1010AD0452CD0336802991B6A59
:1042900022465144304698470028EED1002F7FF443
:1042A00018AE1CE6039D049B0735ED0805F2FF18C8
:1042B0004FEA582898453FF612AE4FF4007239463F
:1042C000504605F085FE07238AF80030D2E74FF408
:1042D00000722146504605F07BFE93E74FF4807153
:1042E000049115E6002F61D0019B3D4938464FEA05
:1042F0004308FFF72FFD049B484608EB0301FFF737
:104300007DFD00283FF4E5ADD9F80830049AB3EB01
:10431000422F3FF6DEAD33493846FFF71BFD4FF421
:1043200000720021204605F053FE03230221822261
:1043300081202370616384F8200084F84020D9F83C
:104340000420626463650499D9F80820A2650023FB
:1043500008EB4109A563E365984607E0B8F1000F53
:104360001DD0049B08F10108984510D033682246FF
:104370001B6A09EB08013046984705460028EDD135
:10438000002F7FF4A6ADAAE584F800A079E7002FFE
:104390003FF4A6AD38461449FFF7DCFCA0E54FF426
:1043A00000724146204605F013FEDAE7019B4FEA12
:1043B0004308049B484608EB0301FFF71FFD002854
:1043C0003FF48DADD9F80830049AB3EB422F3FF695
:1043D00086ADA4E7404C0200504C0200684C02003D
:1043E000544C02006C4C02007C4C02002DE9F04160
:1043F0000C46154601F11E08AB8934F8026F2846B9
:104400001BB96A68AB689A420ED003F0F3FA03F066
:10441000FDFB0746304603F0F9FB874209D14445CE
:10442000EAD10120BDE8F081B6FA86F04009BDE886
:10443000F0810020BDE8F0812DE9F84F90F831308F
:104440008946002B44D090F83030012B804651D95A
:10445000013A8E180C4602274FF0000B0022394615
:104460004046FEF7E7FA98B30378C12B30D1824675
:1044700000F11E0519E000F510539BB2B3F5806FF3
:1044800026D21E4B4FEA8B2BC0F309000BEA030325
:10449000184300F580303246214603F021FB88B1F5
:1044A000AA4504464FF0000B1DD03AF8020FBBF1AD
:1044B000000FE0D100F520539BB2B3F5006F0CD391
:1044C0000028E8D1C9EB040000232370BDE8F88F71
:1044D000002089F80000BDE8F88FB3F5806FF7D2AF
:1044E000AA458346E1D1013798F83030FFB2BB428C
:1044F000B4D2E7E70C460020E6E700BF00FC0F005F
:10450000F8B50A684A6000230E461F468B810B618E
:104510001C464FF6FF7516E003F06CFAA84221D056
:1045200003F074FBE30343EA540454FA80F3316963
:10453000B789C3F34E02041242EAC33314FA83F478
:104540000131A4B231613046002FE5D17268B36801
:104550009A42E1D13069B4820138FE288CBF002034
:104560000120F8BD0020F8BD38B50C46D0F8241461
:10457000154601EBD41100F50470012203F032F965
:10458000034628B1A400C4F3080401201D5138BD1E
:1045900038BD00BF2DE9F84F804691468B46002973
:1045A00044D08F1ED8F830349F423BD207F0070525
:1045B000012303FA05F5EDB2C7F3C80A3E463C46AF
:1045C000D8F82C14002201EB1431404603F00AF90C
:1045D000C0B110F80A100AE04A452AD0A74210D00C
:1045E000D8F83024944217D213F0FF050CD00134D0
:1045F0000D424FEA4503A4EB0602EDD0A742264642
:10460000EED10120BDE8F88F0AF1010ABAF5007F6A
:104610004FF00105DDD101E0002634464FF0000ADD
:104620000125CDE70027BA460125C7E7D0F8207459
:10463000B8E7BBF1000F04D1B9F1010F08BFC8F80A
:104640002064B01CBDE8F88F2DE9F04702398046A0
:10465000D0F8300415468A18824238D89A46D8F8DD
:104660002034BAF1000F35D1994238BFC8F8201470
:1046700001F007040122D8F82C3402FA04F4E4B261
:1046800003EB1139C1F3C806012249464046914463
:1046900003F0A8F8D8B1871900F5007017F8012BBE
:1046A000224214BF01260026564582EA04024FEA40
:1046B00044040CD0013D07F8012C15D014F0FF0480
:1046C000EED1B84226464FF00104E7D1DCE70020E6
:1046D000BDE8F0879942CBD89A42C9D9824228BF17
:1046E0000022C8F82024C3E70120BDE8F08700BFFE
:1046F000F8B50E4696E82800D0F83814D0F82C44C7
:1047000090F845742940023B04EB5121BB40194409
:1047100000F5047003F066F818B17368C3F308037A
:104720001844F8BD38B5D0F8303401338B4214D377
:104730000C46D0F82414154600F5047001EBD41192
:10474000002203F04FF840B1A100C1F30801405826
:104750002860013018BF012038BD4FF0FF3038BD50
:1047600070B50D464968D0F8383406468818686038
:1047700096F845440B4009341A44E4B222FA04F492
:104780003CB12B7A3BB12B6801332B60013C002CF0
:10479000F7D1012070BD2A4629683046FFF7C2FFD5
:1047A0000128F3D070BD00BF01290BD9D0F83034F7
:1047B0000133994210B402D9002010BC704710BCDC
:1047C000FFF7D2BE002070472DE9F0410C4682B0C1
:1047D00005460E4601AA21462846FFF7A3FFB0F181
:1047E000000821464FF00002284625DB012C23D982
:1047F000D5F8303401339C421ED8FFF7B5FE671C54
:1048000031460023BA1BB8B12846B8F1000F08D0D2
:10481000019CA742DED0FFF717FF68B1019C264636
:10482000D8E7621C921B434631462846FFF70CFF2F
:1048300010B102B0BDE8F081002002B0BDE8F08107
:104840002DE9F8430024D0F82C64804600F5047765
:104850002546314600223846013602F0C3FF30B308
:1048600000F1FF3ED8F830C41EF8010FFF2805F50F
:10487000805913D048B10822012318424FEA43015E
:1048800018BF0134013ACBB2F7D10835AC450AD98B
:104890004D45DED01EF8010FFF28EBD10835AC45A1
:1048A00004F10804F4D8C4EB0C00BDE8F883BDE8BB
:1048B000F88300BFF0B5044687B000254FF0FF3302
:1048C000C4F840146160C4F8141284F8445425708C
:1048D00084F8105208460295019500951146E36050
:1048E000C4F81C3204F5087205AB02F0B3FF10F0F7
:1048F000FB0F13D0059F04F504762A46304639464F
:1049000002F070FF054648B105221B49033005F04F
:1049100045FC18B995F86C30092B02D0002007B07F
:10492000F0BD2B6D3B44C4F824346B6DC4F82834BF
:10493000AB6D1F44C4F82C74EB6DC4F830342B6E8F
:10494000C4F8343495F86D3084F8453401250933C2
:1049500005FA03F35A1EC4F820040146C4F83C3497
:10496000C4F8382420462A46FFF714FE4023284680
:1049700084F84434D3E700BF9C4C020070B582B089
:1049800002AED0F8341446F8041D0546002403E0B6
:1049900004F1010407D0019932462846FFF7C2FE10
:1049A0000028F5DA002495F845040930C0B204FA6D
:1049B00000F002B070BD00BF38B504460D46242299
:1049C000002105F005FBA560EB79102B08D0202B0A
:1049D00004D1402301202370A07038BD002038BDD1
:1049E000202301202370A07038BD00BF024638B5D7
:1049F00052F8105F04462946806801F075FF50B1F7
:104A000055B123690135AB42A37818BF03F0BF034A
:104A100063F07F03A37038BDA37843F04003F7E74A
:104A20002DE9F041037803F020032BB903F0FF04D4
:104A30004169204B994203D900263046BDE8F081F8
:104A40000546FFF7D3FF06460028F5D0A8682B6976
:104A500087794269023BBB409F18283039460522BE
:104A600002F0C0FE80460028E6D04FF400722146D6
:104A700005F0AEFAAB681A79012A10D9012403E0D7
:104A8000AB681A79A2420AD918680368E1191B6A4F
:104A9000424698470134E4B20028F1D1CCE79B7933
:104AA00069694FF4007202FA03F311FA83F36B6140
:104AB000C3E700BFFFFD1F0010B5044680680A462B
:104AC0002830A16902F08EFE20B1A38803F00F0305
:104AD00000EB431010BD00BF70B590F90230002B01
:104AE00082B0044619DBA56805F1280002F0AAFE91
:104AF00030B9637843F001036370002002B070BDE9
:104B000005F50E7002F09EFE0028F2D028680368BA
:104B1000DB6998470028ECD0F0E70121FFF7CCFFD4
:104B200005460028E5D00378E52BE2D023780E4A2D
:104B30001B0744BFE369C361236A166843831B0CE8
:104B4000838266B10DF103020DF1060101A8B047A1
:104B5000BDF80430BDF806202B836B82EA82A3786F
:104B600003F07F03A370BEE7B46B002010B5037899
:104B7000044623B900232370A370012010BDFFF762
:104B8000ABFF00232370A37010BD00BF38B50378BE
:104B900004460D465BB920460021FFF78DFF50B15A
:104BA00001462022284603F0BFF9012038BDFFF757
:104BB00093FF0028EFD1002038BD00BF30B589B089
:104BC0000D4669461446FFF7E1FF28B1BDF81020F5
:104BD000BDF80E302A80238009B030BD30B589B0D1
:104BE0000D4669461446FFF7D1FF28B1BDF81820DD
:104BF000BDF816302A80238009B030BD2DE9F04180
:104C00000C7814F0700F88B003D1002008B0BDE814
:104C1000F08140F6022305460C4600F0FFFF002815
:104C2000F3D001221023AA702B702846FFF7F8FE5C
:104C30000028EAD02B782A692A62002B59D1012159
:104C40002846FFF739FF06460028DED01023C3723E
:104C500031462022684603F067F9B17E307D777DCA
:104C6000F67E2E2241EA06268DF800206B4640EAA9
:104C700007270DF10A01202203F8012F8B42FBD1F7
:104C8000A8682B6A82794169023B93401944283015
:104C9000012202F0A7FD80460028B6D020226946F6
:104CA000ADF81470ADF81A6003F03EF9236AADF860
:104CB0001A302E241B0C694608F1200020228DF8A2
:104CC0000140ADF8143003F02FF9AC6804F128006E
:104CD00002F0B8FD002898D004F50E7002F0B2FD85
:104CE000002892D020680368DB6908B0BDE8F04175
:104CF00018476B6933B1AB78002223F02003AB7007
:104D00002A616A612846FFF7E7FE00283FF47DAF7D
:104D100095E700BF2DE9F041064694B03578019241
:104D20000020ADF814008DF82C008DF82D008DF8C2
:104D30002E002DB998460B7813F0700F0C4603D156
:104D4000002014B0BDE8F08113782F2B11462BD032
:104D5000002701AB02AA304601F0A2F802AA2146C0
:104D600000230028ECD0019D2D783046002D2DD059
:104D700000F054FF48B9B8F1000FE1D0214602AA73
:104D80003046FFF73BFF0028DAD035460FCD0BAC9D
:104D90000FC40FCD0FC433782A68226093B93770DF
:104DA000B77001990BACD4E7013101910B782F2B2F
:104DB000FAD0A1680BA8FFF7FFFD0028C0D0019929
:104DC0000BACC5E73046FFF787FEE8E702AA2146AD
:104DD0003046FFF713FF14B0BDE8F0812DE9F04134
:104DE000064694B03578019200208DF808008DF8C1
:104DF00009008DF80A00ADF838002DB998460B78F7
:104E000013F0700F0C4603D1002014B0BDE8F08100
:104E100013782F2B114626D0002703E00199377015
:104E2000B77002AC01AB0BAA304601F039F80BAAFF
:104E3000214600230028E7D0019D2D7830460DB390
:104E400000F0ECFE354602AC0028DDD00FCD0FC4DB
:104E50000FCD0FC433782A682260002BDED0304695
:104E6000FFF73AFEDAE7013101910B782F2BFAD0E8
:104E70008BB1A16802A8FFF79FFD0028C4D001995B
:104E800002ACC9E743460BAA2146304600F0C6FEF5
:104E900014B0BDE8F081A1683046FFF78DFDB4E79E
:104EA00019B101F58961FFF799BF0846704700BF46
:104EB00038B5CB6843B902780AB1184638BD89685D
:104EC000BDE83840FFF778BD04460D462422002196
:104ED00005F07EF8012310222270A370A968EA6809
:104EE0002262A160184638BD03780BB100207047DC
:104EF000FFF762BD2DE9F04F8378DF0783B00546E9
:104F000040F192800F4601780E07914600F195809E
:104F10008C0608D5826843691289C3EB42139BB2A1
:104F2000994528BF9946B9F1000F00F0AC806B6934
:104F3000AA6888064E464FF0000805F1100AC3F330
:104F4000080B40D5116A01EB5321BBF1000F55D17D
:104F5000B6F5007F52D3536B99424FD0B6F5806FB0
:104F600074D3287880064FEA562B05D41079C8EB05
:104F70000000834528BF834699424FEA4B240DD851
:104F800001EB0B00834209D202F12800019100924B
:104F900002F058FC009A0199002845D0D06A0268B6
:104FA0005B46D2F810B03A46D84700283CD06B692F
:104FB000361B234427446B6165D02978AA6888068C
:104FC000C3F3080BBED492F8058008EA5328BBF15E
:104FD000000F39D1B8F1000F36D1002B40D149066E
:104FE0004CBF146A2C6A2C6191795069023C8C4048
:104FF00008EB00012144BBF1000FA9D002F1280009
:10500000002202F0EFFB78B1CBF50074B44228BF68
:10501000344600EB0B012246384602F085FFC6E716
:105020002B7813F0700F2FD16B784FF0FF3043F0D7
:1050300002036B7003B0BDE8F08FC36942699B1A2D
:10504000994528BF99466EE72C69CDE7D06A036879
:105050003A46DB6898470028E6D04FF40074A6E78C
:105060000B0705D5AB785C0602D52C690134BAE78D
:1050700010462969524601F0CBFB0028D4DBCFD083
:10508000AA682C69B0E70026C6EB090003B0BDE8AA
:10509000F08F00BF70B582B001220DF10701044608
:1050A00046690569FFF726FF012808BF9DF807003C
:1050B000666118BF4FF0FF30256102B070BD00BFC0
:1050C00030B54369C3F3431583B0044605B189B9CC
:1050D00001220DF107012046FFF70CFF40B2012825
:1050E0000BD163691F336361A068383000EB451052
:1050F00003B030BD20334361F6E7002003B030BD7C
:105100002DE9F04105789AB0002415F0180F8DF8BC
:1051100020408DF821408DF822408DF844408DF8D4
:1051200045408DF8464004D086688D68AE420346FF
:1051300003D000201AB0BDE8F0811D4690460E460F
:10514000FFF7CAFCAE46BEE80F0011AF0FC7BEE8BE
:105150000F000FC7DEF800303B6021462846FFF7FE
:10516000ABFC0028E5D001462022684602F0DCFEB8
:105170002A7802F0080202F0FF03002A74D04246A7
:10518000314640F6012308A8FFF728FE0028D0D0BA
:105190000E98BDF824109DF823200B9BA861A980D0
:1051A0000027EA70EB60012128468DF820708DF809
:1051B0002270FFF781FC06460028BAD013220DF1B9
:1051C0000D010D3002F0B0FE9DF80B30F3724CB3C0
:1051D000A86882794169A31E934019443A46283051
:1051E00002F000FB0028A4D000F120012022684634
:1051F00002F09AFE2146A86801F0BCFB002898D076
:10520000A8682B6A82794169023B9340194428308F
:10521000012202F0E7FA00288BD0694620302022D4
:1052200002F082FE00210222082311A819918DF8B4
:1052300046208DF8443000F089FE00283FF479AF15
:10524000AC6804F1280002F0FDFA00283FF471AFC9
:1052500004F50E7002F0F6FA00283FF46AAF2068F9
:105260000368DB69984765E74246314608A8FFF7BF
:1052700051FD00283FF45DAF109C89E70378DA0602
:105280001AD5436910B5044633B18378002223F060
:10529000200383700261426101212046FFF710FF65
:1052A00060B103786BB1E52BF6D02E2BF4D0C37A26
:1052B0001B07F1D4002010BD002070476378002B3D
:1052C000F8D1A378082243F00203A370227020468D
:1052D000BDE8104000F03ABE2DE9F04103780769BF
:1052E0000446B3B10D464169A9422BD045B9837834
:1052F000056123F02003A37065610120BDE8F08102
:1053000018070AD49A060BD5A3681B89B5EB431F6F
:1053100034D927610020BDE8F081E2699542F8D8D0
:10532000D4F808E0A2789EF806000930C0B26E1EDC
:1053300012F0400F26FA00F607D0236A1E442661B9
:105340001346D6E70120BDE8F0814A1E22FA00F09C
:10535000864215D25B064CBFDEF82030236A2361FB
:1053600004F1100807E02169A06801F051FA002853
:1053700006F1FF36CDDD4246002EF4D1A378B8E722
:105380000029E7D0361AEBE72DE9F0410D469046AB
:105390000021242204461F469DF8186004F018FEE0
:1053A000A8682B6AE36000F1380208F00F0302EBF3
:1053B0004312A060A4F80480D17A0D0712D401F042
:1053C00017012170D37AE67013F0180F08BF41F06F
:1053D000080107F0030308BF2170012B07D0022B3F
:1053E00029D01BB300202070A070BDE8F0810223FB
:1053F000A370217811F0110FF4D159B207F4806530
:1054000007F008030B43DBB2A370B2F814E0518B32
:10541000466BA66141EA0E4185B1D1B963F07F03C5
:10542000A3707B040ED40120BDE8F08117F48065E1
:10543000D8D10121E4E70323A370DAE72162D3691D
:10544000E361EEE7E1692046FFF746FF0028EAD175
:10545000C8E701F08FFA0028C4D0A378DEE700BFC8
:1054600003781BB90B7813F0700F01D1002070473F
:105470002DE9F0434D6915F01F0683B031D19046F8
:105480000C460746B14601E000266569002120462A
:10549000FFF716FE28B303781BB32E2BF4D0E52BB1
:1054A000F2D0C17A01F0080202F0FF0E42B10F29DA
:1054B000EAD15A06E9D503F01F0690F80D90E4E70B
:1054C0009EB1421E0A3012F8011F4FEACE1343EA82
:1054D0005E0E51FA8EFE90425FFA8EFEF3D1CE45FB
:1054E00003D0002003B0BDE8F08300964346C5F327
:1054F0004F1221463846FFF747FFF3E703780BB119
:10550000FFF7EABA012070472DE9F04F90F800C08C
:1055100081B01CF0080F9DF828709DF82C809DF834
:1055200030909DF8346053D0A2F2BC7294B27F2CBC
:105530004ED85A1E0B2A4BD87A1E1E2A48D8B8F1CC
:10554000170F45D8B9F13B0F42D83B2E40D81D4626
:105550008A468346FFF7C0FA002839D00121584611
:10556000FFF7AAFAA0B347EA4515711045EA4424AB
:105570001AF0010F41EA4919A4B249EAC82818BF34
:1055800044821AF0020F1FFA88F807D016F00106BD
:1055900018BF642646730482A0F80E801AF0040F28
:1055A00018BF0483DBF8084018BFA0F8168004F188
:1055B000280002F047F958B104F50E7002F042F9E4
:1055C00030B120680368DB6901B0BDE8F04F1847CF
:1055D000002001B0BDE8F08F83789B071AD5036ADD
:1055E000B3B110B5016982B00446F1B9019301620B
:1055F0001946A06801F0BEF9A8B1A37822786169C4
:10560000E16163F07F03A370EAB9012002B010BD2D
:1056100001207047002070476FF070422169A06838
:1056200001F02EF958B90020F0E702AA002342F851
:10563000043D806801F0ECF80028F4DBECD1019B1C
:10564000002BDAD0D4E72046FFF746FADEE700BFAA
:105650002DE9F84383789C0705465ED590461A07E6
:105660000F4655D46A69D343984556D8B8F1000F10
:105670003ED04646A868437913EA5224C2F308098B
:1056800061D1B9F1000F78D12969002900F0B28009
:10569000AB785B0648D5EB69934245D94B1C2B612F
:1056A0008279436901399140B6F5007F194472D27D
:1056B000B6F5007F344628BF4FF40074AB7813F082
:1056C000200F0CBF01220522283002F08BF820B3F6
:1056D000484422463946A14402F026FCB9F5007F31
:1056E00000F099806A69361B224427446A61C1D15F
:1056F000EB699342C0F0A180554B1B68002B00F072
:10570000A480AB7863F07F03AB704046BDE8F883BC
:10571000C169FFF7E1FD0028A4D16B7843F00103D4
:105720006B700020BDE8F88305F1100201F070F8FD
:105730000028F2DB04D12846FFF758F90028ECD006
:105740002B69A86859E02B6981794269023B03FA09
:1057500001F111442144B9F1000F15D1B6F5007FD4
:1057600019D26A69EB69B6F5007F344628BF4FF459
:1057700000749A42A2D30522A6E72B698179426977
:10578000023B03FA01F11144C9F50074B44228BF89
:105790003446012298E7B6F5806F1ED30379D0F81E
:1057A00034E01B1B720A934228BF13468E454FEA12
:1057B000432409D35A18964506D24FF0000E4FF0F5
:1057C000FF3280F828E04263C06A0268D2F8249071
:1057D0003A46C847002885D19FE7436B8B4213D0D8
:1057E000C06A03683A461B6A9847002895D04FF470
:1057F000007477E72B6AB3B12B6181794269023B70
:1058000003FA01F11144A9E700224FF0FF3380F8B9
:1058100028204363E4E7A868283002F013F8002842
:105820007FF460AF79E72846FFF7E0F800283FF4FF
:1058300074AF2B692B62A868DFE7AB78EA6163F08D
:105840007F03AB704046BDE8F8834046BDE8F8836F
:10585000B46B00202DE9F04F0746154606468A46F0
:1058600099460FCF8DB003AC0FC40FCF0FC43B6868
:105870002A68236000236A60AB81B9F1000F35D03C
:10588000CDF804904FF00108C8EB0A0189B2490134
:1058900003A8FFF721FD58B3002103A8FFF710FC70
:1058A000074628B30024E2B23946304600F090FEA5
:1058B000AB898346013428461BB96B68AA689342BA
:1058C0001AD002F097F88146584602F09FF98346B5
:1058D000484602F09BF983450AD10D2CE3D108F12B
:1058E0000108019B5FFA88F84345CDD2012000E012
:1058F00000200DB0BDE8F08FBBFA8BF040090DB071
:10590000BDE8F08F2DE9F04F8DB0064615460091A9
:1059100099460FCE03AC0FC40FCE0FC4336823607B
:1059200005F1150205F120004FF0000812F8011FE3
:105930004FEAC81343EA580851FA88F882425FFADE
:1059400088F8F3D12B686B600026AE81B9F1000FA7
:1059500052D049F04003B24601270193009BD91B66
:1059600089B2490103A8FFF7B7FC002851D00021F4
:1059700003A8FFF7A5FB00284BD0059A019992F8E0
:105980002830B9454FF00F0443F0010314BFBE4661
:105990008E4682F8283000F1040BC47280F80CA007
:1059A00080F80D80A0F81AA080F800E000240CE038
:1059B0000A2C04F10104E4B294BFABF80000ABF888
:1059C00002000D2C0BF1020B12D0AB891BB96A68D7
:1059D000AB689A4214D0284602F00CF8042CE7D8A1
:1059E0000134E4B20D2C2BF8030C0BF1020BECD1BB
:1059F0000137FFB2B945B1D201200DB0BDE8F08F3B
:105A000016B930460126E9E70136F6B24FF6FF70C7
:105A1000E4E700200DB0BDE8F08F00BF02462DE99D
:105A2000F04752F8153BD0F808E000F1200420219F
:105A300002F8011FA242FBD11A782E2A14BF4FF0A0
:105A4000010C4FF0000C03D113F8012F2E2AFBD0CC
:105A50000EF1FF369E420FD91EF8012C2E2A18BFD8
:105A6000AEF1020203D107E031782E2904D093422F
:105A7000164602F1FF32F7D19E454FF000087CD95F
:105A80004146C24607274FF0080915E0222A31D0C7
:105A90007C2A2FD0A2F12A04052C53D9A2F13A0472
:105AA000052C3CD802F0C002802A08BF4FF0000C41
:105AB00020D101339E450DD91A782E2AE6D19E4277
:105AC000F0D101339E454FF00A074FF008014FF027
:105AD0001009F1D8837D202B3ED0BCF1000F41D0BE
