:1000000000800020BD010000993000005130000048
:1000100051300000513000005130000051300000DC
:100020005130000051300000513000009930000084
:100030009930000051300000A12C0000A52D0000D7
:10004000993000009930000099300000993000008C
:10005000993000009930000099300000993000007C
:10006000993000009930000099300000993000006C
:10007000993000009930000099300000993000005C
:10008000993000009930000099300000993000004C
:10009000993000009930000099300000993000003C
:1000A00045270000512700009930000099300000DA
:1000B000993000009930000099300000993000001C
:1000C000993000009930000099300000993000000C
:1000D00099300000993000009930000099300000FC
:1000E00099300000993000009930000099300000EC
:1000F00099300000F1430000993000001D450000D8
:100100009930000049460000993000009930000005
:1001100099300000993000009930000099300000BB
:1001200099300000993000009930000099300000AB
:10013000993000009930000099300000993000009B
:10014000993000009930000099300000993000008B
:10015000993000009930000099300000993000007B
:10016000993000008D360000993000009930000071
:10017000993000009930000099300000993000005B
:10018000993000009930000099300000993000004B
:10019000993000009930000099300000993000003B
:1001A000993000009930000099300000993000002B
:1001B00099300000993000005D2A0000564B4CF247
:1001C000205210B51A804DF628121A8000BF00BFC9
:1001D00002F066FF514B4FF010621A60504A9A606D
:1001E000504ADA60504A136813F4807304D14F49BF
:1001F0000B604FF4A85313604D4B1A78110703D5C9
:100200001A7842F008021A704A4B4B492A221A7097
:100210004A4A4B4B8B4204D252F8040F43F8040B6A
:10022000F8E7484B484900228B4202D243F8042B9E
:10023000FAE74649464A002352F8230041F82300D2
:1002400001336F2BF8D1434B434A802103F8011B44
:100250009342FBD1414B3D4A1A60414B8A221A70AE
:10026000A3F5805324225A70A0221A709A7992071B
:10027000FCD59A79D406FCD43A4A937903F00C035E
:10028000082B384BF9D103221A7140225A719A79FE
:100290009006FCD5334A9179324B4906FBD5324A58
:1002A000324911600221516020221A709A7902F0BD
:1002B0000C020C2AFAD12E4B2E4A1A602E4B2F4AD2
:1002C0001A6000225A60072243F8042C2C4AC3F813
:1002D0000C2D62B603F0C4F8144B1B68DA0705D581
:1002E000284803F043F8284B284A1A60284B1B780B
:1002F0005B0609D5244C254B22689A4204D121483B
:1003000003F034F80023236004F05EFA02F0CEFE1E
:1003100002F0FCFDFEE700BF0E20054030800440E7
:10032000823F04000100002B10D0034014D0034092
:1003300002D0074000E00740E460002014560000AF
:1003400020550020E4600020086F002000500020AD
:100350000000000000E400E05FE400E008ED00E0E1
:100360000050064000400640448004400000030165
:1003700004800440C010050014E000E0FF76010096
:10038000000020208392EE5D1CE00340A5C3945A38
:1003900000F00740FFFFFFFFFFFFFFFFFFFFFFFF32
:1003A000FFFFFFFFFFFFFFFFFFFFFFFFFFFFFFFF5D
:1003B000FFFFFFFFFFFFFFFFFFFFFFFFFFFFFFFF4D
:1003C000FFFFFFFFFFFFFFFFFFFFFFFFFFFFFFFF3D
:1003D000FFFFFFFFFFFFFFFFFFFFFFFFFFFFFFFF2D
:1003E000FFFFFFFFFFFFFFFFFFFFFFFFFFFFFFFF1D
:1003F000FFFFFFFFFFFFFFFFFFFFFFFFFFFFFFFF0D
:10040000FFFFFFFFFFFFFFFFFFFFFFFFDEF9FFFF23
:1004100010B5054C237833B9044B13B10448AFF33E
:1004200000800123237010BDE46000200000000064
:1004300018560000084B10B51BB108490848AFF327
:1004400000800848036803B910BD074B002BFBD0A0
:10045000BDE81040184700BF00000000E860002021
:1004600018560000E46000200000000010B50446AB
:1004700002F09EFA204610BD002310B4104C4172C9
:10048000026104600372C36041B1194600E0026971
:1004900042F82310427A01339A42F8DC094B1A6879
:1004A0000AB90BE01A465369002BFBD150610023B7
:1004B00043618380C380837210BC70471860F6E785
:1004C00024510000E06B0020F8B5002002F0F8FC99
:1004D000C8216B486B4F6C4E6C4D6D4C02F03EF971
:1004E0006C4B4FF4004200219A61084602F064FF11
:1004F0000021012002F060FF0021022002F05CFFD9
:100500000021032002F058FF0021042002F054FFD4
:100510000021052002F050FF0021062002F04CFFD0
:100520000021072002F048FF0021082002F044FFCC
:100530000021092002F040FF00210A2002F03CFFC8
:1005400000210B2002F038FF01210C2002F034FFC3
:1005500001210D2002F030FF01210E2002F02CFFBE
:1005600001210F2002F028FF0121102002F024FFBA
:100570000121112002F020FF0121122002F01CFFB6
:100580000121132002F018FF0121142002F014FFB2
:100590000121152002F010FF0121162002F00CFFAE
:1005A0000121172002F008FF3B483C493C4A3D4BE3
:1005B000C361CB61D361FB613B4BF361EB61E361F1
:1005C0003A483B4B3B493C4A3C4FC361CB61D3610A
:1005D000FB613B4E3B4D3C4C3C483D493D4A3E4F08
:1005E000DFF834E103F5510303F5E843F361EB6110
:1005F000E361C361394BCB61D361FB61384E394B49
:10060000394D3A4CF361EB61E361394839493A4A73
:100610003A4F3B4E3B4D3C4C03F5040303F5555319
:10062000C361CB6139483A49D3614FF48043394AB9
:10063000BB61FB613B627B62CEF81830CEF81C30A8
:10064000CEF82030CEF824304FF48037B361F36118
:10065000336273620026AB61EB612B626B62A36154
:10066000E361236263628361C361036243628B61FE
:10067000CB610B624B62D361136297615662F8BD26
:100680000082FF1FCC68002098610020E0610020FC
:1006900028620020F8660020746100204C6200206F
:1006A000FC670020D0F20307A0610B04BC610020AE
:1006B000D09AC00794620020446800209063002014
:1006C00004620020B46700208468002034660020A3
:1006D0007062002090670020D867002050D2770415
:1006E0002068002090A1F104FC650020A86800208B
:1006F0006C630020B46300201064002000610020BF
:10070000346400206C640020A4640020DC640020B9
:10071000146500204C650020D86300202DE9F04FBF
:10072000002085B002F03AFE0390012002F036FE70
:100730008346022002F032FE8246032002F02EFEA3
:100740008146042002F02AFE8046052002F026FEA3
:100750000746062002F022FE0646072002F01EFE93
:100760000546082002F01AFE0446092002F016FE93
:1007700000900A2002F012FE01900B2002F00EFE03
:10078000039B0290002B40F0178101210C2002F006
:10079000FFFD8E498E4A4FF480330B621362BBF12A
:1007A000000F40F0FF8001210D2002F0F1FD89498A
:1007B000894A4FF480330B621362BAF1000F40F0A4
:1007C000E78001210E2002F0E3FD8449844A4FF4C2
:1007D00080330B621362B9F1000F40F0CF8001212A
:1007E0000F2002F0D5FD7F497F4A4FF480330B6222
:1007F0001362B8F1000F40F0B7800121102002F021
:10080000C7FD7A497A4A4FF480330B621362002F96
:1008100040F094800121112002F0BAFD7549764A1A
:100820004FF480330B621362002E40F0938001215D
:10083000122002F0ADFD7149714A4FF480330B6212
:100840001362002D3ED10121132002F0A1FD6D495C
:100850006D4A4FF480330B621362002C3DD10121AD
:10086000142002F095FD6949694A4FF480330B6208
:100870001362009B002B3CD10121152002F088FD62
:100880006449654A4FF480330B621362019B002B6D
:100890003BD10121162002F07BFD6049604A4FF4F4
:1008A00080330B621362029B002B3AD00021172089
:1008B00002F06EFD5B495C4A00230B62136205B0D7
:1008C000BDE8F08F0021132002F062FD4D494E4A31
:1008D00000230B621362002CC1D00021142002F00F
:1008E00057FD4A494A4A00230B621362009B002BC2
:1008F000C2D00021152002F04BFD4649464A002394
:100900000B621362019B002BC3D00021162002F062
:100910003FFD4249424A00230B621362029B002BB7
:10092000C4D10121172002F033FD3E493E4A4FF465
:1009300080330B62136205B0BDE8F08F00211120F7
:1009400002F026FD2B492C4A00230B621362002E75
:100950003FF46DAF0021122002F01AFD2749284A0A
:1009600000230B6213626CE70021102002F010FDDF
:100970001E491F4A00230B62136248E700210F2023
:1009800002F006FD1749184A00230B62136230E794
:1009900000210E2002F0FCFC1049114A00230B62DA
:1009A000136218E700210D2002F0F2FC09490A4AFF
:1009B00000230B62136200E700210C2002F0E8FC28
:1009C0000249034A00230B621362E8E674610020C7
:1009D00098610020BC610020E061002004620020DA
:1009E000286200204C620020706200209462002087
:1009F00090670020B4670020D8670020FC670020C3
:100A00002068002044680020FC65002084680020E5
:100A1000A8680020CC6800206C6300209063002050
:100A2000B463002034660020106400202DE9F04FEC
:100A3000DFF83883AA4FDFF838A3DFF838B3A94EC0
:100A4000DFF82493002283B011464046FFF714FDDF
:100A500000224FF480451146A348C8F82050C8F83A
:100A60000070FFF709FDA04B0022114650461D62A1
:100A70001F60FFF701FD002211465846CAF82050BA
:100A8000CAF80070FFF7F8FC002211469748CBF82F
:100A90002050CBF80070FFF7EFFC944B94481D6298
:100AA000002211461F60FFF7E7FC914B91481D6241
:100AB000002211461F60FFF7DFFC8E4B8E481D623F
:100AC000002211461F60FFF7D7FC8B4B8B481D623D
:100AD000002211461F60FFF7CFFC884B88481D623B
:100AE000002211461F60FFF7C7FC854B85481D6239
:100AF000002211461F60FFF7BFFC824B82481D6237
:100B0000002211461F60FFF7B7FC7F4B7F481D6234
:100B1000002211461F60FFF7AFFC7C4B7C481D6232
:100B2000002211461F60FFF7A7FC794B79481D6230
:100B3000002211461F60FFF79FFC764B76481D622E
:100B4000002211461F60FFF797FC744B03F1280247
:100B50001846714B04211D621F60FFF78DFC704B1E
:100B600003F1280218466D4B4FF4803404219C6138
:100B7000DC611C625C621E60FFF77EFC694B03F166
:100B800028021846664B04219C61DC611C625C6291
:100B90001E60FFF771FC644B03F128021846614B9D
:100BA00004219C61DC611C625C621E60FFF764FCD6
:100BB0005D4B5E489C6100221146DC611C625C62F8
:100BC0001E60FFF759FC594B59481D62002211461F
:100BD0001F60FFF751FC564B56481D62002211461C
:100BE0001F60FFF749FC534B53481D62002211461A
:100BF0001F60FFF741FC504B50481D620022114618
:100C00001F60FFF739FC4D4B4D481D620022114615
:100C10001F60FFF731FC4A4B4A481D620022114613
:100C20001F60FFF729FC474B47481D620022114611
:100C30001F60FFF721FC454B03F128021846424B89
:100C400004211D621F60FFF717FC414B414D03F16A
:100C5000280218463D4B04219C61DC611C625C62E9
:100C60001E60FFF709FC3C4B03F128021846384B85
:100C700004219C61DC611C625C621E60FFF7FCFB6E
:100C8000364B03F128021846334B04219C61DC618A
:100C90001C625C621E60FFF7EFFB314B03F11C022C
:100CA00018462E4B01219C61DC611C625C621E6057
:100CB000FFF7E2FB2A4A2B4B9461294CC9F80050FC
:100CC0000021012009F11802236089F809000B4670
:100CD000C9F8102089F80810C9F80C104C464CE0EF
:100CE0005853000040530000B4630020706200209D
:100CF0004C62002004620020906300206C6300209E
:100D0000E061002084680020A8680020CC680020F2
:100D10007461002098610020BC610020DC64002028
:100D2000D8630020A4640020006100202068002017
:100D3000FC65002044680020FC670020D867002084
:100D40009462002090670020B46700206C6400204B
:100D50003464002024510000146500204C650020FC
:100D6000F8660020345300006868002010640020FA
:100D70002862002034660020226942F8231099F886
:100D80000920044801339A42F6DC034B1A6832B951
:100D900005E300BF68680020E06B00201A46536935
:100DA000002BFBD1C2F814900024BD4DBD4BBE48B2
:100DB000C9F80030C9F81440A9F80440A9F8064061
:100DC00089F80A4000F0A2FCB84B6B6028464FF04F
:100DD0000303B74E6B722C72C5F80080EC602C7464
:100DE00001F0B2FDB34AB449DFF85083B34F28464F
:100DF00003F0D8FCB24B3360AC4B736030464FF01D
:100E00000103B04D73723472F460347401F09CFDD0
:100E1000A84AA949304603F0C5FCAB4B6B60284695
:100E20004FF00103A94E6B722C72C5F800A0EC6064
:100E30002C7401F089FD9F4A9F49DFF804A32846DE
:100E400003F0B0FC994B736030464FF00203A04DA5
:100E500073723472C6F800B0F460347401F074FD3B
:100E6000944A9549DFF8DCB2304603F09BFC994B7D
:100E70002B60954B6B6028464FF00303964E6B72C8
:100E80002C72EC602C7401F05FFD8A4A8A49284676
:100E900003F088FC914B33608B4B736030464FF00E
:100EA00002038F4D73723472F460347401F04CFDA0
:100EB000804A8149304603F075FC8A4B2B602846F6
:100EC000814B2C726B606C72EC602C7401F03CFDF9
:100ED000784A7949844B0193284603F063FC834B9D
:100EE000C8F800304046714BC8F8043088F8084014
:100EF00088F80940C8F80C4088F8104001F024FD3B
:100F00006C4A6D497A4E7B4D404603F04BFC7A4B60
:100F10003B607A4B7B6038464FF003037B723C7238
:100F2000FC603C7401F010FD624A6349DFF81882EE
:100F3000384603F037FC724B3360724B73603046B7
:100F40004FF0030373723472F460347401F0FCFCEC
:100F5000584A59496C4F304603F024FC6B4B2B60C8
:100F60002846664B6B602C726C72EC602C7401F03E
:100F7000EBFC51494F4A664E284603F013FC019B97
:100F8000644A1A605D4A5A6018464FF001021C72AA
:100F90005A72DC601C7401F0D7FC019B454A46493B
:100FA0005D4D18465D4B019303F0FCFB5C4BCBF8A9
:100FB0000030524BCBF8043058464FF002038BF808
:100FC00009308BF80840CBF80C408BF8104001F04A
:100FD000BBFC384A3849584603F0E4FB514BCAF889
:100FE00000305046474BCAF804308AF808408AF867
:100FF0000940CAF80C408AF8104001F0A5FC2E49BF
:101000002C4ADFF848B1504603F0CCFB4648474A2B
:1010100002603C4A42604FF0010204724272C460B6
:10102000047401F091FC234A23493F48DFF820A1D2
:1010300003F0B8FB3E4BC8F80030324BC8F8043020
:1010400040464FF0020388F8093088F80840C8F895
:101050000C4088F8104001F077FC164A16494046CB
:1010600003F0A0FB114B3B60324B7B6038464FF0E6
:1010700002037B723C72FC603C7401F065FC0D4A1B
:101080000D49DFF8D080384603F08CFB1D4B3360F0
:101090003046294B736034727472F46034745BE0D0
:1010A000B86200204C53000068680020DC64002017
:1010B000CC620020FC5500206D0400005863002025
:1010C000B4630020E062002000610020F462002090
:1010D00008630020706200201C6300204C62002026
:1010E00030630020046200206061002090630020D3
:1010F000386100204C6100206C630020A464002053
:10110000E0610020D86300207C6700208468002014
:1011100084650020A8680020AC650020546700208A
:10112000CC68002074610020406700209861002096
:10113000BC6100204C650020146500204463002041
:101140002C67002018670020686700206C6600206C
:1011500094660020D465002001F0F6FB914A924984
:10116000924F304603F01EFB914B2B60914B6B600E
:1011700028464FF001036B722C72EC602C7401F066
:10118000E3FB8949874A8C4E284603F00BFB8B48CA
:101190008B4A02608B4A42604FF001020472427235
:1011A000C460047401F0D0FB7F497E4A834803F099
:1011B000F9FA019B844A1A60844A5A6018464FF033
:1011C00001021C725A72DC601C7401F0BDFB019BB1
:1011D0007549744A184603F0E5FA7D487D4A026075
:1011E0007A4A42604FF0030204724272C46004748F
:1011F00001F0AAFB6B4A6C49754803F0D3FA764BB1
:10120000CBF80030714BCBF8043058464FF0020356
:101210008BF809308BF80840CBF80C408BF8104065
:1012200001F092FB60495F4A584603F0BBFA6B48F5
:101230006B4A0260654A047242604472C46004747E
:1012400001F082FB574A5849644803F0ABFA654BFA
:10125000CAF80030644BCAF8043050464FF003031C
:101260008AF809308AF80840CAF80C408AF8104019
:1012700001F06AFB4C494B4A504603F093FA5B4835
:101280005B4A0260584A047242604472C46004744B
:1012900001F05AFB4449434A544803F083FA554845
:1012A0004FF001024272544A02604F4A4260047297
:1012B000C460047401F048FB3B493A4A4D4803F0CE
:1012C00071FA4E484E4A0260474A42604FF00202AD
:1012D00004724272C460047401F036FB3249314A30
:1012E000464803F05FFA47484FF003024272374A1C
:1012F0000260344A42600472C460047401F024FB4A
:101300002949284A3F4803F04DFA3F484FF002026E
:101310004272354A02602B4A42600472C46004740F
:1013200001F012FB1F4A2049374803F03BFA254BD6
:101330003B6038461F4B7B603C727C72FC603C74A7
:1013400001F002FB174A1849384603F02BFA194BF3
:10135000C8F8003040462D4BC8F8043088F80840E3
:1013600088F80940C8F80C4088F8104001F0ECFA01
:101370000C4A0D49404603F015FA244B34723046AE
:1013800086E808027472F460347401F0DDFA054AEC
:101390000549304603B0BDE8F04F03F003BA1860CA
:1013A00002E500BFFC5500206D040000C065002070
:1013B000A46400204C650020E86500202066002021
:1013C0000061002014650020206800206C6400206B
:1013D00058660020FC6500204468002080660020DC
:1013E000FC670020D867002034640020A866002035
:1013F00094620020BC66002090670020D066002028
:10140000B4670020E466002098650020F86600209C
:1014100010B5044601F0C8FB204610BD024A03493E
:10142000034803F0BFB900BFFC55002011140000B1
:10143000F068002038B5074D074C08482A46214679
:1014400003F0B0F92A4621460548BDE8384003F0CC
:10145000A9B900BFFC55002011140000F868002055
:1014600000690020024A0349034803F09BB900BF0A
:10147000FC5500201114000008690020024A0349AD
:10148000034803F08FB900BFFC5500201114000081
:1014900010690020024A0349034803F083B900BFE2
:1014A000FC5500201114000018690020024A03496D
:1014B000034803F077B900BFFC5500201114000069
:1014C000206900202DE9F8434FF00008064600F19E
:1014D0001805474641463046002F4FD001F006FA26
:1014E000F0B12C68B4F5803F07F1040100F1040E5F
:1014F00007F5827C27D05EF8042B34FB02F334FB23
:1015000012F903F30F0209F30F03C2EA03430A6857
:1015100093FA12F341F8043B8C45ECD801F0A2F9A0
:1015200008F10108B8F1040F05F10405D2D1002F2C
:1015300040D030463946002201F0BEF93846BDE8B9
:10154000F84301F08FB907F10C0100F10C0451F8D8
:10155000083C54F8082C93FA12F341F8083C54F86C
:10156000042C51F8043C93FA12F38C4541F8043CE6
:1015700004F1080401F10801E9D8CFE701F0C2F94C
:1015800007460028CCD02868B0F5803FC8D0391D68
:1015900007F582740B6830FB03F230FB13F302F3A0
:1015A0000F0203F30F03C2EA034341F8043B8C42EA
:1015B000F0D8B5E7BDE8F88370B584692CB3B4F50D
:1015C000803F06464FF0000125D001F09BF905460B
:1015D00000B3011D00F582700B6834FB03F234FB8D
:1015E00013F302F30F0203F30F03C2EA034341F8BC
:1015F000043B8842F0D830460022294601F05CF9CD
:101600002846BDE8704001F02DB9214601F06EF981
:101610000028F6D170BD01F069F904460028F9D020
:1016200030462146002201F047F92046BDE87040CF
:1016300001F018B9024A0349034803F0B3B800BFE8
:10164000FC550020111400002869002010B500216D
:1016500001F04CF970B172B60A4B1A6872B10A49BE
:101660000C6844B11C60086062B61046BDE81040CA
:1016700001F0F8B810BD086062B610BD186062B61F
:1016800010BD00BF406900203069002038B5184BFC
:1016900018491A68184C12681B79184D0B70A24231
:1016A000286836BF2246A4F5807202F58074C0B166
:1016B000011D31F9023B03F500431B1122F8023BE7
:1016C0009442F6D801F0CEF80D4B0022196829603B
:1016D0001A600C4B1B781BB10B4B4FF080421A6009
:1016E00038BD4FF4006322F8023B9442FBD8F0E788
:1016F000346900201F800040204E002040690020F7
:10170000306900203C69002008E200E0F8B50121C2
:101710004248434E01F0E4F9424A434913688020AD
:1017200043F4805313600024087040F608053480A9
:101730000120083401F046FEA3B2AB421CB2F6D140
:101740003A4B1B685B0208D5394B1A6848F6A273FE
:10175000134048F6A27293424FD03449344A0B6882
:10176000344F354D3548364C43F480030B604FF011
:10177000010E40F23F4648F6A37140F20113C7F84C
:1017800000E02E60116014600360244C2D4A236831
:1017900023491A6002259D802279196102F1804255
:1017A00002F50432284EDE6040F20111D9804FF478
:1017B000807000210627B026D8829D60D883998248
:1017C0009F8399611170167001F030F922791F4BD7
:1017D0001F4E187053119B0003F160431D4C327073
:1017E00003F5614302F1100002F01F0701211A4DB9
:1017F00044F82050B9401960F8BD0F4B1A6840F208
:101800003F439A42A9D10B4B1B68012BA5D10B4B2F
:101810001A6840F201139A429FD1B6E7346900205A
:1018200000C00C402C80044021C00C403C8004408F
:10183000006003400C6003400460034010600340FC
:10184000A28F0100204D002000FEFFFF3C69002018
:101850001B800040005000208D160000024A034902
:10186000034802F09FBF00BFFC5500201114000088
:1018700034690020024A0349034802F093BF00BFC5
:10188000FC5500201114000044690020024A03495D
:10189000034802F087BF00BFFC5500201114000070
:1018A0004C690020024A0349034802F07BBF00BF95
:1018B000FC5500201114000054690020024A03491D
:1018C000034802F06FBF00BFFC5500201114000058
:1018D0005C690020024A0349034802F063BF00BF6D
:1018E000FC5500201114000064690020024A0349DD
:1018F000034802F057BF00BFFC5500201114000040
:101900006C690020036A2DE9F04780464BB9D8F88E
:101910001830D8F81C2003EBC213C8F81830BDE803
:10192000F08700F04BFF06460028F0D0D8F818905A
:10193000D8F81C70D8F820C0134D4946841C00F517
:10194000817E0B0E5A1C35F9130035F91220C1F3B4
:101950000F2ACAF5803300FB03F30AFB023353FB63
:101960000CF324F8023FA6453944EAD109EBC71726
:101970004046C8F818703146002200F09DFF3046FE
:10198000BDE8F04700F06EBF2851000010B4047F9E
:101990004160022CC26002D010BC01F01FB9836804
:1019A00010BC1847F0B4464B464A186BDC6A017904
:1019B0001170454922790A709A6A00790870002AE4
:1019C00046D05968C9688A423ED82168CC8B240425
:1019D00002F1FF3065D4C0F30E00C883C88B80B21B
:1019E000C882196B0968C88B000452D4C2F30E0078
:1019F000C883C88B002480B212F1FF32C88218BF9E
:101A000001229C62D96A2E4809680D6800F12404FD
:101A1000A54236D00068C46814F0804F0C680D6889
:101A200015BF248824780235013544F000440D6048
:101A30004463196B254B09791970214912B1CA6A9F
:101A400012791A70F0BC7047521A9A620122D9E7D3
:101A5000586B196805681E4C0A63CC62CC682D6807
:101A60001C4E24F080440327B542CC6083F82570D7
:101A70001FD1037F4260022BC2601ED0F0BC01F078
:101A8000ADB8016890F82400CC6840F0004048638D
:101A9000CFE7CC8BC2F3080004F47E442043C88314
:101AA000A7E7CC8BC0F3080004F47E442043C8832E
:101AB00094E72B461146F0BC18478368F0BC1847E2
:101AC000005600201F8000401C8000401B8000400A
:101AD00000000FFF8D19000000207047704700BF05
:101AE000064B074ADA620221002259609A7083F895
:101AF000242083F8302083F8322070477469002056
:101B0000DC53000010B50121007801F041FC0E4AC1
:101B1000137893B10D49CB7A00241846147063B141
:101B2000DC0703D50A4A8869106018469A0705D46D
:101B3000430702D5074B0A6A1A6010BD064BCA69F3
:101B4000C87A1A60F4E700BFCC6900200056002074
:101B500000E100E008E100E004E100E01E4B1A783B
:101B60001AB10078002101F013BC70B41B4A1C4963
:101B7000D47A096801251D70ECB172B6D37ADE07FC
:101B80001C4606D5174DD4682E68344094612C60ED
:101B90001C469D0706D5144D13692E68D47A334030
:101BA000D3612B60630705D5104C536925682B4022
:101BB0001362236062B61368DA688A4207D00C4C5D
:101BC0001C600C4AD96041F080441C611A600078A6
:101BD000002170BC01F0DCBBCC6900200056002065
:101BE000C869002080E100E084E100E088E100E0D5
:101BF00001403F0000003F80F0B41248124A0368E1
:101C000082B016460093009F4FF00045FF241368F2
:101C100043F480631360D5625463D36A002BFCDA0B
:101C2000B36BDBB2FF2B09D003680193019BDB1B75
:101C30008B42ECD3002002B0F0BC7047012002B010
:101C4000F0BC7047346C002000C00240F8B50D466F
:101C50004FF4967116460446FFF7CEFF284B1A68DC
:101C60004FF0004042F4806245F040011A60D862B3
:101C70001A465963D36A002BFCDA214918204FF029
:101C800000470A6826FA00F342F48062DBB20A6079
:101C9000CF624B63CB6A002BFCDA083810F1080FD7
:101CA000EFD155B3082D0CBF8721FF21144B1A68C3
:101CB0004FF0004042F480621A60D8621A465963BD
:101CC000D36A002BFCDA0E4A002716464FF0004577
:101CD000FF21136843F480631360D5625163D36AB4
:101CE000002BFCDAB36BD8B21B06607000D4F8BDD1
:101CF0000137B7F5807FECD1F8BD9521D6E700BF5D
:101D000000C00240F0B41549154A0B6882B016466F
:101D10000093009F4FF00045FF24136843F4806355
:101D20001360D5625463D36A002BFCDAB36BDBB269
:101D3000FF2B43700AD10B680193019BDB1BB3F5AA
:101D4000967FEAD9002002B0F0BC7047A3F1FE00F4
:101D5000B0FA80F0400902B0F0BC7047346C00204B
:101D600000C00240F8B58378032B0E46044618BF26
:101D70004E021546FFF7F2FE324611212046FFF7CC
:101D800065FF18B92046FFF7BDFF20B92046FFF7D1
:101D9000B9FE0020F8BD204B2049214A1A608E462A
:101DA00059631A4659631E46596305F5FD70A91C0F
:101DB00005F5FE77D36A13F0F00FFBD0C6F834E0D8
:101DC000B36B01F8013C1B1201F8023C02318F4257
:101DD000F0D105F50075A8420DD20F4A1646D36A18
:101DE00013F0F00FFBD0B36B191200F8021BA842DE
:101DF00000F8013CF3D3084B0949084A1960194619
:101E00005A63CB6A044A13F0F00FFAD02046936B62
:101E1000FFF778FE0120F8BD00C00240FFFF0090F0
:101E200000041F80F0B4314E33684FF0004743F494
:101E3000806333603D46F762344671633346511C1C
:101E400002F20127E26A002AFCDA1A6811F8016C32
:101E500042F480621A60DD625E63E26A002AFCDAA4
:101E60001A6811F8026B42F480628F421A60DD62D8
:101E70005E63E7D11D49CA6A1C4B002AFBDA1A6867
:101E80004FF0004542F48062FF241A601946DD627B
:101E90005C63CB6A154A002BFBDA13684FF00045F0
:101EA00043F48063FF2413601146D5625463CB6A08
:101EB0000E4A002BFBDA13684FF0004543F48063B1
:101EC000FF2413601146D5625463CB6A074A002B86
:101ED000FBDA936BDBB203F01F024370A2F1050043
:101EE000B0FA80F04009F0BC704700BF00C002406B
:101EF00070B5044671B18378032B0D4618BF4D02AF
:101F00001646FFF72BFE2A4618212046FFF79EFEB5
:101F1000054620B12046FFF7F5FD002070BD324692
:101F2000FE212046FFF77EFF0028F3D04FF4167104
:101F30002046FFF761FE0028ECD02A460D212046FE
:101F4000FFF784FE0028E5D10B4B1A684FF00045DF
:101F500042F48062FF201A601946DD625863CB6A42
:101F6000054A002BFBDA936B13F0FF0FD2D120460A
:101F7000FFF7C8FD012070BD00C00240014B024ABE
:101F80001A607047C86900200110013838B590F90F
:101F90000530002B03DBBDE8384000F06DB9044686
:101FA0000121006900F092F9F8B1257D104B13EB87
:101FB00045151AD0A3790F4A012B9CBFA369EB6189
:101FC000E36912686B831B0CAB8232B105F1160119
:101FD00005F1180090472B8B6B82637903F07F0328
:101FE0006371BDE8384000F047B9002038BD00BF3C
:101FF000DC690020D069002010B500F10802044619
:102000000121006A00F000FA50B1E3693BB963793D
:10201000A268E26163F07F036371012010BD0120BB
:1020200010BD00BFF8B5837913B182698A4201D22D
:102030000020F8BD022B0F4605461AD007B32B6AC5
:10204000E9681C7C4A1E04F109037C1EDA40DC406E
:10205000A24211D9EB69AB6005F1080606E0A96858
:10206000286A00F099F9013C0028E1D03246002CA2
:10207000F5D1EF600120F8BD0029EBD0A41AEBE701
:10208000AF60EF600120F8BD2DE9F04F8B468179FC
:1020900085B001290746019205D001233B7100203C
:1020A00005B0BDE8F08F42799107F6D5530708D502
:1020B000FC68B9698C4200F0A880FFF7B3FF0028E4
:1020C000EBD0019BFC68002B49D0DFF88C91DFF846
:1020D0008CA1DDF80480386A0679013E06EA5426B0
:1020E00016F0FF06C4F3080442D1002C40D1B968B1
:1020F00000296FD1FA69002A7ED0BA60C4F5007554
:10210000ADB245453AD9057C4169023AAA400E4430
:1021100016441FFA88F51CB9F868BA6990424CD287
:102120003046012100F0D2F80028B6D04C4404EB30
:10213000050E74450DD00BF1FF31621E0EF1FF3616
:1021400011F8010F02F8010F9642F9D1C4EB0E0409
:10215000A344FC68B8EB05082C44FC60BBD1BB6908
:10216000A34257D27A79BC6142F080027A715AE078
:10217000C4F50075ADB24545BA68C4D8017C406964
:10218000023A8A400644B5F5007F1644C3D1DAF816
:102190000020964204BF4FF0FF32CAF800202A4ABE
:1021A000314610685A46FFF7A3FE00283FF475AF8A
:1021B0000BF5007B4FF40075CBE700F05DF80028CD
:1021C0003FF46BAF2149CAF800600A7842F001027F
:1021D0000A70ABE703AA00F0DFF800283FF460AF15
:1021E000386A1B4B90F82050039A4FF6F871102D67
:1021F00018BF19468A4280D33846FFF7FDFE0028F3
:102200003FF44BAF386ABA6878E7019B002B7FF444
:102210005CAF08E00F4B7A791B6823B1019B13B1C7
:1022200042F080027A71120709D5BB79002B3FF486
:1022300034AF3846FFF7AAFE00283FF42EAF0198CE
:1022400005B0BDE8F08F00BFD8690020DC6B00202E
:10225000F8FFFF0FD0690020DC690020385600200D
:1022600000B583B002AB012203F8011D1946FFF748
:102270000BFF03B05DF804FB70B50F4C23780BB96E
:10228000012070BD0D4B0E4D196828680D4AFFF7EF
:102290002FFE70B10C4E316819B900232370012054
:1022A00070BD2868074AFFF723FE10B10023336092
:1022B000F3E7002070BD00BFDC6B00203856002023
:1022C000D8690020DC690020D469002070B50D4D6C
:1022D0002B6883420E460ED00446FFF7CDFF08B9A7
:1022E000002070BD084B094A18682146FFF73AFDE7
:1022F0000028F5D02C60064B197831431970012065
:1023000070BD00BF38560020D8690020DC6900206D
:10231000DC6B0020F8B590F82030C469102B1A4B04
:1023200005460E4617461B6816D004EBD1149C4296
:1023300016D106F07F06154A42F826701449287E09
:102340000A78012842F001020A7018D9A968114AD6
:102350000B4413600120F8BD04EB11249C4208D00B
:1023600000212046FFF7B2FF50B195F82030102B26
:1023700007D1F6B2054A234622F81670DEE701209F
:10238000F8BD2346D5E700BF38560020DC690020A1
:10239000DC6B0020D4690020C36801338B4218D362
:1023A00070B590F82030102B154B044616460D469C
:1023B000C0691B680FD000EBD11098420FD105F017
:1023C0007F01104B53F8213023F07043336001201C
:1023D00070BD0020704700EB1120984207D000210B
:1023E000FFF774FF50B194F82030102BE7D1E9B219
:1023F000044B33F811303360012070BD002070BDF4
:1024000038560020DC6900202DE9F04F176883B0B2
:102410006FB301374FF0000AC36803F1010813B32B
:102420008B46064691463C46002505E01C461F4665
:10243000F3680135AB4216D9A04538BF02242146C6
:1024400001AA304638BF2746FFF7A6FF631CD91BF9
:1024500048B1019A002AE9D18B4510D01C46F36897
:102460000135AB42E8D8002003B0BDE8F08FA1F100
:10247000010ABAFA8AFA07684FEA5A1ACCE7012C1D
:10248000F1D9F36801339C42EDD86FF070422146D8
:102490003046FFF73FFF0028E5D0A74214D2013CA9
:1024A000012CE0D9F36801339C42DCD8621C214640
:1024B0003046FFF72FFF0028D5D0A74204F1FF34A4
:1024C00002D0012CEED1CEE7D9F8001059B1012984
:1024D000C9D9F36801339942C5D83A463046FFF767
:1024E00019FF0028BFD0C9F80070BAF1000F01D061
:1024F000013737600120B7E790F8392090F83800AD
:10250000101A704790F8383090F839209A4205D95F
:102510005A1C034480F83820187E70474FF0FF3073
:10252000704700BF90F8383090F839209A4286BF43
:102530001B18187E4FF0FF30704700BF704700BF78
:1025400038B50546B0F85E0090B195F85D30144698
:10255000C3F1210294420CD805F13B0018442246F5
:1025600000F0DCFC95F85D30234485F85D302046B2
:1025700038BD012014462871EEE700BFB0F85E3088
:102580006BB190F85D30202B07D8C218013380F86A
:102590005D30012082F83B10704701230371002059
:1025A000704700BF10B50269D378DBB2D906044684
:1025B0003DD510215806D17038D503F0040303F03F
:1025C000FF02002B51D03D49626E00230B7084F84E
:1025D0005D30002A5BD0904794F85D30002B56D0D8
:1025E0002369D0229A70236994F83B201A712369D9
:1025F000012284F85C200222DA7010BD304B84F88E
:1026000060009C424AD02F4B9C4252D094F8391023
:1026100013791F29DBB207D82848007820B1601849
:10262000013184F8391003760223D37010BD5906A6
:10263000C3D4917801F0100101F0FF000029DDD032
:1026400013F001031ED194F85C1094F85D008842E9
:1026500081BF4B1C091984F85C3091F83B30137131
:102660002369D0229A702269DEE7236984F8392031
:10267000C0229A702369114A19790121117002222E
:10268000DA7010BDC023937022691379CCE7012260
:10269000002384F85D2084F83B30A1E7626994F858
:1026A0006130094913440322187A00F09FFD226922
:1026B000ACE7626994F861300449F3E7DD6B002010
:1026C0003C560020A85600202D2700003927000086
:1026D0000369DB7803F0200373B190F860300133B5
:1026E000DBB2012B80F860301AD9426990F8613072
:1026F0001344187A00F0F6BD70B5426903F0FF0587
:1027000090F8613013440446187A00F0EBFDA36E94
:102710005BB184F8385094F83900BDE87040184730
:1027200090F85F30002BE0D0704770BD0148FFF794
:10273000CFBF00BF3C5600200148FFF7C9BF00BF14
:10274000A85600200148FFF72DBF00BF3C560020CF
:102750000148FFF727BF00BFA8560020C029F0B4EA
:1027600028BFC02172B6124B124E134A18600023C4
:10277000138033607360B360F3603361736101276A
:1027800099B15D0903F01F0456F8252007FA04F4F7
:10279000013322438B4246F82520F2D100234380A7
:1027A00001338B4200F58270F9D162B6F0BC7047FC
:1027B000E86B0020F06B00200A6C0020F0B472B6C9
:1027C000234F244E3C8806F1180306EB8400984200
:1027D00012D256F8241099B9021D06F11B05631C8C
:1027E000AD1A03EB950503E052F8041B41B9013320
:1027F000AB421C461046F7D162B60020F0BC7047D1
:10280000B1FA81F34FF00042DA4021EA020101609F
:1028100001B9013410493C800A88013294B20C801D
:1028200062B6801B8010C3EB401000EB8010830069
:102830000A480B49006803F5FB531C330125C554B6
:102840000D88AA42184488BF0C80F0BC704700BFB6
:102850000A6C0020F06B00200C6C0020E86B00205C
:10286000E46B0020428872B60378012B03D9013B48
:10287000037062B67047531170B40C4C0C4D54F891
:1028800023102E88D2434FF0004002F01F0220FA9E
:1028900002F21143074A44F82310B34238BF2B8099
:1028A0001388013B138062B670BC7047F06B002048
:1028B0000A6C00200C6C0020C368B3B130B401E096
:1028C000DB688BB1187A9042FAD158685C7A00695B
:1028D00050F82450002DF3D140F82410087801302E
:1028E0000870DB68002BEDD130BC7047437A8B4217
:1028F00006D90369002253F8210043F821207047CC
:102900000020704738B5437A8B421AD9036953F8CF
:102910002140002243F821209CB12378012B0ED9BD
:10292000FFF74CFF054628B14FF48072211D04309B
:1029300000F0F4FA2378013B2370284638BD204686
:1029400038BD002038BD00BF037C23BB4368427AFA
:102950005B7A9A421FD830B472B60468E3682BB32E
:10296000DA6832B119688C4216D01346DA68002A48
:10297000F8D1D8600023C360A37A0133A372026840
:102980004168012313728A7A1A448A724268137268
:10299000037462B630BC70475D6841688D42E4D113
:1029A000198903899942F4D01346DFE7E060E1E733
:1029B000037C10B5002B32D04368427A5B7A9A428E
:1029C0002DD872B60268D36843B3984202D129E089
:1029D000984202D0DB68002BFAD14368417A1B6928
:1029E000044653F8210048B1FFF73CFF72B6636814
:1029F000627A1B69002143F822102268937A013B16
:102A0000937223689A7A02B91A726268937A013BC8
:102A1000937263689A7A1AB10023237462B610BD68
:102A20001A72F9E7C368D360D7E700BF084B1A787A
:102A300062B930B407480849D02505704FF080448A
:102A400001220C6010461A7030BC7047002070479D
:102A5000EC6B00205EE400E008E100E01A491B4A4C
:102A60001B48F8B50B681B4D046843F080730B607E
:102A7000136843F0010313602E6814B915E064690C
:102A80009CB1237A002BFAD023682F681B6820465C
:102A900098472B68E188DB1B1B099AB28B42A28006
:102AA00088BFE2806469002CEBD10A4B0A4A1B689C
:102AB00010880A4C9B1B1B0999B28342218001D9C3
:102AC0001180F8BDF8BD00BFFCED00E0001000E093
:102AD000E06B0020041000E0086C00200E6C002069
:102AE000F0B572B699B902688AB103790F2B0ED886
:102AF000274C218841FA03F5ED070AD503F100734D
:102B000003F59063B2EB431F03D162B6F0BD204CD6
:102B10002188002341FA03F212F0010207D00133A9
:102B2000102BF7D162B6002203710260F0BD0125BF
:102B30009D402943218062B6164E174D174FDFF88E
:102B400064E0D9B20171346844F0020434602C6846
:102B500044F002042C60A6F580268224A5F5802589
:102B600003F100733C6003F59063223E243D0C4C5E
:102B70008EF800105B0131702970217003601A60BB
:102B80005A609A60DA601A615A619A61DA61F0BD3E
:102B9000106C0020408004403C80044000800040D5
:102BA0001F8000401A80004003790F2B11D8094A7A
:102BB00010B4137072B6084904790A880123A3403F
:102BC00022EA03030B8062B61022002310BC0271BC
:102BD000036070471A800040106C002010B4EFF3BF
:102BE000108272B6437F33B9017F012907D00329D0
:102BF0000FD00123437702B962B610BC7047124C64
:102C00002168A1B1114943610B6883610860586173
:102C1000EFE70F4C216881B10E4943610B68836176
:102C2000086058610C4B4FF080511960E1E7074B89
:102C30004161816120601860DBE7064B4161816181
:102C400020601860EEE700BF246C0020206C00209C
:102C5000146C0020186C002004ED00E070B5EFF358
:102C6000108272B60C4C206880B10C4E002543696E
:102C7000236073B19D6102B962B645778368984756
:102C8000EFF3108272B620680028F0D102B962B664
:102C900070BD3360EFE700BF146C0020186C00209B
:102CA000FFF7DCBF184A30B41468002C27D0036843
:102CB00021688B420ED2CB1A00218460C160236050
:102CC000E06010600223037530BC704711688B42CE
:102CD000144608D3A2685B1A0360002AF6D182600A
:102CE000C460A060EEE7D268C2608460E060C5683E
:102CF000CB1A0222A8602360027530BC7047846042
:102D0000C4601060DEE700BF1C6C0020F8B5224EE6
:102D100034682CB32368002B3AD1204F1D4604E0C1
:102D20003468ECB12368002B32D1A36803B1DD60B5
:102D300020693360036825751B68BB4221D1037F7E
:102D40004560022BC46020D0FFF748FF6368002B6A
:102D5000E6D023602046FFF7A5FF3468002CE1D1C0
:102D6000EFF3108372B60E4A00211068116003B9A8
:102D700062B628B18468FFF795FF20460028F9D194
:102D8000F8BD224600219847E0E783689847DDE7D1
:102D9000013B2360E4E700BF1C6C00208D1900009C
:102DA0002C6C0020024A136801331360FFF7AEBF9A
:102DB000346C0020F8B50E4671B17AB1074614465E
:102DC00000253B6816F8011B1B6838469847013CF4
:102DD0000544F6D12846F8BD0846F8BD1046F8BDB2
:102DE00030B42948294A2A4B2A4D6024E121047035
:102DF00011701B78284C082B30D00A2B2748284903
:102E000037D00C2B0CBF35223D2212232A602360C1
:102E100002600B60234B24491B78244ABBB1012379
:102E20000B601360224B23491B78234A012B26D9C0
:102E3000042B0FD9082B1ED9102B94BF8623872370
:102E40000B6013601D4B01221A7030BC70470B6081
:102E50001360E7E784230B601360F3E700F58E202F
:102E60000F490830012213232A60236002600B609F
:102E7000D0E73922F7E785230B601360E2E7802370
:102E80000B601360DEE700BF0040074001400740D1
:102E90001457002008B003400CB0034008B00B40AA
:102EA0000CB00B40316C002020B0034020B00B4030
:102EB0001557002024B0034024B00B40306C002094
:102EC00068B10E4A1378C3B90D4909780120107012
:102ED00019B10C490C4A0B601360FFF781BF074B17
:102EE0001A7852B1064A18701378002BF5D0054AAB
:102EF000054B10601860FFF773BF7047316C0020FE
:102F0000306C002024B0034024B00B4008B5FDF71E
:102F1000DBFAFDF703FC01F007FAFAE7844641EA21
:102F2000000313F003036DD1403A41D351F8043B41
:102F300040F8043B51F8043B40F8043B51F8043B93
:102F400040F8043B51F8043B40F8043B51F8043B83
:102F500040F8043B51F8043B40F8043B51F8043B73
:102F600040F8043B51F8043B40F8043B51F8043B63
:102F700040F8043B51F8043B40F8043B51F8043B53
:102F800040F8043B51F8043B40F8043B51F8043B43
:102F900040F8043B51F8043B40F8043B51F8043B33
:102FA00040F8043B51F8043B40F8043B403ABDD2A2
:102FB000303211D351F8043B40F8043B51F8043B44
:102FC00040F8043B51F8043B40F8043B51F8043B03
:102FD00040F8043B103AEDD20C3205D351F8043BD3
:102FE00040F8043B043AF9D2043208D0D2071CBF9F
:102FF00011F8013B00F8013B01D30B8803806046C8
:10300000704700BF082A13D38B078DD010F003033D
:103010008AD0C3F10403D21ADB071CBF11F8013BAD
:1030200000F8013B80D331F8023B20F8023B7BE7FC
:10303000043AD9D3013A11F8013B00F8013BF9D227
:103040000B7803704B7843708B78837060467047C1
:1030500008B5104C08E0236859050DD423681A05FB
:103060000FD42368DB0411D423685803F3D500F090
:103070000DFB23685905F1D501F0BAF923681A054B
:10308000EFD501F04BFA2368DB04EDD501F0DCFA53
:10309000EAE700BF3480044008B5FFF7D9FF00BF5E
:1030A000014B10221A80704700200540704700BF76
:1030B000094908B50B6830B16A461844A2F5805238
:1030C000904202D20860184608BD01F077FB0C233D
:1030D00003604FF0FF3008BD18570020FEE700BF27
:1030E000F0B44D1E2E46002400E00134B0FBF2F394
:1030F00002FB1300092800F130078ABF3730F8B20D
:10310000C0B206F8010F1846002BEED10A19537011
:103110004CB1107815F8016F28700133E01A834222
:1031200002F80169F5DB0846F0BC7047704700BF44
:1031300010B40F4B53F8302092F880422CB1012389
:1031400069B182F8803010BC704703EBC0035B6844
:103150001A6841B922F002021A6010BC704782F866
:10316000003110BC704742F003021A6010BC704777
:10317000505400001C4A02EBC00301295B6811D0C7
:1031800004291BD052F83000002280F8802229B197
:10319000022920D0032922D01A6070474FF4807290
:1031A0001A60704752F830004FF4A27280F8801213
:1031B0001A601A6822F020021A60704752F8301024
:1031C0004FF4A272012081F880021A601A6842F05E
:1031D00020021A60704740F203121A6070474FF4E1
:1031E00081721A60704700BF50540000212848D8EF
:1031F000F8B5042A44D8DFE802F0484B4E034500F6
:103200004FF410262B4B03EBC0030D465C6821687E
:1032100011F4E06148D0284B284A2949C3F89C2181
:1032200004F140422748C3F8A411A2F59221264F89
:10323000C3F8A0017C292548C3F8A871C3F8AC01E4
:103240002CD9A2F594237C2B2AD9A2F596237C2B8A
:1032500028D9A2F598237C2B29D9A2F59A227C2A79
:1032600027D81B4872B6236823F4702343F080727A
:10327000C4F384011643236040F82150266062B6EF
:10328000F8BD70474FF43026BCE74FF40026B9E78D
:103290004FF44026B6E74FF42026B3E70D48E1E7A8
:1032A0000D48DFE70D48DDE7FFF764FFB3E70C48A3
:1032B000D8E7F8BD5054000000500020D155002040
:1032C00079550020A55500204D550020215500209E
:1032D000F45700201C57002054570020A45700200A
:1032E000D45700201A4B03EBC00010B4426802F11F
:1032F0004043A3F592217C2923D9A3F594217C296D
:103300000DD9A3F596217C291FD9A3F598217C29F5
:1033100019D9A3F59A237C2B11D80E4C00E00E4C42
:1033200072B613680D4823F08773C2F3840123F447
:10333000803343F08073136044F8210062B610BC00
:103340007047074CECE7074CEAE7074CE8E700BF9B
:1033500050540000F4570020545700202D31000035
:103360001C570020D4570020A457002030B4054B30
:10337000054D064C002210211A602A602060196059
:1033800030BC704714D0034004D0034000D0034049
:10339000212801D8FFF7CCBE704700BF212806D8EE
:1033A000044B53F8303093F80002C0B2704700204D
:1033B000704700BF50540000212801D8FFF7DABE43
:1033C000704700BF2DE9F843054672B6204F214BE8
:1033D000214A1B683C68126862B6520102D5322B42
:1033E00088BF013495B3C3F5BB331C4EDFF864903E
:1033F000DFF86480FF334FF47A72A6FB031302FBFD
:1034000004F404EB931472B6D9F800103A68D8F8B3
:1034100000E062B6C1F5BB33FF33A6FB03031EF029
:10342000806FC4EB93134FF47A7002D0322988BFB7
:10343000013200FB0233B3F57A7F04D3013D05D09E
:1034400004F57A74DFE700F06FFFDCE7BDE8F8838E
:10345000346C002018E000E004ED00E0ABAAAAAA5A
:10346000F8B52D4B2D49DFF8D0E0DFF8D0C02C4E59
:103470002C4D2D4C2D4A2E4F4FF4000018604FF06C
:10348000807018604FF0007018604FF08060186016
:103490004FF0006018600020086028234BF6FF7191
:1034A000CCF80010CEF80030336013602B6023603E
:1034B0003B60B3629362092245F8242CC4F8D80F0C
:1034C00005F57F65C7F8D41F07F5FF2707F5FA67ED
:1034D000C6F8F83F2B6006F5FF26C4F8D42F05F593
:1034E000FD2504F5FF24386006F2F47611483160BA
:1034F00005F5FF6504F5FD642B6023600260FFF7AE
:103500006FFC1920FFF75EFF00F028FE40F2131059
:10351000BDE8F840FFF756BF08E100E00480034033
:1035200014800340248003402C8003401C8003400F
:103530003480034000800B400C800340088003402F
:1035400030B472B62B4A13781D0706D52A4B196A78
:10355000002936D0996A002941D053781C0706D536
:10356000254B196C00293ED0996C002939D09378ED
:10357000190705D5204B196E002936D0996E89B1EF
:10358000D3781B0707D51C4BD3F880207AB3D3F828
:10359000882011213AB162B6184B00221A7030BC53
:1035A00000F06ABE0D21154C154D227843F83150BC
:1035B00003EBC1030830013A5860227062B630BC98
:1035C000704704220D4C0F4D217843F8325003EB25
:1035D000C20308304A1E5860227062B6EFE7052128
:1035E000E1E70921DFE70822ECE70C22EAE71022F5
:1035F000E8E700BF605500000080FF1F0D6D002050
:10360000C800400088004000431E032B1DD81B4A01
:10361000400140F0100030B4104472B6184CE25C27
:10362000032A1BD8DFE802F00212151703220D88C7
:10363000E25410F0080F14BFC823882343EA05435F
:1036400008310360416062B630BC70470830022226
:10365000EDE70522EBE708300422E8E7094A52F8D3
:10366000230038B1084A52F82300416042F8231081
:1036700062B6E9E742F82310034AF7E70080FF1F2C
:103680001C6D0020E46C0020F46C00202DE9F04F4C
:10369000DFF80CB3DFF80CA387B044E0AB4F4FEA80
:1036A000930807EBC809013ED9F8042003F008038A
:1036B000F6B2A2F1080003F0FF04002B40F00281F3
:1036C00057F838301B0C99B222F8081C002B00F078
:1036D000F0809F4B22F8064C42F8044C53F8262009
:1036E000002A00F0C5829B4D55F8263058609A4C50
:1036F00045F8260034F81630194424F8161000F066
:103700009BFD002800F0AD82944A954B19F0080FFC
:1037100000F1080018BF1346C9F8040047F8383014
:1037200008238BF800309BF80040E4B261071AD5FB
:103730008C4B1B78A3B18C490A7802F0FF0322B1AD
:10374000013BDBB20B7003B900BE88490A7802F076
:10375000FF032AB1013BDBB20B70002B00F0578254
:1037600004238BF8003004F0080303F0FF02002B61
:1037700000F0CC809AF80030DBB21E098ED19C0894
:10378000DFF8C89159F8342009EBC401C2F3830271
:10379000013A49680C2A00F28880DFE802F07C7C5C
:1037A0008686868686864786868607000868704DE8
:1037B0004A68704F704E286081B240F28160674B5A
:1037C0006A604FF0010E0022814249F834303A60BD
:1037D000C9F81020C9F8182086F800E05B4C00F208
:1037E000E380B1F5D06F80F04683B1F5817F00F0C2
:1037F000FC8200F28D82802900F07783822940F0DC
:10380000FA82A98801F07F01042900F2F4825B4862
:103810005B4C89000844227062700278930740F183
:10382000588484F800E04FF0020E42E3514F3A68AA
:1038300032B3544B504E5449188834780D78402890
:10384000864645F0020828BF4FF0400E002C84F059
:1038500001043470CEEB00000CBF8824C82409EBAF
:10386000C80680B285F0010544EA0E4472601880F3
:1038700049F8384072440D70002800F045813A60E4
:103880003B4B1A88B2F5A06F0FD100219A7859707E
:103890003E4B1A7009E0364A108842F221029042EB
:1038A00000F037812D4A49F83420394A012313703A
:1038B00036E72A4A2A4B19F0080F18BF134647F873
:1038C00038302DE700F0D8FC324A334952F8263020
:1038D000002B00F0D18158688C5D42F8260003F17E
:1038E0000802C9F80420032C05D8DFE804F02C02F4
:1038F000292602228A551A8819F0080F0CBF88233E
:10390000C82343EA024347F8383009E7E00700F1EB
:103910008181210600F1F281A20706D51F4A2049C4
:1039200013780220DBB213700870E30602D51C4B3B
:1039300010221A7007B0BDE8F08F04228A55DAE72A
:1039400005228A55D7E703228A55D4E70080FF1F56
:10395000906C00203C6C0020F06E0020C8004000FD
:1039600088004000186D0020A16C0020206D002010
:10397000046D0020386C0020A06C0020C02007409F
:10398000106D00204C6C00200C6D0020982007402A
:1039900094200740E46C00201C6D00208820074024
:1039A000802007409020074042F22100814200F031
:1039B0002A8100F2D880B1F5086F00F07682B1F567
:1039C000106F40F01882226AB349A8780870120676
:1039D00000F13A83D9F82820B049130600F10C838E
:1039E000D9F83020AD49150600F10183D9F8382007
:1039F000AA49140600F1F682D9F84020A74910061A
:103A000000F14A83D9F84820A449120600F13F8307
:103A1000D9F85020A149130600F13483D9F8582071
:103A20009E49150600F12983D9F860209B491406A8
:103A300000F11E83D9F868209849100600F113831D
:103A4000D9F870209549120600F10883D9F878203A
:103A50009249130600F1FD82D9F880208F4915069E
:103A600000F13183D9F888208C49140600F12583B0
:103A7000D9F890208949100600F11983D9F89820C7
:103A80008649120600F10D838548864A86490190D1
:103A90008648874D874C04970023059602958046FB
:103AA0000F4616461D460394306828B1446800F05E
:103AB000E3FB2046002CF9D100233360029B3868D9
:103AC0001A46002342F8253028B1446800F0D4FBA0
:103AD0002046002CF9D100223A60019A98F8003073
:103AE0001146002241F8042B039A0191023B4FF04A
:103AF000000122F81510032B00F22B81DFE813F0F0
:103B00007001250170012501BEF1400F18BF002290
:103B1000B5E6694A0D784878157050708D78C87888
:103B20009570D07010680D79157186284D79897956
:103B30005571917100F09B816049614E0A7830782F
:103B400082F00105002842F002020D700CBF8821AE
:103B5000C82149F8321009EBC20280F001000021AF
:103B6000307051609EE642F22120814240F0CB81CC
:103B7000544B554C5549A8781D682560CDF804E094
:103B80000870002002908046844604464B490D7818
:103B900045F0020E09EBCE030393019B002B039B20
:103BA0005C600CBF8824C82444EA080385F0010443
:103BB00049F83E3032700C70DFF8E0E0404BDFF83F
:103BC000FC80002840F01E81BCF1400F1BD144F066
:103BD000020C09EBCC03029CDFF8C0E05C60002A19
:103BE00040F02681020442F088029DF804304EF82D
:103BF0003C20044433700D702346402803D100203C
:103C0000334A3B601080334A012313704DE600F0C5
:103C100067FBA5E5214B2F4828491A614FF0020E9A
:103C200080F800E02C4F0A702C49196099602C4EE6
:103C30002C4D2D4C9A610D213970FF213170DFF828
:103C4000B8E029702270294D294A8EF800109F276C
:103C5000012406F8047C5D600470DA6007B0BDE8FA
:103C6000F08F244A47F8380013780133137057E572
:103C700043F826000E4D3AE58B5D032B00F2F080F1
:103C800001A252F823F000BF2137000021370000C5
:103C9000453D00003F3D0000186D00200080FF1FE3
:103CA000F46C0020906C0020E46C00201C6D00205F
:103CB0003C6C0020F06E0020F86E00200C6D00209F
:103CC000A06C0020346C0020006F00202C6D0020C0
:103CD0004C6C002094200740C02007408800400022
:103CE000882007408020074098200740506C002023
:103CF000A46C00200D6D00208C200740C149C24BF0
:103D000080220D2008701A70A2077FF50EAE05E61E
:103D100040F20232914240F0EE80A98801F07F012A
:103D2000042968D86A88002A65D1B648CDF804E02D
:103D300089000844017841F00201017021E7012364
:103D40008B55EDE400238B55EAE44FF0010388F82E
:103D500000300135042D06F1040607F1040708F1CF
:103D600001087FF4A1AEA94CA94B2278A94D049F6C
:103D7000059E002129701A70130700F105816278F1
:103D8000A549DFF8A0820A7010074FF00001C9F8BA
:103D90003010C9F8381000F1E080A049A2780A700C
:103DA0000021C9F85010C9F858101107DFF87482C3
:103DB00000F10181E2789A499A4C0A7000211207B9
:103DC000C9F87010C9F8781000F1B0803378019309
:103DD000002183F00102C9F89010C9F89810D0E6CC
:103DE0004FF0000388F80030B3E7A98801F07F01A5
:103DF000042940F28D80834A0F2313708A4A0123DD
:103E0000137052E540287FF6E2AE44F002040EEB58
:103E1000C401029E4E60BAB19DF80410834A197025
:103E20003346403888F8005040334EF83420E7E6F7
:103E30009DF8043033700204029B0D7042F0C802FA
:103E400003444EF83C20D8E69DF804101970029BFC
:103E5000774A88F80050403840334EF83420CFE697
:103E600019F0080F0CBF022303238B5558E4714A45
:103E70000F21117060E6704A5468002CBBD068882E
:103E8000B5F804E003E00C325468002CB3D013887A
:103E90008342F8D153887345F5D1000A03280CBF3B
:103EA00094F800E0B2F808E003E0644A644C127849
:103EB0002270E888704580F03F8162490D78402883
:103EC000844645F0020E28BF4FF0400C04EB0C0373
:103ED00009EBCE02029301235460CCEB00004FEAC1
:103EE0000C4800220193C8245EE6554C4FF0020EA8
:103EF00022706270DDE7B1F5A06F7FF47CAF012323
:103F0000002201933DE642F221329142F7D072E75E
:103F10006A88002A7FF46FAF3A48CDF804E0890040
:103F20000844017821F0020101702AE600F084F9CA
:103F3000002800F0EF8008303D4AC4F88400C4F83F
:103F4000802000F079F9002800F0DE800830374A40
:103F5000C9F88C00C9F8882038E700F06DF900280E
:103F600000F0C0800830324AC8F84400C8F8402049
:103F700000F062F9002800F0AF8008302B4AC9F841
:103F80004C00C9F8482008E700F056F9002800F076
:103F9000CD800830264AC9F82400C9F8202000F056
:103FA0004BF9002800F0BC800830204AC9F82C00EA
:103FB000C9F82820E3E600F03FF9002800F09E80D1
:103FC00008301B4AC8F86400C8F8602000F034F9D3
:103FD000002800F08D800830144AC9F86C00C9F838
:103FE0006820E7E6C86B083800F046F904E5486B3E
:103FF000083800F041F9F9E4C86A083800F03CF9E3
:10400000EEE400BFC020074080200740605500005C
:10401000C42007400D6D0020C8200740CC20074079
:10402000D02007400080FF1F94200740C8004000B8
:1040300088004000A16C002064550000186D00202D
:10404000106D00200C6D0020606A083800F014F933
:10405000C0E4C86F083800F00FF9FDE4486F083875
:1040600000F00AF9F2E4C86E083800F005F9E7E458
:10407000486E083800F000F9DCE4C86D083800F03C
:10408000FBF8D1E4486D083800F0F6F8C6E4C86CD7
:10409000083800F0F1F8BBE4486C083800F0ECF8A0
:1040A000B0E4D1F89C00083800F0E6F8ECE4D1F870
:1040B0009400083800F0E0F8E0E4D1F88C0008380B
:1040C00000F0DAF8D4E4D1F88400083800F0D4F82D
:1040D000C8E44FF0020EECE62A78C9F84800013235
:1040E0002A705AE62A78C8F8400001322A703FE761
:1040F0002A78C9F8680001322A705BE62A78C8F885
:10410000600001322A7061E72A78C9F8880001321C
:104110002A705BE62A78C4F8800001322A7010E722
:104120002A78C9F8280001322A7028E62A78C9F8C6
:10413000200001322A7032E7BEF1400FF44628BF5A
:104140004FF0400C04EB0C0302930123CCEB0E0068
:104150004FEA0C480022019318E500BFF8B500F0C3
:10416000DFFA294B29482A4C2A4F2B4DDFF8BCC0D7
:10417000DFF8BCE0294E00221A605A609A60DA60CB
:104180001A615A619A61DA611A625A629A62DA6253
:104190001A635A639A63DA631A645A649A64DA6433
:1041A0001A655A659A65DA651A665A669A66DA6613
:1041B0001A675A679A67DA67C3F880200168C3F8FC
:1041C000842041F480210160C3F307212170C3F3EF
:1041D0000740134938701B0E2B70FF238CF80030FA
:1041E000104D8EF8003010480B700123337084F8A6
:1041F000642070264FF40074102207F82C3C2E70B7
:10420000046081F8F820F8BD0080FF1F348004406E
:104210009C200740B0200740B4200740942007406E
:104220001020074049E400E008E100E0802007405A
:1042300088200740704700BF72B60D480268B2FA86
:1042400082F30B2B10DC4FF00041D94022EA01022F
:10425000026062B6074803EBC303DB00C21800210B
:10426000C15010465160704762B60020704700BFD1
:10427000FC570020BC5100200D4B0E4AC31AA2FB74
:1042800003231B090B2B0CD80B4A127852B972B6B8
:104290000A484FF00041026821FA03F31A43026012
:1042A00062B67047064A1278002AF0D0FFF748B984
:1042B000BC510020398EE3380D6D0020FC570020E2
:1042C000186D0020044B054A1B6890881BB11A88A2
:1042D0005B88D31A18447047286D0020F06E0020C8
:1042E00038B50E4B1B7873B90D4C216861B103F0E2
:1042F000FF054B880B800420FFF786F9256038BD49
:10430000084B01221A7038BDFFF796FF0028F7D03E
:104310000146BDE838400420FFF776B9216D002042
:10432000246D0020206D002038B5224C237803B185
:1043300038BD01232370FFF7C5FF70BB00F048F8BC
:1043400040BB00F0DBF810BB00F06EF9E0B90023D1
:104350002370EFF30583002BEAD1EFF3108172B6DF
:10436000154B1868E0B1154C2278CAB945691D6033
:1043700001232370C5B1AA6101B962B60025457752
:10438000836898472570D3E700F020F8DFE700F056
:104390001BF8D9E700F016F8D3E7FFF74BFFCDE79E
:1043A0000029C5D162B638BD054B1D600029E5D195
:1043B000E3E700BF2D6D0020246C0020286C002056
:1043C000206C0020704700BF704700BF704700BFDF
:1043D000054A064B10781B78C0B2DBB2984238BF52
:1043E0004030C01A704700BF346D0020356D00208A
:1043F000F0B4384B1A7912F0300F2CD072B6997D88
:1044000001F0FF0200293DD062B6334F33493878BE
:104410000D78334E1C46C0B2EDB2431C402BE179FF
:1044200028BF0023AB4202F1FF32C9B21CBFF154D6
:10443000184612F0FF02F0D12A4B1B68C2B23A7044
:104440004BB1A84236BFC5F14005401B4019272893
:10445000C4BF01221A701F49CA78D2B2150616D4F9
:1044600052060DD51B4B1B795B0609D51E4B1F4908
:104470001B6800220A7003B11A70164B3C22DA70D6
:10448000F0BC70474022D9795A7462B6E3E70B79E1
:104490001C06E5D5164B174E1C783378E4B2DBB218
:1044A0009C420ED0144D01E0A3420AD00133402BB0
:1044B00028BF00230879E85CC0B2C871087D0728CE
:1044C000F2D9DBB2034933700B79180644BF7C2361
:1044D000CB70C5E700A00640346D0020356D00208C
:1044E000786D0020306D0020BC6D0020B86D00207C
:1044F000C06D0020B96D0020386D0020054A064BC4
:1045000010781B78C0B2DBB2984238BF4030C01A76
:10451000704700BF346E0020C96D0020F0B4384BE6
:104520001A7912F0300F2CD072B6997D01F0FF028B
:1045300000293DD062B6334F334938780D78334E79
:104540001C46C0B2EDB2431C402BE17928BF0023CA
:10455000AB4202F1FF32C9B21CBFF154184612F04F
:10456000FF02F0D12A4B1B68C2B23A704BB1A8428D
:1045700036BFC5F14005401B40192728C4BF0122A2
:104580001A701F49CA78D2B2150616D452060DD534
:104590001B4B1B795B0609D51E4B1F491B6800226C
:1045A0000A7003B11A70164B3C22DA70F0BC7047E7
:1045B0004022D9795A7462B6E3E70B791C06E5D537
:1045C000164B174E1C783378E4B2DBB29C420ED007
:1045D000144D01E0A3420AD00133282B28BF002349
:1045E0000879E85CC0B2C871087D0728F2D9DBB24F
:1045F000034933700B79180644BF7C23CB70C5E7A1
:1046000000B00640346E0020C96D0020F46D00201B
:10461000C46D0020386E0020C86D00203C6E002064
:10462000356E0020CC6D0020054A064B10781B78B3
:10463000C0B2DBB2984238BF4030C01A704700BFEA
:10464000446E0020456E002030B42B4B1A7994063E
:104650001FD52A48DA790378294901333F2B097895
:10466000C8BF00238B42D2B203D0264CD9B2E25449
:104670000170254A116861B1244A1278D2B293427E
:1046800036BFC2F140029B1A9B18272BC4BF0123DF
:104690000B70194AD378DBB2180611D45A060DD51F
:1046A000154B1B795B0609D5194B1A491B6800226B
:1046B0000A7003B11A70104B2C22DA7030BC7047AC
:1046C00011790906EAD5144910480C780178C9B265
:1046D0008C420DD04A1C272A84BF00210A460F4D68
:1046E000054C98BFD1B2AA5CD2B2E2710170D5E795
:1046F0006C21D170D2E700BF00C00640446E00209C
:10470000456E0020706E0020406E0020B16E0020CB
:10471000B46E0020B06E0020B86E0020486E0020FD
:1047200070B584B072B6194B194D1A4870224126E3
:104730000F2480211A702E701A4604701970137895
:104740001B06FCD5144B186862B6144B144C9842E7
:1047500098BF00EB800001A998BF40000A22FEF735
:10476000BFFC01A92046002311F8012B01333AB107
:104770000A2B20F8022FF7D11623237004B070BD46
:104780005B00DBB2237004B070BD00BF00000240CC
:104790000700024006000240080002407F96980091
:1047A0008C5800200B460146184600F001B800BFA7
:1047B00013460A460146022000F004BB014B18686C
:1047C000704700BFD05C002070B50F4E0F4D761BB8
:1047D000B61018BF002405D0013455F8043B9847A3
:1047E000A642F9D10A4E0B4D761B00F0E7FEB6103B
:1047F00018BF002406D0013455F8043B9847A64260
:10480000F9D170BD70BD00BFC8550000C85500008B
:1048100014560000C8550000024B0146186800F00D
:1048200003B800BFD05C00202DE9F04F01F10B056B
:10483000162D83B0064640F29F8035F0070500F143
:10484000BF80A94200F2BC8000F0A6FAB5F5FC7F5B
:10485000C0F09C826B0A00F0BA80042B00F28381C6
:10486000A80900F1390E4FEA4E033830C44F07EB68
:104870008303A3F108015C68A14207D1ACE0002AE0
:1048800080F2AC80E468A14200F0A680636823F067
:1048900003035A1B0F2AF2DDB9493C6901F1080EE6
:1048A000744500F0B381636823F003035A1B0F2A99
:1048B00000F39981002AC1F814E0C1F810E080F2F9
:1048C0009E80B3F5007F80F06781DB0803F1010C67
:1048D00001229B1002FA03F34A6851F83C80C4F8A5
:1048E000088001EBCC091A43A9F10803E3604A6090
:1048F00041F83C40C8F80C40831001249C4094428D
:1049000000F28A80144206D120F0030064001442B1
:1049100000F10400FAD007EBC009CC468046DCF871
:104920000C108C4507D173E1002A80F28181C9689F
:104930008C4500F06D814B6823F003035A1B0F2A4E
:10494000F2DD0C46D1F80CC054F8088F4B1945F035
:1049500001054D6042F00101C8F80CC03046CCF8AA
:1049600008807B613B61C3F80CE0C3F808E0596044
:104970009A5000F013FA1FE0102921D800F00CFA29
:104980001025062302207E4F07EB8303A3F10802C4
:104990005C68944200F045816368E168A56823F093
:1049A0000303234430465A68E96042F001028D60F7
:1049B0005A6000F0F3F90834204603B0BDE8F08FE8
:1049C00000240C232046336003B0BDE8F08F802321
:1049D0004FF0400E3F2049E770465DE72344E16811
:1049E0005A68A56842F00102E96030468D605A605D
:1049F00000F0D4F90834204603B0BDE8F08F23441A
:104A000030465A6842F001025A6000F0C7F9083493
:104A1000204603B0BDE8F08FBC68636823F003084C
:104A2000A84504D3C5EB08030F2B00F38C80554B2E
:104A3000DFF860911A68D9F8003001332A4404EB9A
:104A4000080A00F0608102F580520F3222F47F6282
:104A500022F00F0211463046019200F0A1F9B0F1A8
:104A6000FF3F8346019A00F05881824500F2FC80A6
:104A7000454B1968DA451144196000F05381D9F8A3
:104A80000000DFF810E101301BBFCAEB0B0A5144F4
:104A9000CEF800B019601BF0070100F01781C1F1DA
:104AA0000800C1F58051834408315A44C2F30B0217
:104AB000C2EB010949463046019300F071F9431CED
:104AC000019B00F03F81CBEB00024A4442F001021F
:104AD0001968C7F808B04944BC42CBF804201960F3
:104AE000DFF8A49016D0B8F10F0F40F2FD80626895
:104AF000A8F10C0323F00703E01802F001024FF0C5
:104B0000050E1A430F2B6260C0F804E0C0F808E0FD
:104B100000F21C811D4BBC681A68914288BF196065
:104B20001B4B1A689142626888BF196022F0030229
:104B30009542A2EB050301D80F2B04DC304600F0B0
:104B40002DF9002438E7621943F0010345F001050F
:104B500065603046BA60536000F020F908342046A2
:104B600003B0BDE8F08F142B71D9542B00F2A48050
:104B7000280B00F16F0E4FEA4E036E3076E600BF51
:104B8000D45C0020C46E0020C86E0020C06E0020DF
:104B9000BC6E0020E06000205A0A042A5ED9142A64
:104BA00000F2B38002F15C0149005B3207EB810C3B
:104BB00057F82110DFF8DC81ACF1080C8C4500F0CF
:104BC00088804A6822F00302934202D289688C45A9
:104BD000F7D1D1F80CC07A68C4F80CC0A160CCF849
:104BE0000840CC6088E6631942F0010745F00105F2
:104BF000656030464B610B61C3F80CE0C3F808E018
:104C00005F609A50083400F0C9F8D5E64A6873E648
:104C100008F1010818F0030F0CF1080C7FF47FAEC7
:104C200030E0DC68A34208BF02303FF435AEB3E6A3
:104C30000B440C465A68C96854F8085F42F00102F8
:104C40005A603046E9608D6000F0A8F8B4E603F1E0
:104C50005C0E03F15B004FEA4E0307E69A0902F18E
:104C6000390149003832A1E7BC424A4B3FF400AF5A
:104C70009C68626822F003025AE759F8083999459E
:104C800040F0828010F0030F00F1FF30F5D17B6817
:104C900023EA04037B6064009C423FF6BDAE002C17
:104CA0003FF4BAAE1C4240467FF435AE64001C426D
:104CB00000F10400FAD02EE6B3F5AA7F18D8E80B6D
:104CC00000F1780E4FEA4E037730CFE54FF4805174
:104CD000EBE60121D8F80430921001FA02F21A43EF
:104CE000C8F80420614677E70123CBF8043025E7B4
:104CF00040F25452934220D8A80C00F17D0E4FEAA6
:104D00004E037C30B2E51032A4E6542A26D81A0BA2
:104D100002F16F0149006E3248E7BC68626822F018
:104D2000030205E7CAF30B0000287FF4A8AE424453
:104D3000BB6842F001025A60ECE6FE234FF07F0EA2
:104D40007E2093E501224FF00009C1E604F108013D
:104D5000304600F0FBF8D9F80010DBE6B2F5AA7F88
:104D600005D8DA0B02F17801490077321EE740F2EC
:104D700054518A4205D89A0C02F17D0149007C32D7
:104D800014E7FE217E2211E77B6884E7E808431CD4
:104D90005B00F8E5D45C0020704700BF704700BF9F
:104DA00038B5074C0023054608462360FEF780F916
:104DB000431C00D038BD2368002BFBD02B6038BDCE
:104DC000046F00202DE9F047254C2568D5F84841AF
:104DD0000646884692469946C4B360681F2817DC89
:104DE000431C76B104EB80050122C5F888A0D4F8F5
:104DF000881182401143022EC4F88811C5F8089129
:104E00001ED00230636044F820800020BDE8F087A7
:104E1000144B03B34FF4C870FFF7FEFC0446D0B147
:104E2000D5F84831002780E88800C5F84841384661
:104E30000123C4F88871C4F88C71002EE1D0D1E749
:104E4000D4F88C110A43C4F88C21DAE705F5A6746E
:104E5000C5F84841C1E74FF0FF30BDE8F08700BF1B
:104E6000B855000019480000024B13B1024800F089
:104E700005B8704700000000894E0000002301467D
:104E80001A461846FFF79EBF38B5074D074C2C1B36
:104E9000A41005D0013C55F8043D9847002CF9D1E9
:104EA000BDE8384000F0B6BB000000000000000084
:104EB000F8B5234F0C460646FFF76EFFBB685D68EA
:104EC00025F00305291B01F6EF7121F47F6121F024
:104ED0000F01A1F58054B4F5805F07DB0021304657
:104EE000FFF75EFFBB682B44984204D03046FFF7C3
:104EF00055FF0020F8BD61423046FFF751FF0130F9
:104F00000DD0104BBA6819682D1B45F001053046CD
:104F1000091B55601960FFF741FF0120F8BD002112
:104F20003046FFF73DFFBA68831A0F2BDEDD064CD3
:104F30000449246843F00103001B53600860D5E76F
:104F4000D45C0020C86E0020E0600020002945D01D
:104F50002DE9F0410D468046FFF71EFF55F8047C11
:104F60006A4927F00103A5F10804E2188E68506829
:104F7000B24220F0030062D0FE0750600BD455F817
:104F8000087CE41B01F1080EA56875453B446FD011
:104F9000E768EF60BD6015186D68ED0742D543F016
:104FA00001026260E350B3F5007F18D2DB085A1C9F
:104FB0004D6851F83270A76001209B1000FA03F38E
:104FC00001EBC2001D430838E0604D6041F83240FB
:104FD000FC604046BDE8F041FFF7E0BE70475A0A6A
:104FE000042A53D89A0902F139077F0002F13805E3
:104FF00001EB870051F827204449083890424DD0F2
:10500000516821F003018B4202D292689042F7D19D
:10501000D068E060A2608460D4604046BDE8F041A2
:10502000FFF7BCBE95683A4FBD4203443FD0D068FD
:10503000E86043F0010285606260E350B3E7FF0778
:10504000034407D455F8082CA41A1344A068E26856
:10505000C26090602F4A126843F001009342606082
:105060008C60B6D32C4B40461968FFF721FFB0E7A0
:1050700011184968C90744D49168D268CA600344CA
:1050800043F0010091606060E350A2E7142A17D852
:1050900002F15C077F0002F15B05A9E7AA104B68EB
:1050A000012505FA02F213434B600246B1E743F0D3
:1050B00001024C610C61E560A5606260E35088E725
:1050C000542A06D81A0B02F16F077F0002F16E0511
:1050D0008EE7B2F5AA7F06D8DA0B02F178077F00D7
:1050E00002F1770584E740F25450824206D89A0CC8
:1050F00002F17D077F0002F17C0579E7FE277E251E
:1051000076E743F001026260E35062E7D45C00207E
:10511000DC5C0020DC600020C46E00200000000089
:1051200000000000DD3000000000240348066A098A
:105130008C0CAB0FC812E215F9180B1C1A1F232296
:10514000282526281F2B112EFB30DF33BA368C3949
:10515000563C173FCE417A441C47B4493F4CBF4EA2
:1051600033519B53F5554258825AB35CD75EEB607E
:10517000F162E864CF66A6686D6A236CC96D5E6FE4
:10518000E2705472B573047541766B7784788979CF
:105190007C7A5C7B297CE37C897D1D7E9C7E097FFB
:1051A000617FA67FD87FF57FFF7FF57FD87FA67FC1
:1051B000617F097F9C7E1D7E897DE37C297C5C7BF1
:1051C0007C7A897984786B7741760475B5735472EB
:1051D000E2705E6FC96D236C6D6AA668CF66E86485
:1051E000F162EB60D75EB35C825A4258F5559B532F
:1051F0003351BF4E3F4CB4491C477A44CE41173F10
:10520000563C8C39BA36DF33FB30112E1F2B262843
:10521000282523221A1F0B1CF918E215C812AB0F00
:105220008C0C6A09480624030000DCFCB8F996F6E9
:1052300074F355F038ED1EEA07E7F5E3E6E0DDDD4F
:10524000D8DADAD7E1D4EFD105CF21CC46C974C67C
:10525000AAC3E9C032BE86BBE4B84CB6C1B341B103
:10526000CDAE65AC0BAABEA77EA54DA329A1159F07
:105270000F9D189B31995A979395DD933792A29081
:105280001E8FAC8D4B8CFC8ABF8995887C87778676
:105290008485A484D7831D837782E3816481F7802A
:1052A0009F805A8028800B8001800B8028805A8044
:1052B0009F80F7806481E38177821D83D783A484F4
:1052C000848577867C879588BF89FC8A4B8CAC8DDA
:1052D0001E8FA2903792DD9393955A973199189B20
:1052E0000F9D159F29A14DA37EA5BEA70BAA65AC56
:1052F000CDAE41B1C1B34CB6E4B886BB32BEE9C055
:10530000AAC374C646C921CC05CFEFD1E1D4DAD700
:10531000D8DADDDDE6E0F5E307E71EEA38ED55F023
:1053200074F396F6B8F9DCFC0000FFFF0000000003
:1053300000000000B915000000000000000000009F
:10534000C514000000000000000000004D16000021
:105350000000000000000000051900003C8004402F
:1053600000100000041A0000FF7F00001110000070
:10537000A51900000C080000000200000002000057
:105380000B07000040020000000200000D0E0000AC
:1053900040020000000200000A0209061417151658
:1053A0000F000000000200000002000000020000E8
:1053B00000020000000200000002000000020000E5
:1053C00000020000000200000101020204040808BB
:1053D000100000000000000000000000612200003A
:1053E000B52D0000D91A0000DD1A000034800440F9
:1053F000400000001211FFFFFF0202000000131026
:10540000FFFFFF020200000018000000348004408B
:10541000800000001EFFFFFFFF02000000001DFFD4
:10542000FFFFFF0200000000190000000000000064
:10543000000000007D25000041250000D91A000071
:105440003D250000F9240000052500002525000069
:105450004008FE4340A004404408FE4344A00440EA
:105460000018FE4300C004403000FE43309004406A
:105470003400FE43349004401C18FE431CC004401A
:105480001018FE4310C004400818FE4308C0044032
:105490000C18FE430CC004400C10FE430CB004403A
:1054A0001010FE4310B004401810FE4318B0044022
:1054B0001C10FE431CB004401410FE4314B0044002
:1054C0000418FE4304C004400010FE4300B0044032
:1054D0000008FE4300A004400408FE4304A004406A
:1054E0000C08FE430CA004400808FE4308A004403A
:1054F0001418FE4314C004401818FE4318C004409A
:105500000410FE4304B004400810FE4308B00440F9
:105510001400FE43149004404C08FE434CA0044089
:105520000420FE4304D004402410FE4324B0044071
:105530002010FE4320B004402810FE4328B0044051
:105540002C10FE432CB004400020FE4300D0044049
:105550004808FE4348A004401000FE431090044059
:10556000001519150001000000580020120000006D
:10557000000200002C58002043000000000300003F
:10558000885800200000000001030904145800207E
:105590000000000002030904705800200000000011
:1055A000030309048C5800200000000000000000E4
:1055B0000000000000000000A8580020F8B500BF5F
:1055C000F8BC08BC9E467047694E000035040000D8
:1055D0002D0A00001D1400003514000065140000A1
:1055E0007D14000095140000AD1400003516000075
:1055F0005D180000751800008D180000A518000047
:10560000BD180000D5180000ED180000E11A0000D8
:045610007D1F0000FA
:04561400F8B500BF26
:1056180038B5084B1C681C6054B1074D94FAA4F3C4
:10562800B3FA83F355F823309847631E1C40F5D12D
:1056380038BD00BFA0D00440F457002038B5084B4F
:105648001C681C6054B1074D94FAA4F3B3FA83F3B1
:1056580055F823309847631E1C40F5D138BD00BF6C
:10566800A0C00440D457002038B5084B1C681C6003
:1056780054B1074D94FAA4F3B3FA83F355F82330E1
:105688009847631E1C40F5D138BD00BFA0B0044048
:10569800A457002038B5084B1C681C6054B1074D4E
:1056A80094FAA4F3B3FA83F355F823309847631EAA
:1056B8001C40F5D138BD00BFA0A0044054570020BD
:1056C80038B5084B1C681C6054B1074D94FAA4F314
:1056D800B3FA83F355F823309847631E1C40F5D17D
:1056E80038BD00BFA09004401C57002000000000F7
:1056F80000C002405C5300000000000000000000F1
:105708000000000000000000000000000000000091
:105718000000000000000000000000000000000081
:105728000000000000000000FFFFFFFF34540000ED
:1057380000000000E80300000000000000600640D0
:10574800EC53000000000000000000000000000012
:105758000000000000000000000000000000000041
:105768000000000000000000000000000000000031
:105778000000000000000000000000000000000021
:105788000000000000000000000000000000000011
:105798000000000000000000345400000000000079
:1057A800E803000000000000007006400C540000F0
:1057B80000000000000000000000000000000000E1
:1057C80000000000000000000000000000000000D1
:1057D80000000000000000000000000000000000C1
:1057E80000000000000000000000000000000000B1
:1057F80000000000000000000000000000000000A1
:10580800000000000A040000086F00202D3100008D
:105818002D3100002D3100002D3100002D31000008
:105828002D3100002D3100002D3100002D310000F8
:105838002D3100002D3100002D3100002D310000E8
:105848002D3100002D3100002D3100002D310000D8
:105858002D3100002D3100002D3100002D310000C8
:105868002D3100002D3100002D3100002D310000B8
:105878002D3100002D3100002D3100002D310000A8
:105888002D3100002D3100002D3100002D31000098
:105898002D3100002D3100002D3100002D31000088
:1058A8002D3100002D3100002D3100002D31000078
:1058B8002D3100002D3100002D3100002D31000068
:1058C8002D3100002D3100002D3100002D31000058
:1058D8002D3100002D3100002D3100002D31000048
:1058E8002D3100002D3100002D310000FFFFFFFF9A
:1058F8001201100102000040C01683047502010263
:105908000301000018035400650065006E00730071
:1059180079006400750069006E006F000902430099
:10592800020100C03209040000010202010005243E
:1059380000100105240101010424020605240600C3
:10594800010705820310004009040100020A000053
:10595800000705030240000007058402400000001C
:1059680016035500530042002000530065007200E2
:10597800690061006C000000040309040C030000C6
:10598800000000000000000000000000000000000F
:10599800000000000000000000000000945B0020F0
:1059A800FC5B0020645C0020000000000000000098
:1059B80000000000000000000000000000000000DF
:1059C80000000000000000000000000000000000CF
:1059D80000000000000000000000000000000000BF
:1059E80000000000000000000000000000000000AF
:1059F800000000000000000000000000000000009F
:105A0800000000000000000000000000000000008E
:105A1800000000000000000000000000000000007E
:105A2800000000000000000000000000000000006E
:105A3800000000000000000000000000000000005E
:105A480001000000000000000E33CDAB34126DE6FB
:105A5800ECDE05000B000000000000000000000064
:105A6800000000000000000000000000000000002E
:105A7800000000000000000000000000000000001E
:105A8800000000000000000000000000000000000E
:105A980000000000000000000000000000000000FE
:105DC800A85800200000000000000000D45C00205B
:105DD800D45C0020DC5C0020DC5C0020E45C00205B
:105DE800E45C0020EC5C0020EC5C0020F45C00200B
