:1000000000800020BD010000752800002D280000A0
:100010002D2800002D2800002D2800002D2800008C
:100020002D2800002D2800002D2800007528000034
:10003000752800002D280000F53F0000F940000061
:10004000752800007528000075280000752800003C
:10005000752800007528000075280000752800002C
:10006000752800007528000075280000752800001C
:10007000752800007528000075280000752800000C
:1000800075280000752800007528000075280000FC
:1000900075280000752800007528000075280000EC
:1000A000B5250000C1250000752800007528000056
:1000B00075280000752800007528000075280000CC
:1000C00075280000752800007528000075280000BC
:1000D00075280000752800007528000075280000AC
:1000E000752800007528000075280000752800009C
:1000F0007528000051420000752800007D43000073
:1001000075280000A944000075280000752800002B
:10011000752800007528000075280000752800006B
:10012000752800007528000075280000752800005B
:10013000752800007528000075280000752800004B
:10014000752800007528000075280000752800003B
:10015000752800007528000075280000752800002B
:10016000752800001D2E000075280000752800006D
:10017000752800007528000075280000752800000B
:1001800075280000752800007528000075280000FB
:1001900075280000752800007528000075280000EB
:1001A00075280000752800007528000075280000DB
:1001B0007528000075280000B13D0000564B4CF238
:1001C000205210B51A804DF628121A8000BF00BFC9
:1001D00002F054FB514B4FF010621A60504A9A6083
:1001E000504ADA60504A136813F4807304D14F49BF
:1001F0000B604FF4A85313604D4B1A78110703D5C9
:100200001A7842F008021A704A4B4B492A221A7097
:100210004A4A4B4B8B4204D252F8040F43F8040B6A
:10022000F8E7484B484900228B4202D243F8042B9E
:10023000FAE74649464A002352F8230041F82300D2
:1002400001336F2BF8D1434B434A802103F8011B44
:100250009342FBD1414B3D4A1A60414B8A221A70AE
:10026000A3F5805324225A70A0221A709A7992071B
:10027000FCD59A79D406FCD43A4A937903F00C035E
:10028000082B384BF9D103221A7140225A719A79FE
:100290009006FCD5334A9179324B4906FBD5324A58
:1002A000324911600221516020221A709A7902F0BD
:1002B0000C020C2AFAD12E4B2E4A1A602E4B2F4AD2
:1002C0001A6000225A60072243F8042C2C4AC3F813
:1002D0000C2D62B602F08CFC144B1B68DA0705D5B6
:1002E000284802F00BFC284B284A1A60284B1B7840
:1002F0005B0609D5244C254B22689A4204D121483B
:1003000002F0FCFB0023236004F094F902F0BCFA35
:1003100003F010FFFEE700BF0E20054030800440D0
:10032000823F04000100002B10D0034014D0034092
:1003300002D0074000E00740E4600020B45901000B
:1003400020550020E4600020D86B002000500020E1
:100350000000000000E400E05FE400E008ED00E0E1
:100360000050064000400640448004400000030165
:1003700004800440C010050014E000E0FF76010096
:1003800000002020745FFB5E1CE00340A5C3945A6C
:1003900000F00740FFFFFFFFFFFFFFFFFFFFFFFF32
:1003A000FFFFFFFFFFFFFFFFFFFFFFFFFFFFFFFF5D
:1003B000FFFFFFFFFFFFFFFFFFFFFFFFFFFFFFFF4D
:1003C000FFFFFFFFFFFFFFFFFFFFFFFFFFFFFFFF3D
:1003D000FFFFFFFFFFFFFFFFFFFFFFFFFFFFFFFF2D
:1003E000FFFFFFFFFFFFFFFFFFFFFFFFFFFFFFFF1D
:1003F000FFFFFFFFFFFFFFFFFFFFFFFFFFFFFFFF0D
:10040000FFFFFFFFFFFFFFFFFFFFFFFFDEF9FFFF23
:1004100010B5054C237833B9044B13B10448AFF33E
:1004200000800123237010BDE46000200000000064
:10043000B8590100084B10B51BB108490848AFF383
:1004400000800848036803B910BD074B002BFBD0A0
:10045000BDE81040184700BF00000000E860002021
:10046000B8590100E46000200000000010B5044607
:1004700003F048FC204610BD002310B4104C41721C
:10048000026104600372C36041B1194600E0026971
:1004900042F82310427A01339A42F8DC094B1A6879
:1004A0000AB90BE01A465369002BFBD150610023B7
:1004B00043618380C380837210BC70471860F6E785
:1004C000C0540100AC69002070B5002002F088F92A
:1004D000C8214048404C03F0EBFA404B404A9A6137
:1004E0000021084602F030FB0021012002F02CFB25
:1004F0000021022002F028FB0021032002F024FB4F
:100500000021042002F020FB0021052002F01CFB4A
:100510000021062002F018FB0021072002F014FB46
:100520000021082002F010FB0021092002F00CFB42
:1005300000210A2002F008FB00210B2002F004FB3E
:1005400001210C2002F000FB01210D2002F0FCFA39
:1005500001210E2002F0F8FA01210F2002F0F4FA36
:100560000121102002F0F0FA0121112002F0ECFA32
:100570000121122002F0E8FA0121132002F0E4FA2E
:100580000121142002F0E0FA0121152002F0DCFA2A
:100590000121162002F0D8FA0121172002F0D4FA26
:1005A00010481149114A4FF4804345F27A4500261C
:1005B000A361E361236263628361C3610362436297
:1005C0008B61CB610B624B6256629561D56115629E
:1005D00070BD00BF0082FF1F08610020A8640020DA
:1005E000CCCC010064650020346400206C640020E1
:1005F0002DE9F04FDFF8A8B2954ADBF80030136020
:1006000083B00020019202F091FADFF898A2914B9A
:10061000DAF80010CBF8000001201960009302F016
:1006200085FA8D4BCAF8000019688C4BDFF8789278
:100630001960022002F07AFA874BDFF870821860A6
:10064000874B884F1968884B884E1960032002F049
:100650006DFA834B864D1860864B874C1968874B23
:100660000420196002F062FA824B1860844B19680A
:10067000844B0520196002F059FA814BD9F800101B
:100680001860814B0620196002F050FA7F4BD8F8B1
:100690000010C9F800000720196002F047FA7C4BEF
:1006A0003968C8F800000820196002F03FFA794B59
:1006B000316838600920196002F038FA764B2968F1
:1006C00030600A20196002F031FA744B216828600A
:1006D0000B20196002F02AFA019ADBF80010126868
:1006E00020609142009BC0F280811B68DAF80020F4
:1006F0009A42C0F27581594B574A1B6812689A4258
:10070000C0F26981584B564A1B6812689A42C0F27F
:100710005D815A4B574A1B6812689A42C0F2518158
:10072000584B574A1B6812689A42C0F24581564B93
:10073000D9F800201B689A42C0F23981534BD8F88F
:1007400000201B689A42C0F22D81514B3A681B6809
:100750009A42C0F222814F4B32681B689A42C0F223
:1007600017814D4B2A681B689A42C0F20C814B4B93
:1007700022681B689A42C0F20181DBF80030002B2E
:1007800040F0968001210C2002F0CAF9DAF800301E
:10079000002B40F0968001210D2002F0C1F92E4B74
:1007A0001B68002B40F0968001210E2002F0B8F962
:1007B0002B4B1B68002B40F0968001210F2002F08C
:1007C000AFF92C4B1B68002B40F0968001211020C4
:1007D00002F0A6F92A4B1B68002B40F096800121FD
:1007E000112002F09DF9D9F80030002B40F09680DE
:1007F0000121122002F094F9D8F80030002B40F0CB
:1008000096800121132002F08BF93B68002B40F009
:1008100096800121142002F083F93368002B40F008
:1008200096800121152002F07BF92B68002B40F007
:1008300096800121162002F073F92368002B00F046
:1008400096800021172003B0BDE8F04F02F068B990
:1008500000610020046100200C650020A4640020D9
:100860001065002024650020406100202C620020DB
:100870003062002094610020346200204461002036
:10088000AC610020486100204C61002050610020D4
:100890005461002014650020186500201C650020AC
:1008A0000465002008650020B0610020206500205C
:1008B00000210C2002F034F9DAF80030002B3FF46C
:1008C0006AAF00210D2002F02BF94B4B1B68002B67
:1008D0003FF46AAF00210E2002F022F9474B1B685B
:1008E000002B3FF46AAF00210F2002F019F9444BAE
:1008F0001B68002B3FF46AAF0021102002F010F9B2
:10090000404B1B68002B3FF46AAF0021112002F01E
:1009100007F9D9F80030002B3FF46AAF002112200C
:1009200002F0FEF8D8F80030002B3FF46AAF002147
:10093000132002F0F5F83B68002B3FF46AAF00216A
:10094000142002F0EDF83368002B3FF46AAF002169
:10095000152002F0E5F82B68002B3FF46AAF002168
:10096000162002F0DDF82368002B7FF46AAF012126
:10097000172003B0BDE8F04F02F0D2B82249234857
:1009800000F02CFFF9E62249224800F027FFEEE6AE
:100990002149224800F022FFE3E62149214800F0E6
:1009A0001DFFD8E62049214800F018FFCDE6204978
:1009B000204800F013FFC1E61F49204800F00EFF59
:1009C000B5E61F491F4800F009FFA9E61E491F4868
:1009D00000F004FF9DE61E491E4800F0FFFE91E670
:1009E0001D491E4800F0FAFE85E61D491D4800F02D
:1009F000F5FE009B79E600BF0C6500201065002025
:100A000094610020AC610020147800000462002092
:100A1000106F0000DC6100202C140100B461002084
:100A2000B02201000C640020343A0100E46300208D
:100A30008C5E0000BC6300201CCE0000946300208C
:100A400098C600006C630020A400010044630020ED
:100A5000884F00001C63002028060100F46200207B
:100A6000A0ED0000CC6200202DE9F04F6C4D6D4FE1
:100A7000DFF8FC91DFF8FCA1DFF8FCB16A4EDFF88B
:100A8000E8810022144683B011462846FFF7F4FCA3
:100A90002246214665482F6085F82640FFF7ECFC8A
:100AA000624B2246214648461F6083F82640FFF7E6
:100AB000E3FC224621465046C9F8007089F82640DA
:100AC000FFF7DAFC224621465846CAF800708AF839
:100AD0002640FFF7D1FC224621465548CBF800704E
:100AE0008BF82640FFF7C8FC514B52481F60224646
:100AF000214683F82640FFF7BFFC4E4B4E481F604F
:100B00002246214683F82640FFF7B6FC4A4B4B4865
:100B10001F602246214683F82640FFF7ADFC474B75
:100B200047481F602246214683F82640FFF7A4FC71
:100B3000434B44481F602246214683F82640FFF776
:100B40009BFC404B40481F602246214683F82640CC
:100B5000FFF792FC3D4B03F1280218463A4B042163
:100B60001F6083F82640FFF787FC394B03F128020A
:100B70001846364B4FF4803704211E609F61DF61B9
:100B80001F625F62FFF778FC324B03F128021846C0
:100B90002F4B04211E609F61DF611F625F62FFF7C0
:100BA0006BFC2D4B03F1280218462A4B04211E60D2
:100BB0009F61DF611F625F62FFF75EFC264B1E6074
:100BC000264B274E03F11C021846234B01219F613F
:100BD000DF611F625F62FFF74FFC2049214A1F4B14
:100BE0000A60012008F118029F612146234688F817
:100BF0000840C8F80C40C8F8006088F80900C8F838
:100C00001020444600E0226942F8231098F8092099
:100C1000154801339A42F6DC144B1A687ABB91E10D
:100C200004620020F0560100D8560100E463002061
:100C30006C630020BC6300209463002044630020A8
:100C40001C630020CC620020F46200206465002058
:100C500034640020086100206C640020A864002037
:100C6000C0540100CC560100B0620020AC690020E5
:100C70000C640020B4610020DC6100201A46536936
:100C8000002BFBD1C2F814800024AF4FAF4BB0480B
:100C9000C8F80030C8F81440A8F80440A8F8064086
:100CA00088F80A4000F02AFBAA4B7B6038464FF0D8
:100CB0000303A94E7B723C723D60FC603C7402F001
:100CC000EDFFA64AA649A74D384603F0A1FCA64B66
:100CD0003360A64B736030464FF003037372347277
:100CE000F460347402F0DAFF9C4A9D49A04F30460C
:100CF00003F08EFC974B6B6028462C72C5F8009071
:100D00006C72EC602C7402F0C9FF944A9449994EBD
:100D1000DFF8B092284603F07BFC8E4B7B603846B0
:100D20004FF001037B723C72C7F800A0FC603C747A
:100D300002F0B4FF894A8A498F4DDFF88CA2384609
:100D400003F066FC834B736030464FF0020373720E
:100D50003472C6F800B0F460347402F09FFF7F4A2A
:100D60007F49864FDFF864B2304603F051FC844B74
:100D70002B6028467D4B2C726B606C72EC602C747F
:100D800002F08CFF754A76497E4B0193284603F0AA
:100D90003FFC7D4B3B60754B7B6038464FF0020358
:100DA0007A4E7B723C72FC603C7402F077FF6B4AB7
:100DB0006B49774D384603F02BFC764B33606B4B19
:100DC000736030464FF0010373723472F460347410
:100DD00002F064FF614A62496F4F304603F018FC2D
:100DE0004FF003036B726D4B2B6028466C4B6B60AE
:100DF0002C72EC602C7402F051FF5949574A694E2D
:100E0000284603F005FC019B674A1A60644A5A6051
:100E100018464FF002021C725A72DC601C7402F019
:100E20003DFF019B4D4A4E49604D184603F0F0FBD3
:100E30005F4BCBF800305846594BCBF804308BF859
:100E400008408BF80940CBF80C408BF8104002F0BA
:100E500025FF424A4249584603F0DAFB554BCAF88F
:100E600000304F4BCAF8043050464FF001038AF867
:100E700009308AF80840CAF80C408AF8104002F09D
:100E80000DFF364A3649504603F0C2FB4FF00103CE
:100E900089F80930354BC9F800304846464BC9F847
:100EA000043089F80840C9F80C4089F8104002F075
:100EB000F5FE2B49294A484603F0AAFB3F484FF06C
:100EC00002024272234A02603B4A42600472C460DA
:100ED000047402F0E3FE214A2149384803F098FBEC
:100EE0002F4B3B603846344B7B603C727C72FC601D
:100EF0003C7402F0D3FE194A1949384603F088FBC6
:100F00002D4B336030462E4B736034727472F46034
:100F1000347402F0C3FE114A1149304603F078FBE5
:100F2000274B2C72284685E808016C72EC602C7403
:100F300002F0B4FE094A0A49284603B0BDE8F04F62
:100F400003F066BB18609FE638620020E45601009B
:100F5000B0620020346400204C620020FC55002068
:100F60006D04000060620020E463002064650020DE
:100F700074620020886200209C620020C864002007
:100F80006C63002028650020BC630020DC64002026
:100F9000F0640020946300208061002044630020FE
:100FA000086100209C6500201C63002098610020DF
:100FB000CC620020F46200206C6400206C61002090
:100FC000A864002058610020506500203C65002086
:100FD00010B5044602F092FF204610BD024A0349B4
:100FE000034803F015BB00BFFC550020D10F0000E3
:100FF000B065002038B5074D074C08482A46214601
:1010000003F006FB2A4621460548BDE8384003F0B8
:10101000FFBA00BFFC550020D10F0000B8650020CA
:10102000C0650020024A0349034803F0F1BA00BF3B
:10103000FC550020D10F0000C8650020024A03497A
:10104000034803F0E5BA00BFFC550020D10F0000B3
:10105000D0650020024A0349034803F0D9BA00BF13
:10106000FC550020D10F0000D8650020024A03493A
:10107000034803F0CDBA00BFFC550020D10F00009B
:10108000E0650020024A0349034803F0C1BA00BFEB
:10109000FC550020D10F0000E8650020024A0349FA
:1010A000034803F0B5BA00BFFC550020D10F000083
:1010B000F06500202DE9F8434FF00008064600F1E6
:1010C0001805474641463046002F4FD002F0B8FD84
:1010D000F0B12C68B4F5803F07F1040100F1040E73
:1010E00007F5827C27D05EF8042B34FB02F334FB37
:1010F00012F903F30F0209F30F03C2EA03430A686C
:1011000093FA12F341F8043B8C45ECD802F054FDFD
:1011100008F10108B8F1040F05F10405D2D1002F40
:1011200040D030463946002202F070FD3846BDE816
:10113000F84302F041BD07F10C0100F10C0451F835
:10114000083C54F8082C93FA12F341F8083C54F880
:10115000042C51F8043C93FA12F38C4541F8043CFA
:1011600004F1080401F10801E9D8CFE702F074FDA9
:1011700007460028CCD02868B0F5803FC8D0391D7C
:1011800007F582740B6830FB03F230FB13F302F3B4
:101190000F0203F30F03C2EA034341F8043B8C42FE
:1011A000F0D8B5E7BDE8F88370B584692CB3B4F521
:1011B000803F06464FF0000125D002F04DFD054668
:1011C00000B3011D00F582700B6834FB03F234FBA1
:1011D00013F302F30F0203F30F03C2EA034341F8D0
:1011E000043B8842F0D830460022294602F00EFD2A
:1011F0002846BDE8704002F0DFBC214602F020FD29
:101200000028F6D170BD02F01BFD04460028F9D07D
:1012100030462146002202F0F9FC2046BDE870402D
:1012200002F0CABC024A0349034803F0F1B900BF07
:10123000FC550020D10F0000F865002010B50021FA
:1012400002F0FEFC70B172B60A4B1A6872B10A491C
:101250000C6844B11C60086062B61046BDE81040DE
:1012600002F0AABC10BD086062B610BD186062B67C
:1012700010BD00BF106600200066002038B5184B76
:1012800018491A68184C12681B79184D0B70A24245
:10129000286836BF2246A4F5807202F58074C0B17A
:1012A000011D31F9023B03F500431B1122F8023BFB
:1012B0009442F6D802F080FC0D4B00221968296098
:1012C0001A600C4B1B781BB10B4B4FF080421A601D
:1012D00038BD4FF4006322F8023B9442FBD8F0E79C
:1012E000046600201F800040204E00201066002071
:1012F000006600200C66002008E200E0F8B501213D
:101300004248434E02F096FD424A4349136880200A
:1013100043F4805313600024087040F608053480BD
:101320000120083401F016FCA3B2AB421CB2F6D186
:101330003A4B1B685B0208D5394B1A6848F6A27312
:10134000134048F6A27293424FD03449344A0B6896
:10135000344F354D3548364C43F480030B604FF025
:10136000010E40F23F4648F6A37140F20113C7F860
:1013700000E02E60116014600360244C2D4A236845
:1013800023491A6002259D802279196102F1804269
:1013900002F50432284EDE6040F20111D9804FF48C
:1013A000807000210627B026D8829D60D88399825C
:1013B0009F8399611170167002F0E2FC22791F4B35
:1013C0001F4E187053119B0003F160431D4C327087
:1013D00003F5614302F1100002F01F0701211A4DCD
:1013E00044F82050B9401960F8BD0F4B1A6840F21C
:1013F0003F439A42A9D10B4B1B68012BA5D10B4B44
:101400001A6840F201139A429FD1B6E704660020A1
:1014100000C00C402C80044021C00C403C800440A3
:10142000006003400C600340046003401060034010
:10143000A28F0100204D002000FEFFFF0C6600205F
:101440001B800040005000207D120000024A03492A
:10145000034803F0DDB800BFFC550020D10F0000A9
:1014600004660020024A0349034803F0D1B800BFD4
:10147000FC550020D10F000014660020024A0349E9
:10148000034803F0C5B800BFFC550020D10F000091
:101490001C660020024A0349034803F0B9B800BFA4
:1014A000FC550020D10F000024660020024A0349A9
:1014B000034803F0ADB800BFFC550020D10F000079
:1014C0002C660020024A0349034803F0A1B800BF7C
:1014D000FC550020D10F000034660020024A034969
:1014E000034803F095B800BFFC550020D10F000061
:1014F0003C66002090F8263003B970472DE9F04F84
:1015000083B0064602F004FB8346B0B196F826008D
:10151000B369B6F92420C0B2032874D010D9822848
:1015200000F03E81832800F00481812859D058467C
:1015300002F042FB002386F8263003B0BDE8F08FAE
:10154000012800F0D3800228F1D1A34917460BF1FE
:10155000140003F1400453F8042BD5B2C2F3072C56
:1015600031F9155031F91CC020F80E5CC2F3074E5A
:10157000120E31F91EE031F9122020F80ACC2F4466
:1015800065447F106D1020F8107C20F80C5C0CEB8B
:101590000E0702EB0E057F106D10A34220F8087CA9
:1015A00020F806EC20F8045C20F8022C174600F125
:1015B0001000D0D14021336AB2848B428CBF5B1AB9
:1015C00000233046B4618CBF336286F82630002297
:1015D000594602F01BFB584603B0BDE8F04F02F03D
:1015E000EBBA0BF1080003F5807453F8041B20F8E4
:1015F000041CA3424FEA114120F8021C00F1040030
:10160000F3D18021D7E77449009094460BF124056B
:1016100003F12004CDF804B053F8042B5FFA82FEE6
:10162000C2F3072731F91EE031F9177025F81AECDB
:101630000EEB4E0AC2F307400CEB0A0BBA4431F929
:10164000100025F8127C07EB47094FEAAA0A25F893
:1016500018AC120E0EEB090A00EB40084FEAAB0B78
:101660004FEAAA0A31F9122025F81CBC814425F85A
:1016700014ACDDF800B025F80A0C07EB080A4FEAB5
:10168000A9094FEAAA0A25F8109C25F80CAC1CFB06
:101690000BE900EB020AF4449044BE44074412FBF9
:1016A0000B004FEA6C0C4FEAA8084FEAA9094FEA71
:1016B0006E0E7F104FEA6A0A8010A34225F81ECCF6
:1016C00025F8022C25F8088C25F8209C25F816EC26
:1016D00025F80E7C25F806AC25F8040C944605F197
:1016E000200599D1DDF804B0202164E73A490BF1D7
:1016F0000C0503F1800453F8040B5FFA80FCC0F37F
:10170000072EC0F30747000E31F81CC031F81EE069
:1017100031F8177031F8100025F808CCA34225F8ED
:1017200006EC25F8047C25F8020C05F10805E2D149
:1017300067E715460BF1140003F140044FF0030E68
:1017400053F8042B11B201EB410705EB0708121403
:101750004FEAA80815FB0E1C20F80A1C0D4420F8BF
:101760000C8C174401EB020812FB0E116D10BF1018
:101770004FEAAC0C4FEA68088910A34220F80E5CCF
:1017800020F8022C20F8087C20F810CC20F8068CD9
:1017900020F8041C154600F11000D1D120210AE7E1
:1017A00010460BF10C0103F1800453F8042B17B21F
:1017B00012143844D51940106D10A34221F8080CBA
:1017C00021F8067C21F8045C21F8022C104601F176
:1017D0000801EAD1EEE600BFC4540100002280F8FF
:1017E00026200B688284043123F07F421B0E816126
:1017F000C161026280F82630704700BF10B4047FD8
:101800004160022CC26002D010BC02F091BB836820
:1018100010BC1847F0B4464B464A186BDC6A017995
:101820001170454922790A709A6A00790870002A75
:1018300046D05968C9688A423ED82168CC8B2404B6
:1018400002F1FF3065D4C0F30E00C883C88B80B2AC
:10185000C882196B0968C88B000452D4C2F30E0009
:10186000C883C88B002480B212F1FF32C88218BF2F
:1018700001229C62D96A2E4809680D6800F124048F
:10188000A54236D00068C46814F0804F0C680D681B
:1018900015BF248824780235013544F000440D60DA
:1018A0004463196B254B09791970214912B1CA6A31
:1018B00012791A70F0BC7047521A9A620122D9E765
:1018C000586B196805681E4C0A63CC62CC682D6899
:1018D0001C4E24F080440327B542CC6083F8257069
:1018E0001FD1037F4260022BC2601ED0F0BC02F009
:1018F0001FBB016890F82400CC6840F000404863AA
:10190000CFE7CC8BC2F3080004F47E442043C883A5
:10191000A7E7CC8BC0F3080004F47E442043C883BF
:1019200094E72B461146F0BC18478368F0BC184773
:10193000005600201F8000401C8000401B8000409B
:1019400000000FFFFD17000000207047704700BF28
:10195000064B074ADA620221002259609A7083F826
:10196000242083F8302083F832207047446600201A
:101970007457010010B50121007801F0D1F80E4A2A
:10198000137893B10D49CB7A00241846147063B1D3
:10199000DC0703D50A4A8869106018469A0705D4FF
:1019A000430702D5074B0A6A1A6010BD064BCA6985
:1019B000C87A1A60F4E700BF9C6600200056002039
:1019C00000E100E008E100E004E100E01E4B1A78CD
:1019D0001AB10078002101F0A3B870B41B4A1C4969
:1019E000D47A096801251D70ECB172B6D37ADE078E
:1019F0001C4606D5174DD4682E68344094612C607F
:101A00001C469D0706D5144D13692E68D47A3340C1
:101A1000D3612B60630705D5104C536925682B40B3
:101A20001362236062B61368DA688A4207D00C4CEE
:101A30001C600C4AD96041F080441C611A60007837
:101A4000002170BC01F06CB89C660020005600209C
:101A50009866002080E100E084E100E088E100E099
:101A600001403F0000003F80F0B41248124A036872
:101A700082B016460093009F4FF00045FF24136884
:101A800043F480631360D5625463D36A002BFCDA9D
:101A9000B36BDBB2FF2B09D003680193019BDB1B07
:101AA0008B42ECD3002002B0F0BC7047012002B0A2
:101AB000F0BC7047B068002000C00240F8B50D4689
:101AC0004FF4967116460446FFF7CEFF284B1A686E
:101AD0004FF0004042F4806245F040011A60D86245
:101AE0001A465963D36A002BFCDA214918204FF0BB
:101AF00000470A6826FA00F342F48062DBB20A600B
:101B0000CF624B63CB6A002BFCDA083810F1080F68
:101B1000EFD155B3082D0CBF8721FF21144B1A6854
:101B20004FF0004042F480621A60D8621A4659634E
:101B3000D36A002BFCDA0E4A002716464FF0004508
:101B4000FF21136843F480631360D5625163D36A45
:101B5000002BFCDAB36BD8B21B06607000D4F8BD62
:101B60000137B7F5807FECD1F8BD9521D6E700BFEE
:101B700000C00240F0B41549154A0B6882B0164601
:101B80000093009F4FF00045FF24136843F48063E7
:101B90001360D5625463D36A002BFCDAB36BDBB2FB
:101BA000FF2B43700AD10B680193019BDB1BB3F53C
:101BB000967FEAD9002002B0F0BC7047A3F1FE0086
:101BC000B0FA80F0400902B0F0BC7047B068002065
:101BD00000C00240F8B58378032B0E46044618BFB8
:101BE0004E021546FFF7F2FE324611212046FFF75E
:101BF00065FF18B92046FFF7BDFF20B92046FFF763
:101C0000B9FE0020F8BD204B2049214A1A608E46BB
:101C100059631A4659631E46596305F5FD70A91CA0
:101C200005F5FE77D36A13F0F00FFBD0C6F834E069
:101C3000B36B01F8013C1B1201F8023C02318F42E8
:101C4000F0D105F50075A8420DD20F4A1646D36AA9
:101C500013F0F00FFBD0B36B191200F8021BA8426F
:101C600000F8013CF3D3084B0949084A19601946AA
:101C70005A63CB6A044A13F0F00FFAD02046936BF4
:101C8000FFF778FE0120F8BD00C00240FFFF009082
:101C900000041F80F0B4314E33684FF0004743F426
:101CA000806333603D46F762344671633346511CAE
:101CB00002F20127E26A002AFCDA1A6811F8016CC4
:101CC00042F480621A60DD625E63E26A002AFCDA36
:101CD0001A6811F8026B42F480628F421A60DD626A
:101CE0005E63E7D11D49CA6A1C4B002AFBDA1A68F9
:101CF0004FF0004542F48062FF241A601946DD620D
:101D00005C63CB6A154A002BFBDA13684FF0004581
:101D100043F48063FF2413601146D5625463CB6A99
:101D20000E4A002BFBDA13684FF0004543F4806342
:101D3000FF2413601146D5625463CB6A074A002B17
:101D4000FBDA936BDBB203F01F024370A2F10500D4
:101D5000B0FA80F04009F0BC704700BF00C00240FC
:101D600070B5044671B18378032B0D4618BF4D0240
:101D70001646FFF72BFE2A4618212046FFF79EFE47
:101D8000054620B12046FFF7F5FD002070BD324624
:101D9000FE212046FFF77EFF0028F3D04FF4167196
:101DA0002046FFF761FE0028ECD02A460D21204690
:101DB000FFF784FE0028E5D10B4B1A684FF0004571
:101DC00042F48062FF201A601946DD625863CB6AD4
:101DD000054A002BFBDA936B13F0FF0FD2D120469C
:101DE000FFF7C8FD012070BD00C00240014B024A50
:101DF0001A607047986600200110013838B590F9D4
:101E00000530002B03DBBDE8384000F06DB9044617
:101E10000121006900F092F9F8B1257D104B13EB18
:101E200045151AD0A3790F4A012B9CBFA369EB611A
:101E3000E36912686B831B0CAB8232B105F11601AA
:101E400005F1180090472B8B6B82637903F07F03B9
:101E50006371BDE8384000F047B9002038BD00BFCD
:101E6000AC660020A066002010B500F10802044610
:101E70000121006A00F000FA50B1E3693BB96379CF
:101E8000A268E26163F07F036371012010BD01204D
:101E900010BD00BFF8B5837913B182698A4201D2BF
:101EA0000020F8BD022B0F4605461AD007B32B6A57
:101EB000E9681C7C4A1E04F109037C1EDA40DC4000
:101EC000A24211D9EB69AB6005F1080606E0A968EA
:101ED000286A00F099F9013C0028E1D03246002C34
:101EE000F5D1EF600120F8BD0029EBD0A41AEBE793
:101EF000AF60EF600120F8BD2DE9F04F8B4681798E
:101F000085B001290746019205D001233B710020CD
:101F100005B0BDE8F08F42799107F6D5530708D593
:101F2000FC68B9698C4200F0A880FFF7B3FF002875
:101F3000EBD0019BFC68002B49D0DFF88C91DFF8D7
:101F40008CA1DDF80480386A0679013E06EA542641
:101F500016F0FF06C4F3080442D1002C40D1B96842
:101F600000296FD1FA69002A7ED0BA60C4F50075E5
:101F7000ADB245453AD9057C4169023AAA400E44C2
:101F800016441FFA88F51CB9F868BA6990424CD219
:101F90003046012100F0D2F80028B6D04C4404EBC2
:101FA000050E74450DD00BF1FF31621E0EF1FF36A8
:101FB00011F8010F02F8010F9642F9D1C4EB0E049B
:101FC000A344FC68B8EB05082C44FC60BBD1BB699A
:101FD000A34257D27A79BC6142F080027A715AE00A
:101FE000C4F50075ADB24545BA68C4D8017C4069F6
:101FF000023A8A400644B5F5007F1644C3D1DAF8A8
:102000000020964204BF4FF0FF32CAF800202A4A4F
:10201000314610685A46FFF7A3FE00283FF475AF1B
:102020000BF5007B4FF40075CBE700F05DF800285E
:102030003FF46BAF2149CAF800600A7842F0010210
:102040000A70ABE703AA00F0DFF800283FF460AFA6
:10205000386A1B4B90F82050039A4FF6F871102DF8
:1020600018BF19468A4280D33846FFF7FDFE002884
:102070003FF44BAF386ABA6878E7019B002B7FF4D6
:102080005CAF08E00F4B7A791B6823B1019B13B159
:1020900042F080027A71120709D5BB79002B3FF418
:1020A00034AF3846FFF7AAFE00283FF42EAF019860
:1020B00005B0BDE8F08F00BFA8660020AC68002026
:1020C000F8FFFF0FA0660020AC6600203856002005
:1020D00000B583B002AB012203F8011D1946FFF7DA
:1020E0000BFF03B05DF804FB70B50F4C23780BB900
:1020F000012070BD0D4B0E4D196828680D4AFFF781
:102100002FFE70B10C4E316819B9002323700120E5
:1021100070BD2868074AFFF723FE10B10023336023
:10212000F3E7002070BD00BFAC68002038560020E7
:10213000A8660020AC660020A466002070B50D4D96
:102140002B6883420E460ED00446FFF7CDFF08B938
:10215000002070BD084B094A18682146FFF73AFD78
:102160000028F5D02C60064B1978314319700120F6
:1021700070BD00BF38560020A8660020AC66002065
:10218000AC680020F8B590F82030C469102B1A4BC9
:1021900005460E4617461B6816D004EBD1149C4228
:1021A00016D106F07F06154A42F826701449287E9B
:1021B0000A78012842F001020A7018D9A968114A68
:1021C0000B4413600120F8BD04EB11249C4208D09D
:1021D00000212046FFF7B2FF50B195F82030102BB8
:1021E00007D1F6B2054A234622F81670DEE7012031
:1021F000F8BD2346D5E700BF38560020AC66002066
:10220000AC680020A4660020C36801338B4218D359
:1022100070B590F82030102B154B044616460D462D
:10222000C0691B680FD000EBD11098420FD105F0A8
:102230007F01104B53F8213023F0704333600120AD
:1022400070BD0020704700EB1120984207D000219C
:10225000FFF774FF50B194F82030102BE7D1E9B2AA
:10226000044B33F811303360012070BD002070BD85
:1022700038560020AC6600202DE9F04F176883B077
:102280006FB301374FF0000AC36803F1010813B3BD
:102290008B46064691463C46002505E01C461F46F7
:1022A000F3680135AB4216D9A04538BF0224214658
:1022B00001AA304638BF2746FFF7A6FF631CD91B8B
:1022C00048B1019A002AE9D18B4510D01C46F36829
:1022D0000135AB42E8D8002003B0BDE8F08FA1F192
:1022E000010ABAFA8AFA07684FEA5A1ACCE7012CAF
:1022F000F1D9F36801339C42EDD86FF0704221466A
:102300003046FFF73FFF0028E5D0A74214D2013C3A
:10231000012CE0D9F36801339C42DCD8621C2146D1
:102320003046FFF72FFF0028D5D0A74204F1FF3435
:1023300002D0012CEED1CEE7D9F8001059B1012915
:10234000C9D9F36801339942C5D83A463046FFF7F8
:1023500019FF0028BFD0C9F80070BAF1000F01D0F2
:10236000013737600120B7E790F8392090F838003E
:10237000101A704790F8383090F839209A4205D9F1
:102380005A1C034480F83820187E70474FF0FF3005
:10239000704700BF90F8383090F839209A4286BFD5
:1023A0001B18187E4FF0FF30704700BF704700BF0A
:1023B00038B50546B0F85E0090B195F85D3014462A
:1023C000C3F1210294420CD805F13B001844224687
:1023D00000F0FCF895F85D30234485F85D30204628
:1023E00038BD012014462871EEE700BFB0F85E301A
:1023F0006BB190F85D30202B07D8C218013380F8FC
:102400005D30012082F83B107047012303710020EA
:10241000704700BF10B50269D378DBB2D906044615
:102420003DD510215806D17038D503F0040303F0D0
:10243000FF02002B51D03D49626E00230B7084F8DF
:102440005D30002A5BD0904794F85D30002B56D069
:102450002369D0229A70236994F83B201A7123696A
:10246000012284F85C200222DA7010BD304B84F81F
:1024700060009C424AD02F4B9C4252D094F83910B5
:1024800013791F29DBB207D82848007820B16018DB
:10249000013184F8391003760223D37010BD590638
:1024A000C3D4917801F0100101F0FF000029DDD0C4
:1024B00013F001031ED194F85C1094F85D0088427B
:1024C00081BF4B1C091984F85C3091F83B301371C3
:1024D0002369D0229A702269DEE7236984F83920C3
:1024E000C0229A702369114A1979012111700222C0
:1024F000DA7010BDC023937022691379CCE70122F2
:10250000002384F85D2084F83B30A1E7626994F8E9
:102510006130094913440322187A00F02FFA226926
:10252000ACE7626994F861300449F3E7AD680020D4
:102530003C560020A85600209D250000A92500003B
:102540000369DB7803F0200373B190F86030013346
:10255000DBB2012B80F860301AD9426990F8613003
:102560001344187A00F086BA70B5426903F0FF058B
:1025700090F8613013440446187A00F07BFAA36E99
:102580005BB184F8385094F83900BDE870401847C2
:1025900090F85F30002BE0D0704770BD0148FFF726
:1025A000CFBF00BF3C5600200148FFF7C9BF00BFA6
:1025B000A85600200148FFF72DBF00BF3C56002061
:1025C0000148FFF727BF00BFA8560020844641EA14
:1025D000000313F003036DD1403A41D351F8043B9B
:1025E00040F8043B51F8043B40F8043B51F8043BED
:1025F00040F8043B51F8043B40F8043B51F8043BDD
:1026000040F8043B51F8043B40F8043B51F8043BCC
:1026100040F8043B51F8043B40F8043B51F8043BBC
:1026200040F8043B51F8043B40F8043B51F8043BAC
:1026300040F8043B51F8043B40F8043B51F8043B9C
:1026400040F8043B51F8043B40F8043B51F8043B8C
:1026500040F8043B51F8043B40F8043B403ABDD2FB
:10266000303211D351F8043B40F8043B51F8043B9D
:1026700040F8043B51F8043B40F8043B51F8043B5C
:1026800040F8043B103AEDD20C3205D351F8043B2C
:1026900040F8043B043AF9D2043208D0D2071CBFF8
:1026A00011F8013B00F8013B01D30B880380604621
:1026B000704700BF082A13D38B078DD010F0030397
:1026C0008AD0C3F10403D21ADB071CBF11F8013B07
:1026D00000F8013B80D331F8023B20F8023B7BE756
:1026E000043AD9D3013A11F8013B00F8013BF9D281
:1026F0000B7803704B7843708B788370604670471B
:1027000030B42948294A2A4B2A4D6024E12104701B
:1027100011701B78284C082B30D00A2B27482849E9
:1027200037D00C2B0CBF35223D2212232A602360A8
:1027300002600B60234B24491B78244ABBB1012360
:102740000B601360224B23491B78234A012B26D9A7
:10275000042B0FD9082B1ED9102B94BF8623872357
:102760000B6013601D4B01221A7030BC70470B6068
:102770001360E7E784230B601360F3E700F58E2016
:102780000F490830012213232A60236002600B6086
:10279000D0E73922F7E785230B601360E2E7802357
:1027A0000B601360DEE700BF0040074001400740B8
:1027B0001457002008B003400CB0034008B00B4091
:1027C0000CB00B40AF68002020B0034020B00B409D
:1027D0001557002024B0034024B00B40AE68002001
:1027E00068B10E4A1378C3B90D49097801201070F9
:1027F00019B10C490C4A0B601360FFF781BF074BFE
:102800001A7852B1064A18701378002BF5D0054A91
:10281000054B10601860FFF773BF7047AF6800206A
:10282000AE68002024B0034024B00B4008B5104C23
:1028300008E0236859050DD423681A050FD42368CE
:10284000DB0411D423685803F3D500F0E7FA2368BA
:102850005905F1D501F0FCFC23681A05EFD501F00C
:102860008DFD2368DB04EDD501F01EFEEAE700BF15
:102870003480044008B5FFF7D9FF00BF014B102298
:102880001A80704700200540704700BF094908B50D
:102890000B6830B16A461844A2F58052904202D2C9
:1028A0000860184608BD01F0BFFE0C2303604FF01E
:1028B000FF3008BD18570020FEE700BF704700BF7B
:1028C00010B40F4B53F8302092F880422CB1012302
:1028D00069B182F8803010BC704703EBC0035B68BD
:1028E0001A6841B922F002021A6010BC704782F8DF
:1028F000003110BC704742F003021A6010BC7047F0
:10290000E85701001C4A02EBC00301295B6811D0A3
:1029100004291BD052F83000002280F8802229B10F
:10292000022920D0032922D01A6070474FF4807208
:102930001A60704752F830004FF4A27280F880128B
:102940001A601A6822F020021A60704752F830109C
:102950004FF4A272012081F880021A601A6842F0D6
:1029600020021A60704740F203121A6070474FF459
:1029700081721A60704700BFE8570100212848D8CB
:10298000F8B5042A44D8DFE802F0484B4E0345006E
:102990004FF410262B4B03EBC0030D465C682168F7
:1029A00011F4E06148D0284B284A2949C3F89C21FA
:1029B00004F140422748C3F8A411A2F59221264F02
:1029C000C3F8A0017C292548C3F8A871C3F8AC015D
:1029D0002CD9A2F594237C2B2AD9A2F596237C2B03
:1029E00028D9A2F598237C2B29D9A2F59A227C2AF2
:1029F00027D81B4872B6236823F4702343F08072F3
:102A0000C4F384011643236040F82150266062B667
:102A1000F8BD70474FF43026BCE74FF40026B9E705
:102A20004FF44026B6E74FF42026B3E70D48E1E720
:102A30000D48DFE70D48DDE7FFF764FFB3E70C481B
:102A4000D8E7F8BDE857010000500020D15500201C
:102A500079550020A55500204D5500202155002016
:102A6000F45700201C57002054570020A457002082
:102A7000D45700201A4B03EBC00010B4426802F197
:102A80004043A3F592217C2923D9A3F594217C29E5
:102A90000DD9A3F596217C291FD9A3F598217C296E
:102AA00019D9A3F59A237C2B11D80E4C00E00E4CBB
:102AB00072B613680D4823F08773C2F3840123F4C0
:102AC000803343F08073136044F8210062B610BC79
:102AD0007047074CECE7074CEAE7074CE8E700BF14
:102AE000E8570100F457002054570020BD2800008B
:102AF0001C570020D4570020A457002030B4054BA9
:102B0000054D064C002210211A602A6020601960D1
:102B100030BC704714D0034004D0034000D00340C1
:102B2000212801D8FFF7CCBE704700BF212806D866
:102B3000044B53F8303093F80002C0B270470020C5
:102B4000704700BFE8570100212801D8FFF7DABE1F
:102B5000704700BF2DE9F843054672B6204F214B60
:102B6000214A1B683C68126862B6520102D5322BBA
:102B700088BF013495B3C3F5BB331C4EDFF86490B6
:102B8000DFF86480FF334FF47A72A6FB031302FB75
:102B900004F404EB931472B6D9F800103A68D8F82C
:102BA00000E062B6C1F5BB33FF33A6FB03031EF0A2
:102BB000806FC4EB93134FF47A7002D0322988BF30
:102BC000013200FB0233B3F57A7F04D3013D05D017
:102BD00004F57A74DFE701F0B7FADCE7BDE8F883C3
:102BE000B068002018E000E004ED00E0ABAAAAAA5B
:102BF000F8B52D4B2D49DFF8D0E0DFF8D0C02C4ED2
:102C00002C4D2D4C2D4A2E4F4FF4000018604FF0E4
:102C1000807018604FF0007018604FF0806018608E
:102C20004FF0006018600020086028234BF6FF7109
:102C3000CCF80010CEF80030336013602B602360B6
:102C40003B60B3629362092245F8242CC4F8D80F84
:102C500005F57F65C7F8D41F07F5FF2707F5FA6765
:102C6000C6F8F83F2B6006F5FF26C4F8D42F05F50B
:102C7000FD2504F5FF24386006F2F4761148316032
:102C800005F5FF6504F5FD642B6023600260FFF726
:102C900037FD1920FFF75EFF00F026FE40F213100B
:102CA000BDE8F840FFF756BF08E100E004800340AC
:102CB00014800340248003402C8003401C80034088
:102CC0003480034000800B400C80034008800340A8
:102CD00030B472B62B4A13781D0706D52A4B196AF1
:102CE000002936D0996A002941D053781C0706D5AF
:102CF000254B196C00293ED0996C002939D0937866
:102D0000190705D5204B196E002936D0996E89B167
:102D1000D3781B0707D51C4BD3F880207AB3D3F8A0
:102D2000882011213AB162B6184B00221A7030BCCB
:102D300000F066BE0D21154C154D227843F8315038
:102D400003EBC1030830013A5860227062B630BC10
:102D5000704704220D4C0F4D217843F8325003EB9D
:102D6000C20308304A1E5860227062B6EFE70521A0
:102D7000E1E70921DFE70822ECE70C22EAE710226D
:102D8000E8E700BFF85801000080FF1F89690020B4
:102D9000C800400088004000431E032B1DD81B4A7A
:102DA000400140F0100030B4104472B6184CE25CA0
:102DB000032A1BD8DFE802F00212151703220D8840
:102DC000E25410F0080F14BFC823882343EA0543D8
:102DD00008310360416062B630BC7047083002229F
:102DE000EDE70522EBE708300422E8E7094A52F84C
:102DF000230038B1084A52F82300416042F82310FA
:102E000062B6E9E742F82310034AF7E70080FF1FA4
:102E10009869002060690020706900202DE9F04F5A
:102E2000DFF818B3DFF818A387B044E0AE4F4FEADD
:102E3000930807EBC809013ED9F8042003F0080302
:102E4000F6B2A2F1080003F0FF04002B40F0048169
:102E500057F838301B0C99B222F8081C002B00F0F0
:102E6000F280A24B22F8064C42F8044C53F826207C
:102E7000002A00F06E819E4D55F8263058609D4C1A
:102E800045F8260034F81630194424F8161000F0DE
:102E900097FD002800F05681974A984B19F0080FCB
:102EA00000F1080018BF1346C9F8040047F838308D
:102EB00008238BF800309BF80040E4B261071BD573
:102EC0008F4B1B78ABB18F490A7802F0FF032AB110
:102ED000013BDBB20B70002B00F0EF848A490A78CB
:102EE00002F0FF032AB1013BDBB20B70002B00F0B4
:102EF000F78004238BF8003004F0080303F0FF028E
:102F0000002B00F0D6809AF80030DBB21E098DD17C
:102F10009C08DFF8D49159F8342009EBC401C2F3BE
:102F20008302013A49680C2A7ED8DFE802F08181E9
:102F30007D7D7D7D7D7D477D7D7D07000868734DAE
:102F40004A68734F734E286081B240F281606A4BC9
:102F50006A604FF0010E0022814249F834303A6035
:102F6000C9F81020C9F8182086F800E05E4C00F27D
:102F7000F480B1F5D06F80F07883B1F5817F00F0F7
:102F8000628300F28782802900F0EC82822940F07F
:102F90001E83A98801F07F01042900F218835E488E
:102FA0005E4C89000844227062700278930740F1F9
:102FB000798384F800E04FF0020ED8E2544F3A686B
:102FC00042B3574B534E5749188834780D784028F0
:102FD000864645F0020828BF4FF0400E002C84F0D2
:102FE00001043470CEEB00000CBF8824C82409EB28
:102FF000C80680B285F0010544EA0E44726018806C
:1030000049F8384072440D7018B9BEF1400F18BF2E
:1030100000223A603D4B1A88B2F5A06F04D100211E
:103020009A785970404B1A70404A012313703FE759
:10303000364A158842F22100854200F0FF812E4A6F
:1030400049F83420F0E72C4A2C4B19F0080F18BF30
:10305000134647F838302BE700F0D2FC344A3549A4
:1030600052F82630002B00F0B68158688C5D42F88B
:10307000260003F10802C9F80420032C05D8DFE874
:1030800004F0120F150204228A551A8819F0080F4D
:103090000CBF8823C82343EA024347F8383007E7C8
:1030A00002228A55F1E703228A55EEE705228A5566
:1030B000EBE7E00700F11A82210600F14982A2073E
:1030C00006D51D4A1D4913780220DBB21370087023
:1030D000E30602D5194B10221A7007B0BDE8F08F35
:1030E00000F0C2FC05E700BF0080FF1F0C69002054
:1030F000B8680020C06B0020C80040008800400075
:10310000946900201D6900209C69002080690020CE
:10311000B46800201C690020C02007408C69002092
:10312000C868002088690020982007409420074044
:1031300060690020986900208820074080200740AF
:1031400090200740AB4A47F83800137801331370DA
:10315000AEE643F82600A84D91E642F221008142F6
:1031600000F0358100F2AF81B1F5086F00F01B82ED
:10317000B1F5106F40F02B82226AA049A878087040
:10318000120600F14583D9F828209D49130600F165
:103190003A83D9F830209A49150600F12F83D9F8DF
:1031A00038209749140600F12483D9F84020944927
:1031B000100600F11983D9F848209149120600F150
:1031C0000E83D9F850208E49130600F10383D9F8F5
:1031D00058208B49150600F1F882D9F860208849FB
:1031E000140600F12983D9F868208549100600F1FA
:1031F0001E83D9F870208249120600F11383D9F892
:1032000078207F49130600F10883D9F880207C4993
:10321000150600F11C83D9F888207949140600F1BD
:103220001083D9F890207649100600F1C882D9F8A9
:1032300098207349120600F1BC827248724A7349A1
:10324000019073486C4D734C0497002305960295CA
:10325000804617460E461D460394386828B14468D8
:1032600000F0CEFB2046002CF9D100233B60029BEE
:1032700030681A46002342F8253028B1446800F02F
:10328000BFFB2046002CF9D100223260019A98F849
:1032900000301146002241F8042B039A0191023BB1
:1032A0004FF0000122F81510032B09D8DFE813F0C6
:1032B0004B0104004B0104004FF0010388F800307B
:1032C0000135042D07F1040706F1040608F1010891
:1032D000C3D1514C514B2278464D049F059E00218D
:1032E00029701A70130700F14F8262784C49DFF899
:1032F00010810A7010074FF00001C9F83010C9F8AA
:10330000381000F12B824749A2780A700021C9F8D1
:103310005010C9F858101107DFF8E48000F1DC8183
:10332000E2784149364C0A7000211207C9F8701042
:10333000C9F8781000F1B98133780193002183F046
:103340000102C9F89010C9F8981000200290804638
:103350008446044635490D7845F0020E09EBCE034C
:103360000393019B002B039B5C600CBF8824C82443
:1033700044EA080385F0010449F83E3032700C70CD
:10338000DFF87CE02A4BDFF8A480002840F026819B
:10339000BCF1400F1BD144F0020C09EBCC03029CA2
:1033A000DFF85CE05C60002A40F02E81020442F00D
:1033B00088029DF804304EF83C20044433700D70B0
:1033C0002346402803D100201A4A3B6010801A4A45
:1033D0000123137028E68B5D032B00F22D8101A2DF
:1033E00052F823F0B12E0000B12E00003B35000052
:1033F0004135000089690020B868002094690020E8
:103400000080FF1F706900200C69002060690020A7
:1034100098690020C06B0020F8580100C4200740C4
:10342000C8200740CC200740D020074088690020F2
:103430001C690020C868002094200740928892B937
:10344000B14A0D784878157050708D78C8789570AD
:10345000D07010680D79157186284D79897955716C
:10346000917100F0A580A949A94E0A78307882F0C0
:103470000105002842F002020D700CBF8821C8210E
:1034800049F8321009EBC20280F0010000213070CF
:103490005160D4E540F20232914240F08D80A9881B
:1034A00001F07F01042900F292806A88002A40F02E
:1034B0008E809848CDF804E089000844017841F0F6
:1034C0000201017041E742F2212081427BD1A988AB
:1034D000002940F0E480904B904A9148AC781D68F8
:1034E0001560CDF804E00A4604702EE78D4B8E4837
:1034F00086491A614FF0020E80F800E0854F0A708D
:103500008A49196099608A4E8A4D8B4C9A610D21C7
:103510003970FF213170DFF840E229702270874D49
:10352000874A8EF800109F27012406F8047C5D600E
:103530000470DA6007B0BDE8F08F00238B55B7E464
:1035400001238B55B4E44FF0000388F80030B7E650
:103550007049784B80220D2008701A70A2077FF501
:10356000B7ADAEE5774C4FF0020E22706270EA887C
:10357000724580F0A38165490D78402A944645F054
:10358000020E28BF4FF0400C04EB0C0309EBCE00F9
:103590000293012344604FEA0C48CCEB02000193F4
:1035A0000022C824E4E6684A664C12782270DEE7FE
:1035B000664A0F21117056E7B1F5A06F07D10123BC
:1035C00000220193C1E642F221329142F7D0514AE2
:1035D0000F231370544A0123137025E540287FF60A
:1035E000DAAE44F002040EEBC401029E4E60BAB1A2
:1035F0009DF80410564A19703346403888F8005038
:1036000040334EF83420DFE69DF804303370020476
:10361000029B0D7042F0C80203444EF83C20D0E6F5
:103620009DF804101970029B404A88F800504038F9
:1036300040334EF83420C7E619F0080F0CBF0223C0
:1036400003238B5534E4A98801F07F010429BED8F7
:103650006A88002ABBD12F48CDF804E089000844CD
:10366000017821F0020101706FE63A4A5468002C9B
:10367000ADD06888B5F804E003E00C325468002C43
:10368000A5D013888342F8D153887345F5D1000A39
:1036900003280CBF94F800E0B2F808E067E7CDF823
:1036A00004E052E64FF0020E61E700F089F90028CD
:1036B00000F0F18008301D4AC4F88400C4F880206E
:1036C00000F07EF9002800F0E0800830204AC9F8B8
:1036D0008C00C9F888202FE600F072F9002800F06D
:1036E000E6800830114AC8F86400C8F8602000F08D
:1036F00067F9002800F0D5800830154AC9F86C0039
:10370000C9F868200CE600BFC86B0020886900205B
:103710001C690020C0200740B0680020D06B00204A
:10372000A86900200080FF1F942007408800400007
:10373000882007408020074098200740CC68002060
:10374000206900208C690020946900201D690020F8
:10375000C8004000FC5801008C20074000F030F900
:10376000002800F08C8008305D4AC8F84400C8F892
:10377000402000F025F900287BD00830594AC9F8CC
:103780004C00C9F84820BEE500F01AF900286AD0BC
:103790000830534AC9F82400C9F8202000F010F975
:1037A00000285AD008304F4AC9F82C00C9F8282000
:1037B0009BE5D1F89C00083800F022F93DE5D1F8EE
:1037C0009400083800F01CF931E5C86D083800F0A5
:1037D00017F902E5486D083800F012F9F7E4C86CF3
:1037E000083800F00DF9ECE4486C083800F008F9EE
:1037F000E1E4C86B083800F003F9D6E4486B0838F8
:1038000000F0FEF8CBE4C86A083800F0F9F8C0E42C
:10381000606A083800F0F4F8B5E4C86F083800F0C2
:10382000EFF8F2E4486F083800F0EAF8E7E4C86E11
:10383000083800F0E5F8DCE4486E083800F0E0F8FD
:10384000D1E4D1F88C00083800F0DAF8E9E4D1F8D6
:103850008400083800F0D4F8DDE42A78C9F828009C
:1038600001322A7041E52A78C9F8200001322A7015
:1038700094E72A78C9F8480001322A7043E52A788B
:10388000C8F8400001322A7073E72A78C9F8880026
:1038900001322A7050E52A78C4F8800001322A707B
:1038A0000EE72A78C9F8680001322A7038E52A78CC
:1038B000C8F8600001322A7019E700BEBEF1400F5F
:1038C000F44628BF4FF0400C04EB0C030293012395
:1038D000CCEB0E004FEA0C48002201933AE500BF02
:1038E00088004000C8004000F8B500F049FE294BB0
:1038F00029482A4C2A4F2B4DDFF8BCC0DFF8BCE02A
:10390000294E00221A605A609A60DA601A615A6180
:103910009A61DA611A625A629A62DA621A635A63C7
:103920009A63DA631A645A649A64DA641A655A65A7
:103930009A65DA651A665A669A66DA661A675A6787
:103940009A67DA67C3F880200168C3F8842041F4DD
:1039500080210160C3F307212170C3F3074013499D
:1039600038701B0E2B70FF238CF80030104D8EF832
:10397000003010480B700123337084F864207026E7
:103980004FF40074102207F82C3C2E70046081F86C
:10399000F820F8BD0080FF1F348004409C200740C1
:1039A000B0200740B4200740942007401020074073
:1039B00049E400E008E100E080200740882007405B
:1039C00072B60D480268B2FA82F30B2B10DC4FF08E
:1039D0000041D94022EA0102026062B6074803EBC7
:1039E000C303DB00C2180021C1501046516070476C
:1039F00062B60020704700BFFC570020BC51002079
:103A00000D4B0E4AC31AA2FB03231B090B2B0CD828
:103A10000B4A127852B972B60A484FF00041026858
:103A200021FA03F31A43026062B67047064A12781D
:103A3000002AF0D0FFF74CB9BC510020398EE33892
:103A400089690020FC57002094690020044B054A36
:103A50001B6890881BB11A885B88D31A184470477A
:103A6000A4690020C06B002038B50E4B1B7873B9D9
:103A70000D4C216861B103F0FF054B880B800420D9
:103A8000FFF78AF9256038BD084B01221A7038BD4E
:103A9000FFF796FF0028F7D00146BDE83840042024
:103AA000FFF77AB99D690020A06900209C69002079
:103AB000C029F0B428BFC02172B6124B124E134A6F
:103AC00018600023138033607360B360F360336168
:103AD0007361012799B15D0903F01F0456F8252091
:103AE00007FA04F4013322438B4246F82520F2D131
:103AF0000023438001338B4200F58270F9D162B616
:103B0000F0BC7047B4690020BC690020D669002071
:103B1000F0B472B6234F244E3C8806F1180306EB2E
:103B20008400984212D256F8241099B9021D06F169
:103B30001B05631CAD1A03EB950503E052F8041B4B
:103B400041B90133AB421C461046F7D162B60020A2
:103B5000F0BC7047B1FA81F34FF00042DA4021EA3D
:103B60000201016001B9013410493C800A88013228
:103B700094B20C8062B6801B8010C3EB401000EB47
:103B8000801083000A480B49006803F5FB531C337F
:103B90000125C5540D88AA42184488BF0C80F0BC8A
:103BA000704700BFD6690020BC690020D86900209A
:103BB000B4690020B0690020428872B60378012BF6
:103BC00003D9013B037062B67047531170B40C4CBB
:103BD0000C4D54F823102E88D2434FF0004002F0D1
:103BE0001F0220FA02F21143074A44F82310B3429D
:103BF00038BF2B801388013B138062B670BC7047BE
:103C0000BC690020D6690020D8690020C368B3B120
:103C100030B401E0DB688BB1187A9042FAD1586871
:103C20005C7A006950F82450002DF3D140F824103C
:103C3000087801300870DB68002BEDD130BC70478C
:103C4000437A8B4206D90369002253F8210043F8D6
:103C5000212070470020704738B5437A8B421AD92B
:103C6000036953F82140002243F821209CB12378B6
:103C7000012B0ED9FFF74CFF054628B14FF4807297
:103C8000211D0430FEF7A2FC2378013B2370284657
:103C900038BD204638BD002038BD00BF037C23BBA3
:103CA0004368427A5B7A9A421FD830B472B604688D
:103CB000E3682BB3DA6832B119688C4216D0134628
:103CC000DA68002AF8D1D8600023C360A37A0133F0
:103CD000A37202684168012313728A7A1A448A72B5
:103CE00042681372037462B630BC70475D68416805
:103CF0008D42E4D1198903899942F4D01346DFE754
:103D0000E060E1E7037C10B5002B32D04368427AD3
:103D10005B7A9A422DD872B60268D36843B3984250
:103D200002D129E0984202D0DB68002BFAD1436827
:103D3000417A1B69044653F8210048B1FFF73CFF64
:103D400072B66368627A1B69002143F82210226808
:103D5000937A013B937223689A7A02B91A72626865
:103D6000937A013B937263689A7A1AB100232374A1
:103D700062B610BD1A72F9E7C368D360D7E700BF17
:103D8000084B1A7862B930B407480849D025057045
:103D90004FF0804401220C6010461A7030BC70470E
:103DA00000207047B86900205EE400E008E100E010
:103DB0001A491B4A1B48F8B50B681B4D046843F0B1
:103DC00080730B60136843F0010313602E6814B90D
:103DD00015E064699CB1237A002BFAD023682F6820
:103DE0001B68204698472B68E188DB1B1B099AB2A9
:103DF0008B42A28088BFE2806469002CEBD10A4B21
:103E00000A4A1B6810880A4C9B1B1B0999B2834203
:103E1000218001D91180F8BDF8BD00BFFCED00E0A4
:103E2000001000E0AC690020041000E0D46900201C
:103E3000DA690020F0B572B699B902688AB10379DF
:103E40000F2B0ED8274C218841FA03F5ED070AD530
:103E500003F1007303F59063B2EB431F03D162B625
:103E6000F0BD204C2188002341FA03F212F0010238
:103E700007D00133102BF7D162B600220371026024
:103E8000F0BD01259D402943218062B6164E174D95
:103E9000174FDFF864E0D9B20171346844F00204CE
:103EA00034602C6844F002042C60A6F5802682243D
:103EB000A5F5802503F100733C6003F59063223E75
:103EC000243D0C4C8EF800105B013170297021707C
:103ED00003601A605A609A60DA601A615A619A61E6
:103EE000DA61F0BDDC690020408004403C80044081
:103EF000008000401F8000401A80004003790F2B93
:103F000011D8094A10B4137072B6084904790A88A6
:103F10000123A34022EA03030B8062B61022002390
:103F200010BC0271036070471A800040DC690020F9
:103F300010B4EFF3108272B6437F33B9017F0129C9
:103F400007D003290FD00123437702B962B610BC12
:103F50007047124C2168A1B1114943610B6883611C
:103F600008605861EFE70F4C216881B10E49436149
:103F70000B688361086058610C4B4FF080511960E9
:103F8000E1E7074B4161816120601860DBE7064B88
:103F90004161816120601860EEE700BFF069002098
:103FA000EC690020E0690020E469002004ED00E0F5
:103FB00070B5EFF3108272B60C4C206880B10C4ED5
:103FC00000254369236073B19D6102B962B64577EC
:103FD00083689847EFF3108272B620680028F0D10A
:103FE00002B962B670BD3360EFE700BFE069002040
:103FF000E4690020FFF7DCBF184A30B41468002CD5
:1040000027D0036821688B420ED2CB1A002184602E
:10401000C1602360E06010600223037530BC70470C
:1040200011688B42144608D3A2685B1A0360002A09
:10403000F6D18260C460A060EEE7D268C26084609E
:10404000E060C568CB1A0222A8602360027530BC0C
:1040500070478460C4601060DEE700BFE86900203C
:10406000F8B5224E34682CB32368002B3AD1204F88
:104070001D4604E03468ECB12368002B32D1A368FC
:1040800003B1DD6020693360036825751B68BB429E
:1040900021D1037F4560022BC46020D0FFF748FF89
:1040A0006368002BE6D023602046FFF7A5FF346845
:1040B000002CE1D1EFF3108372B60E4A0021106894
:1040C000116003B962B628B18468FFF795FF2046F6
:1040D0000028F9D1F8BD224600219847E0E783681F
:1040E0009847DDE7013B2360E4E700BFE869002073
:1040F000FD170000F8690020024A136801331360BD
:10410000FFF7AEBFB0680020F8B50E4671B17AB1C6
:104110000746144600253B6816F8011B1B68384605
:104120009847013C0544F6D12846F8BD0846F8BD3D
:104130001046F8BD08B5FCF7C7F9FCF759FA00F0CE
:1041400003F8FAE7704700BF38B5224C237803B173
:1041500038BD01232370FFF779FC70BB00F068F8CD
:1041600040BB00F0FBF810BB00F08EF9E0B9002373
:104170002370EFF30583002BEAD1EFF3108172B6C1
:10418000154B1868E0B1154C2278CAB945691D6015
:1041900001232370C5B1AA6101B962B60025457734
:1041A000836898472570D3E700F030FADFE700F026
:1041B0002BFAD9E700F026FAD3E7FFF7C3FFCDE7E4
:1041C0000029C5D162B638BD054B1D600029E5D177
:1041D000E3E700BFFC690020F0690020F4690020DB
:1041E000EC690020F0B44D1E2E46002400E001349E
:1041F000B0FBF2F302FB1300092800F130078ABF7D
:104200003730F8B2C0B206F8010F1846002BEED1D5
:104210000A1953704CB1107815F8016F28700133EA
:10422000E01A834202F80169F5DB0846F0BC7047EA
:10423000054A064B10781B78C0B2DBB2984238BFF3
:104240004030C01A704700BF046A0020056A002091
:10425000F0B4384B1A7912F0300F2CD072B6997D29
:1042600001F0FF0200293DD062B6334F3349387860
:104270000D78334E1C46C0B2EDB2431C402BE179A1
:1042800028BF0023AB4202F1FF32C9B21CBFF15478
:10429000184612F0FF02F0D12A4B1B68C2B23A70E6
:1042A0004BB1A84236BFC5F14005401B4019272835
:1042B000C4BF01221A701F49CA78D2B2150616D49B
:1042C00052060DD51B4B1B795B0609D51E4B1F49AA
:1042D0001B6800220A7003B11A70164B3C22DA7078
:1042E000F0BC70474022D9795A7462B6E3E70B7983
:1042F0001C06E5D5164B174E1C783378E4B2DBB2BA
:104300009C420ED0144D01E0A3420AD00133402B51
:1043100028BF00230879E85CC0B2C871087D07286F
:10432000F2D9DBB2034933700B79180644BF7C2302
:10433000CB70C5E700A00640046A0020056A002093
:10434000486A0020006A00208C6A0020886A0020E9
:10435000906A0020896A0020086A0020054A064BFE
:1043600010781B78C0B2DBB2984238BF4030C01A18
:10437000704700BF046B0020996A0020F0B4384BEE
:104380001A7912F0300F2CD072B6997D01F0FF022D
:1043900000293DD062B6334F334938780D78334E1B
:1043A0001C46C0B2EDB2431C402BE17928BF00236C
:1043B000AB4202F1FF32C9B21CBFF154184612F0F1
:1043C000FF02F0D12A4B1B68C2B23A704BB1A8422F
:1043D00036BFC5F14005401B40192728C4BF012244
:1043E0001A701F49CA78D2B2150616D452060DD5D6
:1043F0001B4B1B795B0609D51E4B1F491B6800220E
:104400000A7003B11A70164B3C22DA70F0BC704788
:104410004022D9795A7462B6E3E70B791C06E5D5D8
:10442000164B174E1C783378E4B2DBB29C420ED0A8
:10443000144D01E0A3420AD00133282B28BF0023EA
:104440000879E85CC0B2C871087D0728F2D9DBB2F0
:10445000034933700B79180644BF7C23CB70C5E742
:1044600000B00640046B0020996A0020C46A002056
:10447000946A0020086B0020986A00200C6B0020D2
:10448000056B00209C6A0020054A064B10781B78BB
:10449000C0B2DBB2984238BF4030C01A704700BF8C
:1044A000146B0020156B002030B42B4B1A79940646
:1044B0001FD52A48DA790378294901333F2B097837
:1044C000C8BF00238B42D2B203D0264CD9B2E254EB
:1044D0000170254A116861B1244A1278D2B2934220
:1044E00036BFC2F140029B1A9B18272BC4BF012381
:1044F0000B70194AD378DBB2180611D45A060DD5C1
:10450000154B1B795B0609D5194B1A491B6800220C
:104510000A7003B11A70104B2C22DA7030BC70474D
:1045200011790906EAD5144910480C780178C9B206
:104530008C420DD04A1C272A84BF00210A460F4D09
:10454000054C98BFD1B2AA5CD2B2E2710170D5E736
:104550006C21D170D2E700BF00C00640146B002070
:10456000156B0020406B0020106B0020816B002039
:10457000846B0020806B0020886B0020186B00206B
:1045800070B584B072B6194B194D1A487022412685
:104590000F2480211A702E701A4604701970137837
:1045A0001B06FCD5144B186862B6144B144C984289
:1045B00098BF00EB800001A998BF40000A22FFF7D6
:1045C00011FE01A92046002311F8012B01333AB155
:1045D0000A2B20F8022FF7D11623237004B070BDE8
:1045E0005B00DBB2237004B070BD00BF000002406E
:1045F0000700024006000240080002407F96980033
:104600008C580020704700BF704700BF704700BF44
:104610000B460146184600F001B800BF13460A4693
:104620000146022000F004BB014B1868704700BF30
:10463000D05C002070B50F4E0F4D761BB61018BF22
:10464000002405D0013455F8043B9847A642F9D11F
:104650000A4E0B4D761B11F07DF9B61018BF0024E1
:1046600006D0013455F8043B9847A642F9D170BDF5
:1046700070BD00BF6059010060590100B4590100CC
:1046800060590100024B0146186800F003B800BFF2
:10469000D05C00202DE9F04F01F10B05162D83B001
:1046A000064640F29F8035F0070500F1BF80A94221
:1046B00000F2BC8000F0A6FAB5F5FC7FC0F09C8249
:1046C0006B0A00F0BA80042B00F28381A80900F184
:1046D000390E4FEA4E033830C44F07EB8303A3F182
:1046E00008015C68A14207D1ACE0002A80F2AC80EE
:1046F000E468A14200F0A680636823F003035A1B1C
:104700000F2AF2DDB9493C6901F1080E744500F049
:10471000B381636823F003035A1B0F2A00F39981C6
:10472000002AC1F814E0C1F810E080F29E80B3F5D1
:10473000007F80F06781DB0803F1010C01229B10F0
:1047400002FA03F34A6851F83C80C4F8088001EB90
:10475000CC091A43A9F10803E3604A6041F83C40E0
:10476000C8F80C40831001249C40944200F28A80D7
:10477000144206D120F003006400144200F104004A
:10478000FAD007EBC009CC468046DCF80C108C450B
:1047900007D173E1002A80F28181C9688C4500F05D
:1047A0006D814B6823F003035A1B0F2AF2DD0C4680
:1047B000D1F80CC054F8088F4B1945F001054D6035
:1047C00042F00101C8F80CC03046CCF808807B618B
:1047D0003B61C3F80CE0C3F808E059609A5000F060
:1047E00013FA1FE0102921D800F00CFA1025062337
:1047F00002207E4F07EB8303A3F108025C6894421A
:1048000000F045816368E168A56823F00303234451
:1048100030465A68E96042F001028D605A6000F04B
:10482000F3F90834204603B0BDE8F08F00240C23D0
:104830002046336003B0BDE8F08F80234FF0400E78
:104840003F2049E770465DE72344E1685A68A56860
:1048500042F00102E96030468D605A6000F0D4F900
:104860000834204603B0BDE8F08F234430465A6830
:1048700042F001025A6000F0C7F90834204603B044
:10488000BDE8F08FBC68636823F00308A84504D333
:10489000C5EB08030F2B00F38C80554BDFF86091BC
:1048A0001A68D9F8003001332A4404EB080A00F0F2
:1048B000608102F580520F3222F47F6222F00F02F3
:1048C00011463046019200F0A1F9B0F1FF3F834656
:1048D000019A00F05881824500F2FC80454B19682E
:1048E000DA451144196000F05381D9F80000DFF86F
:1048F00010E101301BBFCAEB0B0A5144CEF800B0E7
:1049000019601BF0070100F01781C1F10800C1F523
:104910008051834408315A44C2F30B02C2EB0109AF
:1049200049463046019300F071F9431C019B00F0A9
:104930003F81CBEB00024A4442F001021968C7F8FC
:1049400008B04944BC42CBF804201960DFF8A490B9
:1049500016D0B8F10F0F40F2FD806268A8F10C0389
:1049600023F00703E01802F001024FF0050E1A438E
:104970000F2B6260C0F804E0C0F808E000F21C8170
:104980001D4BBC681A68914288BF19601B4B1A689E
:104990009142626888BF196022F003029542A2EB3F
:1049A000050301D80F2B04DC304600F02DF900245C
:1049B00038E7621943F0010345F0010565603046B0
:1049C000BA60536000F020F90834204603B0BDE817
:1049D000F08F142B71D9542B00F2A480280B00F116
:1049E0006F0E4FEA4E036E3076E600BFD45C0020B7
:1049F000946B0020986B0020906B00208C6B002043
:104A0000E06000205A0A042A5ED9142A00F2B3801A
:104A100002F15C0149005B3207EB810C57F8211071
:104A2000DFF8DC81ACF1080C8C4500F088804A6826
:104A300022F00302934202D289688C45F7D1D1F863
:104A40000CC07A68C4F80CC0A160CCF80840CC60F7
:104A500088E6631942F0010745F0010565603046BC
:104A60004B610B61C3F80CE0C3F808E05F609A503B
:104A7000083400F0C9F8D5E64A6873E608F1010881
:104A800018F0030F0CF1080C7FF47FAE30E0DC6807
:104A9000A34208BF02303FF435AEB3E60B440C46E8
:104AA0005A68C96854F8085F42F001025A603046FB
:104AB000E9608D6000F0A8F8B4E603F15C0E03F144
:104AC0005B004FEA4E0307E69A0902F139014900FB
:104AD0003832A1E7BC424A4B3FF400AF9C686268A1
:104AE00022F003025AE759F80839994540F08280CC
:104AF00010F0030F00F1FF30F5D17B6823EA0403C7
:104B00007B6064009C423FF6BDAE002C3FF4BAAE21
:104B10001C4240467FF435AE64001C4200F10400A4
:104B2000FAD02EE6B3F5AA7F18D8E80B00F1780E7C
:104B30004FEA4E037730CFE54FF48051EBE6012189
:104B4000D8F80430921001FA02F21A43C8F804208F
:104B5000614677E70123CBF8043025E740F2545251
:104B6000934220D8A80C00F17D0E4FEA4E037C3012
:104B7000B2E51032A4E6542A26D81A0B02F16F01CE
:104B800049006E3248E7BC68626822F0030205E71C
:104B9000CAF30B0000287FF4A8AE4244BB6842F081
:104BA00001025A60ECE6FE234FF07F0E7E2093E573
:104BB00001224FF00009C1E604F10801304600F07F
:104BC000FBF8D9F80010DBE6B2F5AA7F05D8DA0BBE
:104BD00002F17801490077321EE740F254518A42CF
:104BE00005D89A0C02F17D0149007C3214E7FE21C0
:104BF0007E2211E77B6884E7E808431C5B00F8E548
:104C0000D45C0020704700BF704700BF38B5074C28
:104C10000023054608462360FDF738FE431C00D0FC
:104C200038BD2368002BFBD02B6038BDD46B00202F
:104C30002DE9F047254C2568D5F8484106468846B9
:104C400092469946C4B360681F2817DC431C76B1AE
:104C500004EB80050122C5F888A0D4F888118240B1
:104C60001143022EC4F88811C5F808911ED00230F5
:104C7000636044F820800020BDE8F087144B03B344
:104C80004FF4C870FFF7FEFC0446D0B1D5F84831A8
:104C9000002780E88800C5F8484138460123C4F859
:104CA0008871C4F88C71002EE1D0D1E7D4F88C1152
:104CB0000A43C4F88C21DAE705F5A674C5F8484123
:104CC000C1E74FF0FF30BDE8F08700BF5059010049
:104CD00085460000024B13B1024800F005B870474A
:104CE00000000000F54C0000002301461A4618465B
:104CF000FFF79EBF38B5074D074C2C1BA41005D0FD
:104D0000013C55F8043D9847002CF9D1BDE83840E6
:104D100010F050BE0000000000000000F8B5234F66
:104D20000C460646FFF76EFFBB685D6825F003057D
:104D3000291B01F6EF7121F47F6121F00F01A1F52C
:104D40008054B4F5805F07DB00213046FFF75EFF3B
:104D5000BB682B44984204D03046FFF755FF002033
:104D6000F8BD61423046FFF751FF01300DD0104BC6
:104D7000BA6819682D1B45F001053046091B5560BE
:104D80001960FFF741FF0120F8BD00213046FFF711
:104D90003DFFBA68831A0F2BDEDD064C04492468F8
:104DA00043F00103001B53600860D5E7D45C00208A
:104DB000986B0020E0600020002945D02DE9F041EB
:104DC0000D468046FFF71EFF55F8047C6A4927F020
:104DD0000103A5F10804E2188E685068B24220F081
:104DE000030062D0FE0750600BD455F8087CE41B2A
:104DF00001F1080EA56875453B446FD0E768EF6088
:104E0000BD6015186D68ED0742D543F00102626080
:104E1000E350B3F5007F18D2DB085A1C4D6851F8F7
:104E20003270A76001209B1000FA03F301EBC2006F
:104E30001D430838E0604D6041F83240FC60404658
:104E4000BDE8F041FFF7E0BE70475A0A042A53D884
:104E50009A0902F139077F0002F1380501EB87005A
:104E600051F827204449083890424DD0516821F02C
:104E700003018B4202D292689042F7D1D068E06081
:104E8000A2608460D4604046BDE8F041FFF7BCBE3C
:104E900095683A4FBD4203443FD0D068E86043F084
:104EA000010285606260E350B3E7FF07034407D463
:104EB00055F8082CA41A1344A068E268C2609060F8
:104EC0002F4A126843F00100934260608C60B6D3B1
:104ED0002C4B40461968FFF721FFB0E711184968CD
:104EE000C90744D49168D268CA60034443F0010002
:104EF00091606060E350A2E7142A17D802F15C07C2
:104F00007F0002F15B05A9E7AA104B68012505FAAD
:104F100002F213434B600246B1E743F001024C61D9
:104F20000C61E560A5606260E35088E7542A06D80A
:104F30001A0B02F16F077F0002F16E058EE7B2F5E2
:104F4000AA7F06D8DA0B02F178077F0002F1770515
:104F500084E740F25450824206D89A0C02F17D0751
:104F60007F0002F17C0579E7FE277E2576E743F096
:104F700001026260E35062E7D45C0020DC5C002048
:104F8000DC600020946B0020F90E00018382848392
:104F90008282838380818184851D2421282D311381
:104FA00037384C544041BBB33A302610B30B2CA7D2
:104FB000A9B7B7AAACA1A7AFB8C1ABA79093A28C71
:104FC0009911212931333B2D35464C4B4F275457EE
:104FD000605B625A7068716020DFF5EFF2E3E2DE39
:104FE000DEE1D9C4BAA593CC6066544D4C2EDCE208
:104FF000FAEFC9E2DCF2F3F4F1CAD7E9E5FB4E704F
:105000007075274A5B6574737170706D696C675059
:1050100027E2E0E1E9F1EBEBE5E2F2ECF1D95F61E7
:10502000754949D4CC4552505A64656B66676669C8
:1050300052544B49DB283163725054E3DC46515BD8
:1050400061706A76441FE2E1D5D4A6D2D8E5F0EAD1
:10505000F0D3D745A3A0CDD0D9D8E0DDE8E7E8E389
:10506000C4BB40301935B25A55716F726C695E3CE1
:1050700039C8575F4946CBBC282BC14C615F6EF1E4
:10508000F7F6FACADAE8EAF0EAE8EFF0E2E0E9E295
:10509000D3CAC0ACB8586155584458736C7063603B
:1050A0005F614E4FADA4E5D7E2C7D54C406A687347
:1050B00071706B6967705F60C2C5E1E0E6E3E9E4C7
:1050C000E6E2E4DBDBC6C687A62A9EBB96903D3FA0
:1050D000525358585C5D6360615F63454AD8CDB2F6
:1050E000305A4E5DC3D2DBDE231960545B47463035
:1050F00047CAC7E2E0D8D3C7CACCCDD3D2DC3AA3E3
:105100006247E0E5F5F0EDEEF2DCDA4638DEC2505B
:10511000596858545B5D646462646F676B5B514EA1
:105120004A464190A8B7C1C0D5E2D5D81292AEB6D2
:10513000A8B5BEB8BAA300AAAAB6B23C2835A0B199
:10514000AF81BEB2D3CDDCD0D0A631464C51524651
:105150004325234A2425CDD8D1CDD7D5DDD5C6BD0D
:10516000A4A9C64C54565851556C666962645B5F7D
:10517000403FAD94D0B6573F40D5EA383C6058B375
:10518000C0DED08BD2DED8DCC6CCD6DDF1EBEFE3CF
:10519000D6E9F1D6D75442DED7DFD7E5B7CF6E7167
:1051A0006D6A5061706C6C6A6B68695653504D5FE4
:1051B0004799C9D2DDE4A6B05E55444B56576156B7
:1051C0005FC7C4D5CDD1BD3E313BB1C93635C7D19E
:1051D000DCDDD4E1DFEEF2F3F5F4F3F5F5F5F3F50C
:1051E000F0F44255706E72707371767577777576DC
:1051F0007575737470736765443ED7D5F1EFF3F23C
:10520000F5F4F7F7F5F6F1F6F5F8F7F8C9777179EF
:105210007574737272716162A86876747670675083
:10522000424B3664DCF7F2F5E8E841377262E83B5E
:10523000626A736460524B4F3854C7DCECF9F6F87D
:10524000F6F0F5F0E1B4685B604E3C615F70684970
:105250003742AB4DE5EEF0F0E5E2F1E8F1CB576017
:1052600064625E72726D63B339522536DCE2D2C776
:10527000D2C0DE325E656A68647272736B3CABC228
:10528000DCE3EFF5F3F3F3F0F2ECEDDED531455E60
:105290005F69665C575C5259A3C9CECCD0C5D7C3F1
:1052A000A74A5461636B6F6663615A573EC7D1D595
:1052B000E1E3E7E8E6E4E3DFDDD3D2C2CE4C486BBE
:1052C000687471757475726E5E554233B3C1BACE2F
:1052D000CDDCDAE8EBEFEEF1F0F3F0EAE8E8E3E258
:1052E000C9AEBE1E985060676F7072706F6A67704B
:1052F000666245D4D4E1D2D3D1D2E9E5EBE1D6D58B
:10530000DBCAD2504E585259515E35B8CDD5C1BACC
:10531000BCB4B124514417443B5E6155548C2BB04E
:1053200014BE3B484850B5ACC19D42495851544504
:1053300042332ECCCED3D6DDDFE3DFDCE2E2D9D4BC
:1053400043354146595058A7B3BDBCC7CBD5D7E26A
:10535000DBDED1D1A2934747484F52585D5C5A617A
:105360006065614F4C3737B43A334A483E3A4B4355
:10537000383F4B4048B3ACD8D6E0DBDED9DED6DAD6
:10538000C5C52C234339202D423E50A5ACC9C6CCFF
:10539000C6CCC5CDC0C788A24D4C55525350574CB2
:1053A00045372C32348F06242E4B404621A7142734
:1053B000B2B1D5D2DAD4D9CAB5C7C9D0D14D485CBB
:1053C00051444C5B4343B8B9B2A8BDB02F94B0B2BE
:1053D000BD1E263030424252484B4042303295008A
:1053E0003738243436434D474C8D98B0AA279486DD
:1053F000B4AFC6C7CFCBDAD6D7D1C4C4CBB8B1030C
:10540000169EA5B7B9C8C3C6C1C1B7ACBAAFA4236D
:10541000913B1F5050616265635E59554B3B1C0FB9
:10542000C5CAD9DBD1D0C3C5C7C1A6BBB7C1C19955
:1054300086121F333543332D353C3238B8A1B22B99
:10544000424751454AABA8CBC6C5C5CBCAD0C4BE9E
:10545000C0B6D0C9D4C4B437514A4D4B4F42453879
:10546000435B4E3933A64A4F4341545361564F462E
:10547000364C514442C7C4D3CDD3CBCFBCAEC3C24C
:10548000D8D7DEDADFD9DAD6D8D0D0A8A637354ECD
:1054900045503D343E434144BAABD8C2CB46595443
:1054A0005752545458535E6868715B43502373706D
:1054B000776E55C8E4E2E0F2F9F2ECF6F5F8FCFAA2
:1054C000FCF9FAF5C345716E7572746D6C5D5363CA
:1054D000646A6A6C6D71707573747473716C6660F4
:1054E0005A4922AEB4D3D5E8E8E9E8E6E7E8E9E8C6
:1054F000E9E7EAE7EDE6E7D59C4A5F59614E535488
:105500005A586065666B635F666664635D5A4951AD
:105510004E53534D444B4342290FBCC4CCC5DAD83B
:10552000E8E7EBE8EAE5E3E0E1D9D7D1D0CECFD1A7
:10553000D0D3CFCBC6BFC6C1C7BE9733515054508E
:105540005051524F4D3839333545191CC2C1C9C26B
:10555000C4B0303E3C43B25C5B6764615555A0D734
:10556000E4F1ECF1E1E4DAE1E1E6E7ECEFF0F2F0AE
:10557000F1D9D54E4A645E685A5D525831419F3B1D
:10558000484F4F525158576262605F625F5B585399
:10559000595D555440444C4C4E4836474350504A50
:1055A00046453F3C22B4A392B2ADCAC9D1CBBFBAE3
:1055B000A2B4ABBCAFD4D4D7D7D6D8DFDEE1DCDC25
:1055C000D5D3C0B4283E51545F5654585757524310
:1055D0003128C1D1D9E0E1E4DADBAAC119B83CC471
:1055E000ADDCDBE4E2E5E1E1DAD9D0CEB2A2444AB7
:1055F00050525255575A58616265665F5E5A5A5505
:1056000056535555504A504B4A41330EA0C0CFC84F
:10561000CFADB192A4A9A99BA293A4ABB1B917A293
:10562000B6C1C8C7BDD0D2D7D6D5D2CFC8C2B5AC07
:10563000140B45494B4B51515D54564842373A8DF6
:1056400084C9C4CDC5C9BFC0B2B9A2B243364D35B5
:105650002CB7C0CDD0D6D6D9D8D9D7D5D5D6D4D1D8
:10566000D3D2D7D5CAC8C2C2C7BCBA0C223E415594
:1056700056605D6160625A5858575A585753534E96
:105680004E413B1A902725A794131E2A1C2219204D
:105690009291C9C4D0C3B0B7B8B9B8B9BBB8BBCB85
:1056A000C8D1C4BDBDC1A9A73D3D4A47514B5241D8
:1056B000402A280086C3C1D1C28DB400D1D4CECC3B
:1056C000D4D1C2C4A3CAD0CFCBD2D0D3CDBEB7B170
:1056D000ADBD21A25859656469686F6C72696B52DF
:1056E0004F3937443439D0F1DBE56571DCDDF6F252
:1056F000E3E1C6E3E7EDF0E9E8CDD4E5E3EED8AECB
:10570000A431B8A8C6B9C19D352CC24441606168B6
:105710006768676D696D65645B59504B3E30BBC807
:10572000E2D1D42247C9C4DFD3424555482452555B
:105730005C5B5A5658514031B3A4C233254C4426C1
:1057400091C5BCBDBCC7B5C13E3051423F0A2DC258
:10575000C6D5D8D4D4DCD9D2D009D0D7D7D8D4D4D0
:10576000CDCCD1D1E0D3D4B1AB4B514143A23446DF
:1057700049494C465351605D605D5D595D54562505
:10578000BB3D352EADD6DAEDE1E7B243C1C5DEDC77
:10579000D1D5D1DDE4E2E5D7D6B1AE12212D435209
:1057A000515255575B5D565A60626862616060573E
:1057B00055ABB1B1C5CFDCE7E0E2D4D4D3D2D0CA87
:1057C000BFBCB6B4BA32354F4D5954524B334F5417
:1057D00054563F3F4F4F5A50453F30403C413DA209
:1057E000B2D2CBC9C4B0CFCFDDDED6D5C7D0D2D4EC
:1057F000D5D5D6CBC3D2D0DED4CEB8242C373E42BA
:1058000041439525AC344943442EA24D4A5B554A49
:10581000474946503E48C9C5E0DAD3CECDC4C0B5ED
:10582000AEACAA2C302731384049474F4045B3A68B
:10583000303A524841403D40394C4B3B36BF983A94
:105840002827B5C71A8A473B21A6C5BDB4B8AACF39
:10585000CFD5D4CECECAD0D8CBC8A12AC6C3CDC24C
:10586000A88D2B1E15282743434646534F524842C6
:105870004549322FAAA83B1EB2B7C0B7A6C7C7D5A5
:10588000D3D7D3CBCAC2CED1CECDC0BA2B2C3939C7
:1058900035434A4C504D5045492747525456535171
:1058A000555458543D3CA732383E448691C7C506EE
:1058B0009734A4B6BEC0C1C0CBCBD4D2D7D2D0CC43
:1058C000C7CCCDC8C6BEBBC6C1CAB3AB37404446C1
:1058D0004245504D4A4B474E4E504E4E4840333055
:1058E0009BA2C4C9D1D2D3D2D2CEC1BB95B0A5A8F8
:1058F00084BBB6BEB6B9ADA28E17150D353C92105D
:10590000C1A6A0323643434B4B4744423D3C33365D
:105910001A1CAEA4C4BFC7BBB287A83A3D515451AC
:105920004E4542453781A8BDB7BFABB11D8DB8B656
:10593000C3AF121A34B3B1CECCD8D5DFD7DCCFD0B9
:10594000B0AD2823BEBAC8BCC1ABB335384341445F
:105950004145382509AA92A230324848404746516D
:1059600054565758565855514930302E8BA3C0C401
:10597000C1C2C1C3C9C5C6C2C1BCBBBABAC3C1BA20
:10598000B8A9BAC3BEC19D95038126263D31381FF3
:1059900019999F0382291B169097A098ABA9BCBBAD
:1059A000B9B229123DA4A9C2C4C3C2C6C5CFC8CCCE
:1059B000C1C0AA8D9812B9AE84283E3C40403D45F6
:1059C00044525055514B4949464641413332A190CA
:1059D000B49F9B151E2733A094C1B6AF961D2121FD
:1059E000252030283F3841342C85A1B4B9BDC0B939
:1059F000BEA0B3A4C0C5C9CBCBCAC9C6C9C3C6BBA8
:105A0000B60931313333314B48534B4D3C2A1B9748
:105A10002C2732269BA8C1B5B4AAA4B5B7B7B9BF85
:105A2000BEBFBEBDC0C3BBB8A69AA281AA253542DF
:105A3000474A4C4B4C44453C4345494F4849302329
:105A4000A1AEB7C1C7CFD3D4D6D3D3D2D0C4C4BCF0
:105A5000BFC4B6B319223A3A4D494F474242444374
:105A6000463435A4851A283A30360D1CB6B3BBB57A
:105A7000C2B29F203A292822242424AFA6BEA79B85
:105A8000162510020305312E3C343F24179F9BB688
:105A9000B5BFBCC0BCB8B4A9B5B1C1C0C0BAB7B07D
:105AA000AE9D140B15101510181119A12023353BAC
:105AB00036343A39181CB10B212C322A2B1412AB74
:105AC000A9AFA99BAAA8B8BBB7B5B0ACAFA5A3971F
:105AD000A421213838413F4641483E402B30AAA5F9
